:020000040800F2
:1000000000280020B11D0008691A00086F1A0008B6
:10001000751A00087B1A0008811A00080000000009
:10002000000000000000000000000000871A000827
:10003000931A0008000000009F1A0008AB1A00087D
:10004000F91D0008F91D0008F91D0008F91D000838
:10005000F91D0008F91D0008F91D0008F91D000828
:10006000F91D0008F91D0008F91D0008F91D000818
:10007000F91D0008F91D0008F91D0008F91D000808
:10008000F91D0008F91D0008F91D0008F91D0008F8
:10009000F91D0008F91D0008F91D0008F91D0008E8
:1000A000F91D0008F91D0008F91D0008F91D0008D8
:1000B000B91A0008F91D000800000000F91D000829
:1000C000F91D00080000000000000000F91D0008F4
:1000D00000000000F91D0008CD1A00080000000013
:1000E000F91D0008F91D0008F91D000800000000B6
:1000F0000000000000000000000000000000000000
:0C01000000000000000000005FF808F1A3
:10010C0010B5054C237833B9044B13B10448AFF345
:10011C0000800123237010BDA4000020000000000B
:10012C00C844000808B5034B1BB103490348AFF39F
:10013C00008008BD00000000A8000020C844000892
:10014C0080B400AF064B1B68012B04D1044B00227A
:10015C001A60012300E000231846BD4680BC70479E
:10016C00C000002080B400AF064B1B68012B04D1EB
:10017C00044B00221A60012300E000231846BD4600
:10018C0080BC7047C400002080B400AF064B1B68D5
:10019C00012B04D1044B00221A60012300E0002340
:1001AC001846BD4680BC7047C800002080B400AF24
:1001BC00064B1B68012B04D1044B00221A6001234F
:1001CC0000E000231846BD4680BC7047CC000020E0
:1001DC0080B582B000AF00237B6087E17F4A7B68EB
:1001EC0052F823207E497B6841F823207D4A7B68A6
:1001FC0052F8232079497B6841F823207B68002B37
:10020C0054D14FF48041784802F08CF903461946DA
:10021C00744A7B6842F82310714A7B6852F8232099
:10022C006E497B6851F823309A423FD16B4A7B6808
:10023C0052F823206B497B6851F823309A4235D110
:10024C006A4A7B6852F8232066497B6851F8233050
:10025C009A4215D0634A7B6852F8232063497B6825
:10026C0041F823205F4A7B6852F82330002B1DD1C4
:10027C005F4B01221A605F4B4FF496721A6015E0C7
:10028C00584A7B6852F82330002B0FD1594B1B680E
:10029C00013B584A1360574B1B68002B06D1564B39
:1002AC0001221A60534B4FF496721A607B68012B33
:1002BC0053D12021514802F035F903461946494AD9
:1002CC007B6842F82310464A7B6852F82320434946
:1002DC007B6851F823309A423FD1404A7B6852F8F0
:1002EC00232040497B6851F823309A4235D13F4A4C
:1002FC007B6852F823203B497B6851F823309A42A3
:10030C0015D0384A7B6852F8232038497B6841F86D
:10031C002320344A7B6852F82330002B1DD1384BF4
:10032C0001221A60334B4FF496721A6015E02D4A75
:10033C007B6852F82330002B0FD12E4B1B68013BEE
:10034C002C4A13602B4B1B68002B06D12D4B012222
:10035C001A60284B4FF496721A607B68022B6BD193
:10036C000121214802F0DEF8034619461D4A7B683C
:10037C0042F823101A4A7B6852F8232017497B68ED
:10038C0051F823309A4257D1144A7B6852F82320F3
:10039C0014497B6851F823309A424DD1134A7B683B
:1003AC0052F823200F497B6851F823309A422DD004
:1003BC000C4A7B6852F823200C497B6841F82320B7
:1003CC00084A7B6852F82330002B35D10E4B0122A2
:1003DC001A60084B4FF496721A602DE01000002042
:1003EC000000002020000020000C01403000002004
:1003FC00C000002040000020D00000200008014078
:10040C00C4000020D4000020C80000203C4A7B68B7
:10041C0052F82330002B0FD13A4B1B68013B394A61
:10042C001360384B1B68002B06D1374B01221A6026
:10043C00344B4FF496721A607B68032B53D14021D6
:10044C00324802F06FF8034619462D4A7B6842F891
:10045C0023102F4A7B6852F823202E497B6851F8D1
:10046C0023309A423FD12B4A7B6852F823202449EF
:10047C007B6851F823309A4235D1274A7B6852F871
:10048C0023201F497B6851F823309A4215D01C4A0F
:10049C007B6852F8232020497B6841F82320184AB6
:1004AC007B6852F82330002B1DD11C4B01221A60A3
:1004BC00144B4FF496721A6015E0114A7B6852F88F
:1004CC002330002B0FD10F4B1B68013B0D4A1360DF
:1004DC000C4B1B68002B06D1114B01221A60094BE7
:1004EC004FF496721A607B6801337B607B68032B38
:1004FC007FF774AE00BF00BF0837BD4680BD00BF9C
:10050C002000002040000020D800002000080140FE
:10051C00000000201000002030000020CC00002043
:10052C00DC00002080B400AF204B1B6801330F2B84
:10053C0037D801A252F823F0AF050008AF05000828
:10054C00AF050008AF050008AF050008AF050008AF
:10055C00AF050008AF050008AF050008AF0500089F
:10056C00AF050008AF050008AF05000885050008B9
:10057C0093050008A10500080D4B00221A600C4BD6
:10058C0002225A600EE00A4B00221A60084B03222A
:10059C005A6007E0064B00221A60054B04225A6091
:1005AC0000E000BF00BFBD4680BC70474400002087
:1005BC005C01002080B400AF094B1B68102B06D0E7
:1005CC00102B06DC13F1020F05D00F2B01E000BF3E
:1005DC0002E000BF00E000BF00BFBD4680BC70471A
:1005EC004800002080B500AF544B1B683C3B032BEC
:1005FC0000F2A18001A252F823F000BF19060008F6
:10060C002906000887060008E50600084B4B3D222A
:10061C001A6041F2883001F005F88DE0484B1B68F8
:10062C00012B0ED1474B00221A60444B3C221A601E
:10063C00454B13221A60454B17221A6001F040FB00
:10064C007AE0FFF78FFD0346012B06D13B4B3E2290
:10065C001A6041F2883000F0E5FFFFF771FD0346A8
:10066C00012B05D1354B3C221A60364B02221A6005
:10067C0001F036FA01F080FA5EE0314B1B68012B79
:10068C000ED1304B00221A602C4B3C221A602E4BA0
:10069C0013221A602D4B17221A6001F011FB4BE04C
:1006AC00FFF760FD0346012B06D1244B3F221A6055
:1006BC0041F2883000F0B6FFFFF742FD0346012BF4
:1006CC0005D11E4B3C221A601E4B02221A6001F00F
:1006DC001BFA01F061FA2FE0194B1B68012B0ED1AC
:1006EC00184B00221A60154B3C221A60164B132231
:1006FC001A60164B17221A6001F0E2FA1CE0FFF7A1
:10070C0031FD0346012B06D10C4B3D221A6041F200
:10071C00883000F087FFFFF713FD0346012B05D14E
:10072C00084B02221A60054B3C221A6001F000FAB9
:10073C0001F012FA00E000BF00BF80BD4C000020A9
:10074C0024010020E000002054000020580000206C
:10075C0080B500AF0C4B1B68202B0CD0202B10DC71
:10076C001E2B02D01F2B03D00BE001F0DFFA09E0A7
:10077C0001F0F0FA06E001F001FB044B1B68032BBF
:10078C0000E000BF00BF80BD5000002070000020C2
:10079C0080B500AF884B1B68042B13DC002BC0F218
:1007AC008881042B00F2858101A252F823F000BF4E
:1007BC00D7070008DF070008990800082F09000870
:1007CC00110A00085F2B4ED073E17B4B01221A609B
:1007DC006FE17A4B05221A60794B09221A60794B2A
:1007EC000B221A60784B0F221A60FFF7A9FC034604
:1007FC00012B05D1704B02221A60744B1E221A6019
:10080C00FFF7B0FC0346012B05D16B4B5F221A603E
:10081C006E4B1E221A60FFF7C9FC0346012B19D13F
:10082C006B4B1A686B4B1B681A446B4B1B6813445D
:10083C004FF4FA6202FB03F3184600F027FF674BF4
:10084C001B68142B03D1614B20221A6002E05F4B12
:10085C001F221A60624B1B68012B40F023815B4BFB
:10086C001E221A601EE1FFF7BDFE564B4FF0FF3201
:10087C001A60554B6FF001021A60504B6FF0020278
:10088C001A604F4B6FF003021A6012E14B4B0622B9
:10089C001A604B4B1E221A604A4B0C221A604A4BB0
:1008AC0010221A60FFF75EFC0346012B09D1484B5E
:1008BC001B680133464A13604A4B1B680133494A93
:1008CC001360484B1B68484A82FB03129210DB17DB
:1008DC00D31A464A1360434B1968434B83FB0123DD
:1008EC009A10CB17D21A13469B0013445B00CA1AFA
:1008FC003E4B5A60FFF748FC0346012B07D1344BA3
:10090C001B683B4A1360374B1B683A4A1360FFF76E
:10091C0017FC0346012B40F0C780274B03221A60BB
:10092C00C2E0264B08221A60254B20221A60254B68
:10093C000D221A60244B10221A60FFF713FC034699
:10094C00012B09D1244B1B680133234A13602A4B1A
:10095C001B680133284A1360274B1B68224A82FB11
:10096C0003129210DB17D31A204A1360224B19681A
:10097C001D4B83FB01239A10CB17D21A13469B00F5
:10098C0013445B00CA1A194B5A60FFF7FDFB034670
:10099C00012B07D1104B1B68184A1360164B1B68B0
:1009AC00174A1360FFF7CCFB0346012B7ED1024B99
:1009BC0004221A607AE000BFE00000205C000020F6
:1009CC00600000204400002048000020500000205F
:1009DC0064000020680000206C00002054000020FF
:1009EC003C010020840000206766666664010020DC
:1009FC007000002090000020800000207800002073
:100A0C008C0000202C4B07221A602C4B1F221A60E2
:100A1C002B4B0E221A602B4B10221A60FFF7A2FBF5
:100A2C000346012B09D1284B1B680133264A13605E
:100A3C00264B1B680133254A1360244B1B68244A40
:100A4C0082FB03129210DB17D31A224A13601F4B3E
:100A5C0019681F4B83FB01239A10CB17D21A13462C
:100A6C009B0013445B00CA1A1A4B5A60FFF78CFBAD
:100A7C000346012B07D1144B1B68174A1360134B09
:100A8C001B68164A1360FFF75BFB0346012B0FD163
:100A9C00134B13221A60134B17221A60124B0022AD
:100AAC001A6005E000BF04E000BF02E000BF00E0F8
:100ABC0000BF00BF80BD00BF5C00002060000020B4
:100ACC004400002048000020680000207C0000202A
:100ADC0067666666640100207400002088000020B0
:100AEC005400002058000020E000002080B500AF2A
:100AFC00854B1B68133B032B00F2FD8001A252F8BF
:100B0C0023F000BF210B00084B0B0008DF0B000883
:100B1C00710C00087C4B14221A607C4B1B684FF440
:100B2C007A7202FB03F37A4A1360794B1B681846FE
:100B3C0000F0A8FC4FF47A7000F0D8FCE2E000F072
:100B4C00CFFF744B1B68744A82FB03129210DB17A5
:100B5C00D31A724A13606F4B19686F4B83FB0123D6
:100B6C009A10CB17D21A13469B0013445B00CA1A77
:100B7C006A4B5A606A4B1B68012B10D1654B1B6882
:100B8C00013B644A1360634B1B68002B03D15F4B22
:100B9C001B68604A13604FF47A7000F0A7FC614B3D
:100BAC001B68012B40F0A980574B15221A605E4B35
:100BBC001B684FF47A7202FB03F3554A5360544B93
:100BCC005B68184600F05EFC4FF47A7000F08EFC07
:100BDC0093E000F099FF554B1B684F4A82FB0312C0
:100BEC009210DB17D31A4D4A1360504B19684A4BBD
:100BFC0083FB01239A10CB17D21A13469B00134484
:100C0C005B00CA1A454B5A60454B1B68012B10D12F
:100C1C00464B1B68013B454A1360444B1B68002B39
:100C2C0003D1414B1B68414A13604FF47A7000F0BA
:100C3C005DFC3C4B1B68012B61D1334B16221A60B7
:100C4C003B4B1B684FF47A7202FB03F3304A936000
:100C5C002F4B9B68184600F015FC4FF47A7000F08F
:100C6C0045FC4CE000F064FF324B1B682A4A82FBC7
:100C7C0003129210DB17D31A284A13602D4B1968F4
:100C8C00254B83FB01239A10CB17D21A13469B00DA
:100C9C0013445B00CA1A214B5A60214B1B68012B71
:100CAC0010D1244B1B68013B224A1360214B1B685B
:100CBC00002B03D11E4B1B681E4A13604FF47A7035
:100CCC0000F014FC174B1B68012B1AD10E4B14228D
:100CDC001A600E4B1B684FF47A7202FB03F30C4A3A
:100CEC0013600B4B1B68184600F0CCFB4FF47A706A
:100CFC0000F0FCFB05E000BF04E000BF02E000BF19
:100D0C0000E000BF00BF80BD540000206400002044
:100D1C004401002070000020676666665C010020BC
:100D2C00F4000020E4000020680000207400002083
:100D3C006C0000207800002080B500AF894B1B6848
:100D4C00173B032B00F2058101A252F823F000BFE0
:100D5C006D0D0008CD0E0008970D00083B0E000825
:100D6C00804B19221A60804B1B684FF47A7202FB7D
:100D7C0003F37E4A13607D4B1B68184600F09CFB06
:100D8C004FF47A7000F0E6FBEAE000F0F5FE784BE9
:100D9C001B68784A82FB03129210DB17D31A764A2F
:100DAC001360734B1968734B83FB01239A10CB1799
:100DBC00D21A13469B0013445B00CA1A6E4B5A603E
:100DCC006E4B1B68012B18D1694B1B68013B684AA1
:100DDC001360674B1B68002B03D04FF47A7000F044
:100DEC00B9FB634B1B68002B03D15F4B1B68604A3C
:100DFC0013604FF47A7000F0ADFB614B1B68012B54
:100E0C0040F0A980574B1A221A605E4B1B684FF4B6
:100E1C007A7202FB03F3554A5360544B5B681846D5
:100E2C0000F04AFB4FF47A7000F094FB93E000F072
:100E3C00B3FE554B1B684F4A82FB03129210DB1713
:100E4C00D31A4D4A1360504B19684A4B83FB01234C
:100E5C009A10CB17D21A13469B0013445B00CA1A84
:100E6C00454B5A60454B1B68012B10D1464B1B68F8
:100E7C00013B454A1360444B1B68002B03D1414B8B
:100E8C001B68414A13604FF47A7000F063FB3C4BD3
:100E9C001B68012B61D1334B18221A603B4B1B682A
:100EAC004FF47A7202FB03F3304A93602F4B9B682A
:100EBC00184600F001FB4FF47A7000F04BFB4CE04D
:100ECC0000F04AFE324B1B682A4A82FB0312921036
:100EDC00DB17D31A284A13602D4B1968254B83FB5B
:100EEC0001239A10CB17D21A13469B0013445B00B4
:100EFC00CA1A214B5A60214B1B68012B10D1244B71
:100F0C001B68013B224A1360214B1B68002B03D149
:100F1C001E4B1B681E4A13604FF47A7000F01AFBCC
:100F2C00174B1B68012B1AD10E4B19221A600E4B52
:100F3C001B684FF47A7202FB03F30C4A13600B4BE1
:100F4C001B68184600F0B8FA4FF47A7000F002FBF8
:100F5C0005E000BF04E000BF02E000BF00E000BFFE
:100F6C0000BF80BD580000207C00002050010020F4
:100F7C00880000206766666664010020040100207A
:100F8C00EC000020800000208C0000208400002059
:100F9C009000002080B500AF264B1B6803330B2B51
:100FAC003ED801A252F823F02D1000082D10000895
:100FBC002D1000082D1000082D1000082D10000811
:100FCC002D1000082D100008E50F0008EB0F00088D
:100FDC001710000801100008FFF788FD27E0164BDA
:100FEC001B68012B1ED100F0F3FD4FF4FA7000F0DA
:100FFC00FFFA17E0104B1B68012B15D100F00CFE0B
:10100C004FF4FA7000F0F4FA0EE00B4B1B68012B56
:10101C000CD100F0EFFD4FF4FA7000F0E9FA05E0A6
:10102C0000BF04E000BF02E000BF00E000BF00BF53
:10103C0080BD00BF5C0000201C01002080B500AF0B
:10104C003F4B1B680433242B70D801A252F823F0B9
:10105C00391100083911000839110008391100083C
:10106C00391100083911000839110008391100082C
:10107C00391100083911000839110008391100081C
:10108C0039110008F1100008391100083911000855
:10109C0039110008391100083911000839110008FC
:1010AC0039110008391100083911000839110008EC
:1010BC0039110008391100083911000839110008DC
:1010CC0039110008391100083911000839110008CC
:1010DC003911000839110008F71000082311000815
:1010EC000D110008FFF728FE27E0164B1B68012B9B
:1010FC001ED100F0ADFD4FF4FA7000F05FFA17E06E
:10110C00104B1B68012B15D100F0C2FD4FF4FA7087
:10111C0000F054FA0EE00B4B1B68012B0CD100F0C5
:10112C00A7FD4FF4FA7000F049FA05E000BF04E0A7
:10113C0000BF02E000BF00E000BF00BF80BD00BFE9
:10114C00600000201401002080B500AF00F050FEBC
:10115C0000F03AF800F014F900F072F800F0E6F83C
:10116C00174801F091FE0021154801F031FF0A20CB
:10117C0000F0D6F90A2000F007FA4FF4FA7000F0EC
:10118C001DFA4FF4FA7000F033FA4FF4FA7000F0D5
:10119C0063FA0C4B1B68012B05D100F00DFD4FF4CD
:1011AC007A7000F059FAFFF7F3FAFFF7BBF9FFF783
:1011BC0001FAFFF743FFFFF7EDFEFFF7C9FAE8E787
:1011CC006C0100202C01002080B590B000AF07F11D
:1011DC00180328220021184603F068F93B1D002251
:1011EC001A605A609A60DA601A610223BB610123AB
:1011FC00BB621023FB6200237B6307F118031846C4
:10120C0001F0D8F90346002B01D000F035F90F237B
:10121C007B600023BB600023FB6000233B61002349
:10122C007B613B1D0021184601F044FC0346002B5A
:10123C0001D000F021F900BF4037BD4680BD000051
:10124C0080B58EB000AF07F1280300221A605A60F7
:10125C009A60DA6007F1200300221A605A603B1D85
:10126C0000221A605A609A60DA601A615A619A61B7
:10127C002D4B4FF080421A602B4B07225A602A4BA1
:10128C0000229A60284B42F20F72DA60264B002241
:10129C001A61254B00229A61234801F0A5FD0346F3
:1012AC00002B01D000F0E8F84FF48053BB6207F13B
:1012BC00280319461C4802F0EDF80346002B01D018
:1012CC0000F0DAF8184801F02BFE0346002B01D091
:1012DC0000F0D2F800233B6200237B6207F120036D
:1012EC001946114802F058FC0346002B01D000F0BF
:1012FC00C3F860237B600023BB600023FB600023EA
:10130C007B613B1D00221946074802F005F8034695
:10131C00002B01D000F0B0F8034800F01DFB00BF1B
:10132C003837BD4680BD00BF6C01002080B500AFD2
:10133C00114B124A1A60104B4FF4E1325A600E4BAB
:10134C0000229A600C4B0022DA600B4B00221A61CF
:10135C00094B0C225A61084B00229A61064B002261
:10136C00DA61054802F082FC0346002B01D000F044
:10137C0083F800BF80BD00BFB401002000440040D2
:10138C0080B586B000AF07F1080300221A605A60DE
:10139C009A60DA602F4B9B692E4A43F004039361E9
:1013AC002C4B9B6903F004037B607B68294B9B6986
:1013BC00284A43F008039361264B9B6903F008030A
:1013CC003B603B68002242F23C01234801F0C1F82B
:1013DC0000224FF4A061214801F0BBF86023BB60F0
:1013EC000023FB6001233B6107F1080319461B48EE
:1013FC0000F01EFF44F20103BB600023FB600123DD
:10140C003B6107F108031946134800F011FF42F243
:10141C003C03BB600123FB6000233B6102237B6127
:10142C0007F1080319460C4800F002FF4FF4A063C3
:10143C00BB600123FB6000233B6102237B6107F14E
:10144C0008031946054800F0F3FE00BF1837BD46E7
:10145C0080BD00BF00100240000C0140000801409C
:10146C0080B582B000AF786000F02AF9FEF7B0FECC
:10147C0000BF0837BD4680BD80B400AF72B600BF58
:10148C00FEE7000080B483B000AF7860074B1B68A8
:10149C007A6892FBF3F3064A1360064B00221A603B
:1014AC0000BF0C37BD4680BC704700BF94000020C5
:1014BC00E8000020E400002080B483B000AF786026
:1014CC00074B1B687A6892FBF3F3064A1360064BD2
:1014DC0000221A6000BF0C37BD4680BC704700BFAD
:1014EC0094000020F0000020EC00002080B483B0B9
:1014FC0000AF7860074B1B687A6892FBF3F3064ADF
:10150C001360064B00221A6000BF0C37BD4680BC2E
:10151C00704700BF94000020F8000020F400002069
:10152C0080B483B000AF7860074B1B687A6892FB7D
:10153C00F3F3064A1360064B00221A6000BF0C3707
:10154C00BD4680BC704700BF940000200001002005
:10155C00FC00002080B483B000AF7860074B1B68A0
:10156C007A6892FBF3F3064A1360064B00221A606A
:10157C0000BF0C37BD4680BC704700BF94000020F4
:10158C00080100200401002080B483B000AF786013
:10159C00074B1B687A6892FBF3F3064A1360064B01
:1015AC0000221A6000BF0C37BD4680BC704700BFDC
:1015BC0094000020100100200C01002080B483B0A6
:1015CC0000AF7860074B1B687A6892FBF3F3064A0E
:1015DC001360064B00221A6000BF0C37BD4680BC5E
:1015EC00704700BF94000020180100201401002057
:1015FC0080B483B000AF7860074B1B687A6892FBAD
:10160C00F3F3064A1360064B00221A6000BF0C3736
:10161C00BD4680BC704700BF940000202001002014
:10162C001C01002080B483B000AF7860074B1B68AE
:10163C007A6892FBF3F3064A1360064B00221A6099
:10164C0000BF0C37BD4680BC704700BF9400002023
:10165C00280100202401002080B483B000AF786002
:10166C00074B1B687A6892FBF3F3064A1360064B30
:10167C0000221A6000BF0C37BD4680BC704700BF0B
:10168C0094000020300100202C01002080B483B095
:10169C0000AF7860074B1B687A6892FBF3F3064A3D
:1016AC001360064B00221A6000BF0C37BD4680BC8D
:1016BC00704700BF94000020400100203C01002036
:1016CC0080B400AF614B1B68002B04DD5F4B1B68C3
:1016DC00013B5E4A13605D4B1B68002B02D15C4BD7
:1016EC0001221A605B4B1B68002B04DD594B1B68F5
:1016FC00013B584A1360574B1B68002B02D1564BC9
:10170C0001221A60554B1B68002B04DD534B1B68E0
:10171C00013B524A1360514B1B68002B02D1504BBA
:10172C0001221A604F4B1B68002B04DD4D4B1B68CC
:10173C00013B4C4A13604B4B1B68002B02D14A4BAC
:10174C0001221A60494B1B68002B04DD474B1B68B8
:10175C00013B464A1360454B1B68002B02D1444B9E
:10176C0001221A60434B1B68002B04DD414B1B68A4
:10177C00013B404A13603F4B1B68002B02D13E4B90
:10178C0001221A603D4B1B68002B04DD3B4B1B6890
:10179C00013B3A4A1360394B1B68002B02D1384B82
:1017AC0001221A60374B1B68002B04DD354B1B687C
:1017BC00013B344A1360334B1B68002B02D1324B74
:1017CC0001221A60314B1B68002B04DD2F4B1B6868
:1017DC00013B2E4A13602D4B1B68002B02D12C4B66
:1017EC0001221A602B4B1B68002B04DD294B1B6854
:1017FC00013B284A1360274B1B68002B02D1264B58
:10180C0001221A60254B1B68002B04DD234B1B683F
:10181C00013B224A1360214B1B68002B02D1204B49
:10182C0001221A601F4B1B68002B04DD1D4B1B682B
:10183C00013B1C4A13601B4B1B68002B02D11A4B3B
:10184C0001221A6000BFBD4680BC7047E800002032
:10185C00E4000020F0000020EC000020F800002044
:10186C00F400002000010020FC00002008010020F2
:10187C0004010020100100200C01002018010020A0
:10188C0014010020200100201C0100202801002050
:10189C0024010020300100202C0100203801002000
:1018AC0034010020400100203C01002080B485B0B0
:1018BC0000AF154B9B69144A43F001039361124B23
:1018CC009B6903F00103BB60BB680F4BDB690E4ADD
:1018DC0043F08053D3610C4BDB6903F080537B6086
:1018EC007B680A4B5B68FB60FB6823F0E063FB6082
:1018FC00FB6843F08063FB60044AFB68536000BFE5
:10190C001437BD4680BC70470010024000000140F7
:10191C0080B584B000AF78607B681B68B3F1804FF2
:10192C0013D10C4BDB690B4A43F00103D361094B18
:10193C00DB6903F00103FB60FB68002200211C2023
:10194C0000F08FFB1C2000F0A8FB00BF1037BD4639
:10195C0080BD00BF0010024080B588B000AF786039
:10196C0007F1100300221A605A609A60DA607B68F3
:10197C001B68B3F1804F17D10D4B9B690C4A43F098
:10198C00040393610A4B9B6903F00403FB60FB683F
:10199C0001233B6102237B610223FB6107F11003EE
:1019AC001946044800F044FC00BF2037BD4680BDFA
:1019BC00001002400008014080B588B000AF78608C
:1019CC0007F1100300221A605A609A60DA607B6893
:1019DC001B681F4A934237D11E4BDB691D4A43F4E7
:1019EC000033D3611B4BDB6903F40033FB60FB68F2
:1019FC00184B9B69174A43F004039361154B9B6981
:101A0C0003F00403BB60BB6804233B6102237B61CE
:101A1C000323FB6107F1100319460F4800F008FC83
:101A2C0008233B6100237B610023BB6107F110039A
:101A3C001946094800F0FCFB00220021262000F08A
:101A4C0010FB262000F029FB00BF2037BD4680BDCF
:101A5C0000440040001002400008014080B400AF78
:101A6C00FEE780B400AFFEE780B400AFFEE780B4C1
:101A7C0000AFFEE780B400AFFEE780B400AF00BF5C
:101A8C00BD4680BC704780B400AF00BFBD4680BC73
:101A9C00704780B400AF00BFBD4680BC704780B5B6
:101AAC0000AF00F0EBF900BF80BD000080B500AFC7
:101ABC00024801F029FB00BF80BD00BF6C01002073
:101ACC0080B500AF024802F01FF900BF80BD00BF17
:101ADC00B401002080B400AF00BFBD4680BC70478D
:101AEC0080B500AF01224FF48061054800F031FD54
:101AFC0000220821034800F02CFD00BF80BD00BF70
:101B0C0000080140000C014080B500AF00224FF4EA
:101B1C008061054800F01DFD01220821034800F0FA
:101B2C0018FD00BF80BD00BF00080140000C014043
:101B3C0080B500AF01224FF48061054800F009FD2B
:101B4C0001220821034800F004FD00BF80BD00BF46
:101B5C0000080140000C014080B500AF012220219B
:101B6C00044800F0F6FC00221021024800F0F1FCC1
:101B7C0000BF80BD000C014080B500AF00222021C9
:101B8C00044800F0E6FC01221021024800F0E1FCC0
:101B9C0000BF80BD000C014080B500AF01222021A8
:101BAC00044800F0D6FC01221021024800F0D1FCC0
:101BBC0000BF80BD000C014080B500AF4FF4005158
:101BCC00024800F0DEFC00BF80BD00BF000C0140ED
:101BDC0080B500AF4FF48061044800F0D2FC0022C5
:101BEC000821034800F0B5FC00BF80BD000801408F
:101BFC00000C014080B500AF0821054800F0C1FC85
:101C0C0000224FF48061034800F0A3FC00BF80BDAC
:101C1C00000C01400008014080B500AF08210A48C3
:101C2C0000F080FC03461A464FF48061074800F030
:101C3C0090FC4FF48061054800F0A3FC0821024899
:101C4C0000F09FFC00BF80BD000C0140000801406B
:101C5C0080B500AF2021054800F093FC0022102134
:101C6C00024800F076FC00BF80BD00BF000C0140B4
:101C7C0080B500AF1021054800F083FC0022202124
:101C8C00024800F066FC00BF80BD00BF000C0140A4
:101C9C0080B500AF1021094800F044FC03461A46F9
:101CAC002021064800F055FC2021044800F069FC76
:101CBC001021024800F065FC00BF80BD000C014003
:101CCC0080B400AF0D4B1B680D4A13600D4B1B68A5
:101CDC000D4A13600D4B1B680D4A13600D4B1B68AE
:101CEC000D4A13600D4B1B680D4A13600D4B1B689E
:101CFC000D4A136000BFBD4680BC704764000020D5
:101D0C007000002068000020740000206C0000208F
:101D1C007800002084000020900000207C0000202F
:101D2C0088000020800000208C00002080B500AFCF
:101D3C0000220421054800F00CFC00224FF48071B5
:101D4C00034800F006FC00BF80BD00BF000C014042
:101D5C000008014080B500AF01220421054800F0C5
:101D6C00F8FB00224FF48071034800F0F2FB00BF37
:101D7C0080BD00BF000C01400008014080B500AFE1
:101D8C0000220421054800F0E4FB01224FF480718D
:101D9C00034800F0DEFB00BF80BD00BF000C01401B
:101DAC00000801400C480D490D4A002302E0D458AC
:101DBC00C4500433C4188C42F9D30A4A0A4C002389
:101DCC0001E013600432A242FBD3FFF783FE02F062
:101DDC0049FBFFF7B9F9704700000020A400002070
:101DEC0010450008A4000020FC010020FEE70000C4
:101DFC0080B500AF084B1B68074A43F01003136013
:101E0C00032000F023F90F2000F008F8FFF74EFD37
:101E1C000023184680BD00BF0020024080B582B070
:101E2C0000AF7860124B1A68124B1B7819464FF4AE
:101E3C007A73B3FBF1F3B2FBF3F3184600F03BF902
:101E4C000346002B01D001230EE07B680F2B0AD830
:101E5C00002279684FF0FF3000F003F9064A7B68E6
:101E6C001360002300E0012318460837BD4680BDEF
:101E7C0098000020A00000209C00002080B400AF3F
:101E8C00054B1B781A46054B1B681344034A136019
:101E9C0000BFBD4680BC7047A0000020F8010020A8
:101EAC0080B400AF024B1B681846BD4680BC70471F
:101EBC00F801002080B485B000AF78607B6803F037
:101ECC000703FB600C4BDB68BB60BA684FF6FF0383
:101EDC001340BB60FB681A02BB68134343F0BF633B
:101EEC0043F40033BB60044ABB68D36000BF1437B3
:101EFC00BD4680BC704700BF00ED00E080B400AF71
:101F0C00044BDB681B0A03F007031846BD4680BC74
:101F1C00704700BF00ED00E080B483B000AF034613
:101F2C00FB7197F90730002B0BDBFB7903F01F02D9
:101F3C00064997F907305B09012000FA02F241F8D3
:101F4C00232000BF0C37BD4680BC704700E100E089
:101F5C0080B483B000AF03463960FB7197F907304A
:101F6C00002B0ADB3B68DAB20C4997F907301201F7
:101F7C00D2B20B4483F800230AE03B68DAB208497A
:101F8C00FB7903F00F03043B1201D2B20B441A7617
:101F9C0000BF0C37BD4680BC704700BF00E100E0BD
:101FAC0000ED00E080B489B000AFF860B9607A60F1
:101FBC00FB6803F00703FB61FB69C3F10703042B08
:101FCC0028BF0423BB61FB690433062B02D9FB69D0
:101FDC00033B00E000237B614FF0FF32BB6902FA48
:101FEC0003F3DA43BB681A407B699A404FF0FF3128
:101FFC007B6901FA03F3D9437B680B401343184602
:10200C002437BD4680BC704780B582B000AF786085
:10201C007B68013BB3F1807F01D301230FE00A4AB7
:10202C007B68013B53600F214FF0FF30FFF790FFAF
:10203C00054B00229A60044B07221A6000231846B5
:10204C000837BD4680BD00BF10E000E080B582B00F
:10205C0000AF78607868FFF72DFF00BF0837BD46EA
:10206C0080BD80B586B000AF0346B9607A60FB7363
:10207C0000237B61FFF742FF78617A68B968786961
:10208C00FFF790FF024697F90F3011461846FFF7FD
:10209C005FFF00BF1837BD4680BD80B582B000AF72
:1020AC000346FB7197F907301846FFF735FF00BF61
:1020BC000837BD4680BD80B582B000AF78607868C7
:1020CC00FFF7A2FF034618460837BD4680BD80B413
:1020DC0085B000AF78600023FB737B6893F82130E8
:1020EC00022B08D07B6804229A637B68002283F859
:1020FC002020012320E07B681B681A687B681B6822
:10210C0022F00E021A607B681B681A687B681B68D9
:10211C0022F001021A607B681A6C7B68DB6B012170
:10212C0001FA02F25A607B68012283F821207B6855
:10213C00002283F82020FB7B18461437BD4680BC58
:10214C007047000080B584B000AF78600023FB734B
:10215C007B6893F82130022B05D07B6804229A63AC
:10216C000123FB7351E07B681B681A687B681B6852
:10217C0022F00E021A607B681B681A687B681B6869
:10218C0022F001021A607B681B68224A934229D014
:10219C007B681B68204A934222D07B681B681F4ACD
:1021AC0093421AD07B681B681D4A934212D07B68FD
:1021BC001B681C4A93420AD07B681B681A4A9342DC
:1021CC0002D14FF480130EE04FF080730BE04FF40C
:1021DC00803308E04FF4805305E04FF4807302E045
:1021EC00102300E00123114A53607B68012283F81D
:1021FC0021207B68002283F820207B685B6B002BFE
:10220C0003D07B685B6B78689847FB7B184610376C
:10221C00BD4680BD080002401C0002403000024058
:10222C0044000240580002406C0002400000024092
:10223C0080B48BB000AF7860396000237B620023E0
:10224C003B6248E101227B6A02FA03F3FB613B68C3
:10225C001B68FA691340BB61BA69FB699A4240F08A
:10226C0037813B685B68A34A93425ED0A14A934294
:10227C0075D8A14A934258D09F4A93426FD89F4A2F
:10228C00934252D09D4A934269D89D4A93424CD076
:10229C009B4A934263D89B4A934246D0994A9342B5
:1022AC005DD8122B2AD8122B59D801A252F823F040
:1022BC003723000811230008232300086523000896
:1022CC006B2300086B2300086B2300086B230008AA
:1022DC006B2300086B2300086B2300086B2300089A
:1022EC006B2300086B2300086B2300086B2300088A
:1022FC006B230008192300082D230008824A9342FF
:10230C0013D02CE03B68DB683B6229E03B68DB6860
:10231C0004333B6224E03B68DB6808333B621FE01C
:10232C003B68DB680C333B621AE03B689B68002B14
:10233C0002D104233B6213E03B689B68012B05D15F
:10234C0008233B627B68FA691A6109E008233B6247
:10235C007B68FA695A6103E000233B6200E000BF2E
:10236C00BB69FF2B01D87B6801E07B6804337B6180
:10237C00BB69FF2B02D87B6A9B0002E07B6A083B9F
:10238C009B003B617B691A680F213B6901FA03F3DF
:10239C00DB431A40396A3B6901FA03F31A437B6940
:1023AC001A603B685B6803F08053002B00F0908050
:1023BC00564B9B69554A43F001039361534B9B6900
:1023CC0003F00103BB60BB68514A7B6A9B08023374
:1023DC0052F82330FB607B6A03F003039B000F224F
:1023EC0002FA03F3DB43FA681340FB607B68494A4B
:1023FC0093420DD07B68484A934207D07B68474A8A
:10240C00934201D1022304E0032302E0012300E004
:10241C0000237A6A02F0030292009340FA68134395
:10242C00FB603B497B6A9B080233FA6841F8232026
:10243C003B685B6803F48033002B06D0384B1A687A
:10244C003749BB6913430B6006E0354B1A68BB690F
:10245C00DB43334913400B603B685B6803F4003388
:10246C00002B06D02E4B5A682D49BB6913434B6089
:10247C0006E02B4B5A68BB69DB43294913404B6080
:10248C003B685B6803F48013002B06D0244B9A68DE
:10249C002349BB6913438B6006E0214B9A68BB69E7
:1024AC00DB431F4913408B603B685B6803F40013EC
:1024BC00002B06D01A4BDA681949BB691343CB6061
:1024CC0006E0174BDA68BB69DB4315491340CB6058
:1024DC007B6A01337B623B681A687B6A22FA03F3DE
:1024EC00002B7FF4AFAE00BF00BF2C37BD4680BCC5
:1024FC00704700BF000032100000311000002210A5
:10250C0000002110000012100000111000100240F9
:10251C000000014000080140000C01400010014087
:10252C000004014080B485B000AF78600B467B801E
:10253C007B689A687B881340002B02D00123FB73C5
:10254C0001E00023FB73FB7B18461437BD4680BCAF
:10255C00704780B483B000AF78600B467B80134625
:10256C007B707B78002B03D07A887B681A6103E040
:10257C007B881A047B681A6100BF0C37BD4680BC8F
:10258C00704780B485B000AF78600B467B807B6869
:10259C00DB68FB607A88FB6813401A04FB68D9433C
:1025AC007B880B401A437B681A6100BF1437BD4609
:1025BC0080BC704780B586B000AF78607B68002B1C
:1025CC0001D101236CE27B681B6803F00103002B33
:1025DC0000F08780924B5B6803F00C03042B0CD04B
:1025EC008F4B5B6803F00C03082B12D18C4B5B6890
:1025FC0003F48033B3F5803F0BD1894B1B6803F494
:10260C000033002B6CD07B685B68002B68D10123F6
:10261C0046E27B685B68B3F5803F06D1804B1B6854
:10262C007F4A43F4803313602EE07B685B68002B99
:10263C000CD17B4B1B687A4A23F480331360784BA4
:10264C001B68774A23F4802313601DE07B685B686A
:10265C00B3F5A02F0CD1724B1B68714A43F4802345
:10266C0013606F4B1B686E4A43F4803313600BE0AE
:10267C006B4B1B686A4A23F480331360684B1B68EE
:10268C00674A23F4802313607B685B68002B13D0AC
:10269C00FFF706FC386108E0FFF702FC02463B69D5
:1026AC00D31A642B01D90323FAE15D4B1B6803F4A5
:1026BC000033002BF0D014E0FFF7F2FB386108E098
:1026CC00FFF7EEFB02463B69D31A642B01D90323B7
:1026DC00E6E1534B1B6803F40033002BF0D100E010
:1026EC0000BF7B681B6803F00203002B63D04C4BCC
:1026FC005B6803F00C03002B0BD0494B5B6803F0B9
:10270C000C03082B1CD1464B5B6803F48033002B65
:10271C0016D1434B1B6803F00203002B05D07B68DA
:10272C001B69012B01D00123BAE13D4B1B6823F03F
:10273C00F8027B685B69DB00394913430B603AE0B4
:10274C007B681B69002B20D0364B01221A60FFF7E7
:10275C00A7FB386108E0FFF7A3FB02463B69D31ADD
:10276C00022B01D903239BE12D4B1B6803F00203C1
:10277C00002BF0D02A4B1B6823F0F8027B685B69B6
:10278C00DB00274913430B6015E0264B00221A602F
:10279C00FFF786FB386108E0FFF782FB02463B69D6
:1027AC00D31A022B01D903237AE11D4B1B6803F0CA
:1027BC000203002BF0D17B681B6803F00803002B8D
:1027CC003AD07B689B69002B19D0174B01221A60F9
:1027DC00FFF766FB386108E0FFF762FB02463B69D6
:1027EC00D31A022B01D903235AE10D4B5B6A03F078
:1027FC000203002BF0D0012000F0D8FA1CE00A4BA9
:10280C0000221A60FFF74CFB38610FE0FFF748FB22
:10281C0002463B69D31A022B08D9032340E100BFBF
:10282C000010024000004242800442429E4B5B6A10
:10283C0003F00203002BE9D17B681B6803F004034F
:10284C00002B00F0A6800023FB75974BDB6903F08F
:10285C008053002B0DD1944BDB69934A43F080538A
:10286C00D361914BDB6903F08053BB60BB680123E0
:10287C00FB758E4B1B6803F48073002B18D18B4BAC
:10288C001B688A4A43F480731360FFF709FB3861B5
:10289C0008E0FFF705FB02463B69D31A642B01D90C
:1028AC000323FDE0814B1B6803F48073002BF0D0F5
:1028BC007B68DB68012B06D17B4B1B6A7A4A43F0A1
:1028CC00010313622DE07B68DB68002B0CD1764B87
:1028DC001B6A754A23F001031362734B1B6A724A1D
:1028EC0023F0040313621CE07B68DB68052B0CD11E
:1028FC006D4B1B6A6C4A43F0040313626A4B1B6AF0
:10290C00694A43F0010313620BE0674B1B6A664A8A
:10291C0023F001031362644B1B6A634A23F0040324
:10292C0013627B68DB68002B15D0FFF7B9FA3861AE
:10293C000AE0FFF7B5FA02463B69D31A41F2883236
:10294C00934201D90323ABE0574B1B6A03F00203FC
:10295C00002BEED014E0FFF7A3FA38610AE0FFF782
:10296C009FFA02463B69D31A41F28832934201D94D
:10297C00032395E04C4B1B6A03F00203002BEED1B2
:10298C00FB7D012B05D1484BDB69474A23F0805373
:10299C00D3617B68DB69002B00F08180424B5B6864
:1029AC0003F00C03082B61D07B68DB69022B46D14A
:1029BC003F4B00221A60FFF773FA386108E0FFF70B
:1029CC006FFA02463B69D31A022B01D9032367E045
:1029DC00354B1B6803F00073002BF0D17B681B6A2E
:1029EC00B3F5803F08D1304B5B6823F400327B6831
:1029FC009B682D4913434B602B4B5B6823F474127B
:102A0C007B68196A7B685B6A0B43274913434B60ED
:102A1C00274B01221A60FFF743FA386108E0FFF7F1
:102A2C003FFA02463B69D31A022B01D9032337E044
:102A3C001D4B1B6803F00073002BF0D02FE01C4BD8
:102A4C0000221A60FFF72CFA386108E0FFF728FA29
:102A5C0002463B69D31A022B01D9032320E0124B07
:102A6C001B6803F00073002BF0D118E07B68DB6966
:102A7C00012B01D1012313E00B4B5B68FB60FB685E
:102A8C0003F480327B681B6A9A4206D1FB6803F41C
:102A9C0070127B685B6A9A4201D0012300E000232C
:102AAC0018461837BD4680BD00100240007000402B
:102ABC006000424280B584B000AF786039607B68BA
:102ACC00002B01D10123D0E06A4B1B6803F00703F4
:102ADC003A689A4210D9674B1B6823F00702654984
:102AEC003B6813430B60634B1B6803F007033A68A6
:102AFC009A4201D00123B8E07B681B6803F0020303
:102B0C00002B20D07B681B6803F00403002B05D03E
:102B1C00594B5B68584A43F4E06353607B681B680D
:102B2C0003F00803002B05D0534B5B68524A43F467
:102B3C0060535360504B5B6823F0F0027B689B68DA
:102B4C004D4913434B607B681B6803F00103002B5A
:102B5C0040D07B685B68012B07D1474B1B6803F4A3
:102B6C000033002B15D101237FE07B685B68022BBF
:102B7C0007D1414B1B6803F00073002B09D10123D3
:102B8C0073E03D4B1B6803F00203002B01D10123C2
:102B9C006BE0394B5B6823F003027B685B6836495A
:102BAC0013434B60FFF77CF9F8600AE0FFF778F904
:102BBC000246FB68D31A41F28832934201D90323AF
:102BCC0053E02D4B5B6803F00C027B685B689B0049
:102BDC009A42EBD1274B1B6803F007033A689A42E1
:102BEC0010D2244B1B6823F0070222493B68134385
:102BFC000B60204B1B6803F007033A689A4201D024
:102C0C00012332E07B681B6803F00403002B08D01F
:102C1C00194B5B6823F4E0627B68DB68164913434D
:102C2C004B607B681B6803F00803002B09D0124B28
:102C3C005B6823F460527B681B69DB000E4913430D
:102C4C004B6000F021F802460B4B5B681B0903F04C
:102C5C000F030A49CB5C22FA03F3094A1360094BB0
:102C6C001B681846FFF7DAF8002318461037BD46E4
:102C7C0080BD00BF0020024000100240F04400085C
:102C8C00980000209C00002090B48AB000AF2A4B22
:102C9C003C1D0FCB84E80F0040F201233B80002346
:102CAC00FB610023BB6100237B6200237B6100235B
:102CBC003B62224B5B68FB61FB6903F00C03042B4A
:102CCC0002D0082B03D02DE01D4B3B622DE0FB699D
:102CDC009B0C03F00F0307F12802134413F8243C58
:102CEC007B61FB6903F48033002B13D0134B5B68BF
:102CFC005B0C03F0010307F12802134413F8283C82
:102D0C00BB617B690E4A02FB03F2BB69B2FBF3F3B6
:102D1C007B6204E07B690B4A02FB03F37B627B6AF8
:102D2C003B6202E0064B3B6200BF3B6A1846283709
:102D3C00BD4690BC704700BFE04400080010024044
:102D4C0000127A0000093D0080B400AF024B1B68F2
:102D5C001846BD4680BC70479800002080B500AF77
:102D6C00FFF7F2FF0246054B5B681B0A03F00703F3
:102D7C000349CB5C22FA03F3184680BD00100240D5
:102D8C000045000880B500AFFFF7DEFF0246054B9B
:102D9C005B68DB0A03F007030349CB5C22FA03F3FD
:102DAC00184680BD001002400045000880B485B074
:102DBC0000AF78600A4B1B680A4AA2FB03235B0A2C
:102DCC007A6802FB03F3FB6000BFFB685A1EFA60D3
:102DDC00002BF9D100BF00BF1437BD4680BC704733
:102DEC0098000020D34D621080B582B000AF78609F
:102DFC007B68002B01D1012341E07B6893F83D30C7
:102E0C00DBB2002B06D17B68002283F83C2078686B
:102E1C00FEF77EFD7B68022283F83D207B681A68F2
:102E2C007B6804331946104600F01CFC7B680122B9
:102E3C0083F846207B68012283F83E207B680122C0
:102E4C0083F83F207B68012283F840207B680122B5
:102E5C0083F841207B68012283F842207B680122A1
:102E6C0083F843207B68012283F844207B6801228D
:102E7C0083F845207B68012283F83D200023184607
:102E8C000837BD4680BD000080B485B000AF7860C7
:102E9C007B6893F83D30DBB2012B01D0012335E088
:102EAC007B68022283F83D207B681B68DA687B68AC
:102EBC001B6842F00102DA607B681B68164A934279
:102ECC0009D07B681B68B3F1804F04D07B681B680A
:102EDC00124A934211D17B681B689B6803F007036D
:102EEC00FB60FB68062B10D07B681B681A687B683C
:102EFC001B6842F001021A6007E07B681B681A68C5
:102F0C007B681B6842F001021A60002318461437D4
:102F1C00BD4680BC704700BF002C0140000400403F
:102F2C0080B582B000AF78607B68002B01D10123A3
:102F3C0041E07B6893F83D30DBB2002B06D17B6817
:102F4C00002283F83C20786800F039F87B68022274
:102F5C0083F83D207B681A687B6804331946104659
:102F6C0000F080FB7B68012283F846207B680122FD
:102F7C0083F83E207B68012283F83F207B68012286
:102F8C0083F840207B68012283F841207B68012272
:102F9C0083F842207B68012283F843207B6801225E
:102FAC0083F844207B68012283F845207B6801224A
:102FBC0083F83D20002318460837BD4680BD80B4F9
:102FCC0083B000AF786000BF0C37BD4680BC704743
:102FDC0080B584B000AF786039603B68002B09D1B4
:102FEC007B6893F83E30DBB2012B14BF0123002326
:102FFC00DBB222E03B68042B09D17B6893F83F30AD
:10300C00DBB2012B14BF01230023DBB215E03B68BC
:10301C00082B09D17B6893F84030DBB2012B14BF2D
:10302C0001230023DBB208E07B6893F84130DBB26C
:10303C00012B14BF01230023DBB2002B01D0012391
:10304C0059E03B68002B04D17B68022283F83E20B8
:10305C0013E03B68042B04D17B68022283F83F20E9
:10306C000BE03B68082B04D17B68022283F84020DC
:10307C0003E07B68022283F841207B681B680122F5
:10308C003968184600F064FD7B681B681C4A934243
:10309C0007D17B681B685A6C7B681B6842F4004242
:1030AC005A647B681B68164A934209D07B681B687C
:1030BC00B3F1804F04D07B681B68124A934211D144
:1030CC007B681B689B6803F00703FB60FB68062B9F
:1030DC0010D07B681B681A687B681B6842F0010281
:1030EC001A6007E07B681B681A687B681B6842F0F3
:1030FC0001021A60002318461037BD4680BD00BF80
:10310C00002C01400004004080B582B000AF786014
:10311C007B681B681B6903F00203022B22D17B68BE
:10312C001B68DB6803F00203022B1BD17B681B6856
:10313C006FF002021A617B6801221A777B681B68A8
:10314C009B6903F00303002B03D0786800F06FFA3F
:10315C0005E0786800F062FA786800F071FA7B6834
:10316C0000221A777B681B681B6903F00403042B8D
:10317C0022D17B681B68DB6803F00403042B1BD192
:10318C007B681B686FF004021A617B6802221A7755
:10319C007B681B689B6903F44073002B03D0786831
:1031AC0000F045FA05E0786800F038FA786800F02D
:1031BC0047FA7B6800221A777B681B681B6903F04F
:1031CC000803082B22D17B681B68DB6803F008031B
:1031DC00082B1BD17B681B686FF008021A617B6897
:1031EC0004221A777B681B68DB6903F00303002B4E
:1031FC0003D0786800F01BFA05E0786800F00EFA4E
:10320C00786800F01DFA7B6800221A777B681B68CF
:10321C001B6903F01003102B22D17B681B68DB6841
:10322C0003F01003102B1BD17B681B686FF010028E
:10323C001A617B6808221A777B681B68DB6903F4C8
:10324C004073002B03D0786800F0F1F905E0786842
:10325C0000F0E4F9786800F0F3F97B6800221A7743
:10326C007B681B681B6903F00103012B0ED17B6883
:10327C001B68DB6803F00103012B07D17B681B681B
:10328C006FF001021A617868FEF7EAF87B681B6838
:10329C001B6903F08003802B0ED17B681B68DB68F5
:1032AC0003F08003802B07D17B681B686FF08002D2
:1032BC001A61786800F0D1FC7B681B681B6903F00D
:1032CC004003402B0ED17B681B68DB6803F0400386
:1032DC00402B07D17B681B686FF040021A6178683D
:1032EC0000F0B7F97B681B681B6903F02003202BE7
:1032FC000ED17B681B68DB6803F02003202B07D101
:10330C007B681B686FF020021A61786800F09CFCE7
:10331C0000BF0837BD4680BD80B584B000AFF860F3
:10332C00B9607A60FB6893F83C30012B01D1022321
:10333C00ACE0FB68012283F83C207B680C2B00F28C
:10334C009F8001A252F823F0893300088D340008C5
:10335C008D3400088D340008C93300088D34000802
:10336C008D3400088D3400080B3400088D340008AF
:10337C008D3400088D3400084B340008FB681B6842
:10338C00B968184600F0C6F9FB681B689A69FB68B7
:10339C001B6842F008029A61FB681B689A69FB681B
:1033AC001B6822F004029A61FB681B689969BB6870
:1033BC001A69FB681B680A439A6162E0FB681B6828
:1033CC00B968184600F00CFAFB681B689A69FB6830
:1033DC001B6842F400629A61FB681B689A69FB687F
:1033EC001B6822F480629A61FB681B689969BB6850
:1033FC001B691A02FB681B680A439A6141E0FB686F
:10340C001B68B968184600F055FAFB681B68DA6946
:10341C00FB681B6842F00802DA61FB681B68DA691A
:10342C00FB681B6822F00402DA61FB681B68D9692F
:10343C00BB681A69FB681B680A43DA6121E0FB6808
:10344C001B68B968184600F09FFAFB681B68DA69BC
:10345C00FB681B6842F40062DA61FB681B68DA697E
:10346C00FB681B6822F48062DA61FB681B68D9690F
:10347C00BB681B691A02FB681B680A43DA6100E02F
:10348C0000BFFB68002283F83C200023184610374D
:10349C00BD4680BD80B584B000AF786039607B6874
:1034AC0093F83C30012B01D10223B3E07B6801225D
:1034BC0083F83C207B68022283F83D207B681B68E4
:1034CC009B68FB60FB6823F07703FB60FB6823F4CD
:1034DC007F43FB607B681B68FA689A603B681B68DB
:1034EC00B3F5005F3ED0B3F5005F00F28780B3F513
:1034FC00805F00F08580B3F5805F7FD8702B1AD089
:10350C00702B7BD8602B50D0602B77D8502B3CD0B5
:10351C00502B73D8402B58D0402B6FD8302B64D005
:10352C00302B6BD8202B60D0202B67D8002B5CD095
:10353C00102B5AD062E07B6818683B6899683B682E
:10354C005A683B68DB6800F0E4FA7B681B689B6890
:10355C00FB60FB6843F07703FB607B681B68FA68D1
:10356C009A604EE07B6818683B6899683B685A68BB
:10357C003B68DB6800F0CDFA7B681B689A687B6857
:10358C001B6842F480429A603BE07B6818683B6899
:10359C0059683B68DB681A4600F044FA7B681B6884
:1035AC005021184600F09BFA2BE07B6818683B68AA
:1035BC0059683B68DB681A4600F062FA7B681B6846
:1035CC006021184600F08BFA1BE07B6818683B689A
:1035DC0059683B68DB681A4600F024FA7B681B6864
:1035EC004021184600F07BFA0BE07B681A683B68B8
:1035FC001B681946104600F072FA02E000BF00E0AA
:10360C0000BF7B68012283F83D207B68002283F891
:10361C003C20002318461037BD4680BD80B483B0D3
:10362C0000AF786000BF0C37BD4680BC704780B4DB
:10363C0083B000AF786000BF0C37BD4680BC7047CC
:10364C0080B483B000AF786000BF0C37BD4680BC3F
:10365C00704780B483B000AF786000BF0C37BD46B4
:10366C0080BC704780B485B000AF786039607B68EF
:10367C001B68FB607B68254A934207D07B68B3F1DB
:10368C00804F03D07B68224A934208D1FB6823F019
:10369C007003FB603B685B68FA681343FB607B68F4
:1036AC001A4A934207D07B68B3F1804F03D07B68F2
:1036BC00174A934208D1FB6823F44073FB603B68C4
:1036CC00DB68FA681343FB60FB6823F080023B68FD
:1036DC005B691343FB607B68FA681A603B689A6805
:1036EC007B68DA623B681A687B689A627B68074A77
:1036FC00934203D13B681A697B681A637B68012289
:10370C005A6100BF1437BD4680BC7047002C014085
:10371C000004004080B487B000AF786039607B68EB
:10372C001B6A23F001027B681A627B681B6A7B614F
:10373C007B685B683B617B689B69FB60FB6823F083
:10374C007003FB60FB6823F00303FB603B681B68A2
:10375C00FA681343FB607B6923F002037B613B68CF
:10376C009B687A6913437B617B681C4A93420CD13A
:10377C007B6923F008037B613B68DB687A69134340
:10378C007B617B6923F004037B617B68134A934262
:10379C0011D13B6923F480733B613B6923F40073C3
:1037AC003B613B685B693A6913433B613B689B69CE
:1037BC003A6913433B617B683A695A607B68FA68E3
:1037CC009A613B685A687B685A637B687A691A62AB
:1037DC0000BF1C37BD4680BC704700BF002C0140A9
:1037EC0080B487B000AF786039607B681B6A23F0C7
:1037FC0010027B681A627B681B6A7B617B685B6862
:10380C003B617B689B69FB60FB6823F4E043FB60D6
:10381C00FB6823F44073FB603B681B681B02FA686F
:10382C001343FB607B6923F020037B613B689B683F
:10383C001B017A6913437B617B681D4A93420DD14E
:10384C007B6923F080037B613B68DB681B017A6931
:10385C0013437B617B6923F040037B617B68144AD3
:10386C00934213D13B6923F480633B613B6923F49E
:10387C0000633B613B685B699B003A6913433B61A6
:10388C003B689B699B003A6913433B617B683A69CF
:10389C005A607B68FA689A613B685A687B689A63DD
:1038AC007B687A691A6200BF1C37BD4680BC7047C2
:1038BC00002C014080B487B000AF786039607B6821
:1038CC001B6A23F480727B681A627B681B6A7B61BB
:1038DC007B685B683B617B68DB69FB60FB6823F0A2
:1038EC007003FB60FB6823F00303FB603B681B6801
:1038FC00FA681343FB607B6923F400737B613B68BC
:10390C009B681B027A6913437B617B681D4A934257
:10391C000DD17B6923F400637B613B68DB681B0280
:10392C007A6913437B617B6923F480637B617B68D9
:10393C00144A934213D13B6923F480533B613B6996
:10394C0023F400533B613B685B691B013A691343E9
:10395C003B613B689B691B013A6913433B617B6884
:10396C003A695A607B68FA68DA613B685A687B6826
:10397C00DA637B687A691A6200BF1C37BD4680BC6B
:10398C00704700BF002C014080B487B000AF786056
:10399C0039607B681B6A23F480527B681A627B68EF
:1039AC001B6A3B617B685B687B617B68DB69FB60E6
:1039BC00FB6823F4E043FB60FB6823F44073FB607B
:1039CC003B681B681B02FA681343FB603B6923F4DA
:1039DC0000533B613B689B681B033A6913433B6193
:1039EC007B680F4A934209D17B6923F480437B6146
:1039FC003B685B699B017A6913437B617B687A69DD
:103A0C005A607B68FA68DA613B685A687B681A64AA
:103A1C007B683A691A6200BF1C37BD4680BC704790
:103A2C00002C014080B487B000AFF860B9607A60B8
:103A3C00FB681B6A7B61FB681B6A23F00102FB6855
:103A4C001A62FB689B693B613B6923F0F0033B61A5
:103A5C007B681B013A6913433B617B6923F00A03C2
:103A6C007B617A69BB6813437B61FB683A699A6135
:103A7C00FB687A691A6200BF1C37BD4680BC704770
:103A8C0080B487B000AFF860B9607A60FB681B6ADD
:103A9C0023F01002FB681A62FB689B697B61FB6870
:103AAC001B6A3B617B6923F470437B617B681B035E
:103ABC007A6913437B613B6923F0A0033B61BB68CC
:103ACC001B013A6913433B61FB687A699A61FB6895
:103ADC003A691A6200BF1C37BD4680BC704780B47F
:103AEC0085B000AF786039607B689B68FB60FB68D1
:103AFC0023F07003FB603A68FB68134343F0070341
:103B0C00FB607B68FA689A6000BF1437BD4680BCC6
:103B1C00704780B487B000AFF860B9607A603B60E2
:103B2C00FB689B687B617B6923F47F437B613B680B
:103B3C001A027B681A43BB6813437A6913437B618F
:103B4C00FB687A699A6000BF1C37BD4680BC704721
:103B5C0080B487B000AFF860B9607A60BB6803F0DE
:103B6C001F03012202FA03F37B61FB681A6A7B696B
:103B7C00DB431A40FB681A62FB681A6ABB6803F0E5
:103B8C001F03796801FA03F31A43FB681A6200BF3A
:103B9C001C37BD4680BC704780B485B000AF7860E0
:103BAC0039607B6893F83C30012B01D1022341E052
:103BBC007B68012283F83C207B68022283F83D203D
:103BCC007B681B685B68FB607B681B689B68BB60E1
:103BDC00FB6823F07003FB603B681B68FA681343B7
:103BEC00FB607B681B68FA685A607B681B68144A28
:103BFC00934209D07B681B68B3F1804F04D07B687B
:103C0C001B68104A93420CD1BB6823F08003BB6045
:103C1C003B685B68BA681343BB607B681B68BA6817
:103C2C009A607B68012283F83D207B68002283F830
:103C3C003C20002318461437BD4680BC704700BF9B
:103C4C00002C01400004004080B483B000AF7860C9
:103C5C0000BF0C37BD4680BC704780B483B000AF4A
:103C6C00786000BF0C37BD4680BC704780B582B011
:103C7C0000AF78607B68002B01D101233FE07B68AB
:103C8C0093F83D30DBB2002B06D17B68002283F821
:103C9C003C207868FDF790FE7B68242283F83D2059
:103CAC007B681B68DA687B681B6822F40052DA6058
:103CBC00786800F049FB7B681B681A697B681B6895
:103CCC0022F490421A617B681B685A697B681B68F6
:103CDC0022F02A025A617B681B68DA687B681B68D1
:103CEC0042F40052DA607B6800221A647B6820225E
:103CFC0083F83D207B68202283F83E200023184661
:103D0C000837BD4680BD000080B58AB000AF786032
:103D1C007B681B681B687B627B681B68DB683B628B
:103D2C007B681B685B69FB610023BB6100237B61C3
:103D3C007B6A03F00F03BB61BB69002B0DD17B6A5F
:103D4C0003F02003002B08D03B6A03F02003002B68
:103D5C0003D0786800F04FFA7BE1BB69002B00F0D0
:103D6C00B180FB6903F00103002B05D13B6A03F41E
:103D7C009073002B00F0A6807B6A03F00103002BEC
:103D8C000AD03B6A03F48073002B05D07B681B6C54
:103D9C0043F001027B681A647B6A03F00403002B76
:103DAC000AD0FB6903F00103002B05D07B681B6C68
:103DBC0043F002027B681A647B6A03F00203002B57
:103DCC000AD0FB6903F00103002B05D07B681B6C48
:103DDC0043F004027B681A647B6A03F00803002B2F
:103DEC000FD03B6A03F02003002B04D1FB6903F0D6
:103DFC000103002B05D07B681B6C43F008027B6829
:103E0C001A647B681B6C002B00F01E817B6A03F02C
:103E1C002003002B07D03B6A03F02003002B02D0B9
:103E2C00786800F0E8F97B681B685B6903F0400375
:103E3C00002B14BF01230023DBB27B617B681B6C5E
:103E4C0003F00803002B02D17B69002B31D078687A
:103E5C0000F02AF97B681B685B6903F04003002BB8
:103E6C0023D07B681B685A697B681B6822F0400270
:103E7C005A617B689B6B002B13D07B689B6B764ADB
:103E8C005A637B689B6B1846FEF75CF90346002B64
:103E9C0016D07B689B6B5B6B7A68926B104698476D
:103EAC000EE0786800F0ECF80AE0786800F0E8F8CA
:103EBC0006E0786800F0E4F87B6800221A64C3E03E
:103ECC0000BFC1E07B681B6B012B40F0A1807B6ABB
:103EDC0003F01003002B00F09B803B6A03F01003EF
:103EEC00002B00F095800023FB607B681B681B682F
:103EFC00FB607B681B685B68FB60FB687B681B680E
:103F0C005B6903F04003002B4ED07B689B6B1B68F6
:103F1C005B683B823B8A002B00F098807B689B8D12
:103F2C003A8A9A4280F092807B683A8ADA857B687A
:103F3C009B6B9B69202B2BD07B681B68DA687B689A
:103F4C001B6822F48072DA607B681B685A697B6894
:103F5C001B6822F001025A617B681B685A697B68F6
:103F6C001B6822F040025A617B68202283F83E20B5
:103F7C007B6800221A637B681B68DA687B681B68A5
:103F8C0022F01002DA607B689B6B1846FEF79FF8F4
:103F9C007B689A8D7B68DB8D9BB2D31A9BB21946DA
:103FAC00786800F076F851E07B689A8D7B68DB8D41
:103FBC009BB2D31A7B827B68DB8D9BB2002B47D0E4
:103FCC007B8A002B44D07B681B68DA687B681B6893
:103FDC0022F49072DA607B681B685A697B681B68F4
:103FEC0022F001025A617B68202283F83E207B6814
:103FFC0000221A637B681B68DA687B681B6822F0F6
:10400C001002DA607B8A1946786800F042F81FE0EB
:10401C007B6A03F08003002B08D03B6A03F080031B
:10402C00002B03D0786800F07FF812E07B6A03F075
:10403C004003002B0DD03B6A03F04003002B08D04B
:10404C00786800F0C0F804E000BF02E000BF00E0B8
:10405C0000BF2837BD4680BD0D41000880B483B039
:10406C0000AF786000BF0C37BD4680BC704780B491
:10407C0083B000AF786000BF0C37BD4680BC704782
:10408C0080B483B000AF786000BF0C37BD4680BCF5
:10409C00704780B483B000AF78600B467B8000BF64
:1040AC000C37BD4680BC704780B483B000AF7860DD
:1040BC007B681B68DA687B681B6822F49072DA6094
:1040CC007B681B685A697B681B6822F001025A6185
:1040DC007B681B6B012B07D17B681B68DA687B68DC
:1040EC001B6822F01002DA607B68202283F83E20E5
:1040FC007B6800221A6300BF0C37BD4680BC70473A
:10410C0080B584B000AF78607B685B6AFB60FB684D
:10411C000022DA85FB680022DA84F868FFF7B0FF2A
:10412C0000BF1037BD4680BD80B485B000AF78604D
:10413C007B6893F83D30DBB2212B3ED17B689B68CA
:10414C00B3F5805F14D17B681B69002B10D17B68A1
:10415C001B6AFB60FB681B881A467B681B68C2F3F2
:10416C0008025A607B681B6A9A1C7B681A6208E01A
:10417C007B681B6A591C7A6811621A787B681B6809
:10418C005A607B68DB8C9BB2013B9BB27A68194608
:10419C00D184002B0FD17B681B68DA687B681B68A5
:1041AC0022F08002DA607B681B68DA687B681B6827
:1041BC0042F04002DA60002300E002231846143774
:1041CC00BD4680BC704780B582B000AF78607B681C
:1041DC001B68DA687B681B6822F04002DA607B6837
:1041EC00202283F83D207868FFF738FF002318461B
:1041FC000837BD4680BD80B586B000AF78607B685F
:10420C0093F83E30DBB2222B40F099807B689B68A0
:10421C00B3F5805F17D17B681B69002B13D100238A
:10422C007B617B689B6A3B617B681B685B689BB2AC
:10423C00C3F308039AB23B691A807B689B6A9A1C89
:10424C007B689A6226E07B689B6A7B6100233B61FA
:10425C007B689B68B3F5805F07D07B689B68002BFD
:10426C000AD17B681B69002B06D17B681B685B68D5
:10427C00DAB27B691A7008E07B681B685B68DBB29A
:10428C0003F07F03DAB27B691A707B689B6A5A1C55
:10429C007B689A627B68DB8D9BB2013B9BB27A6830
:1042AC001946D185002B48D17B681B68DA687B687E
:1042BC001B6822F02002DA607B681B68DA687B6876
:1042CC001B6822F48072DA607B681B685A697B6811
:1042DC001B6822F001025A617B68202283F83E2081
:1042EC007B681B6B012B23D17B6800221A637B68D4
:1042FC001B68DA687B681B6822F01002DA607B6846
:10430C001B681B6803F01003102B0AD10023FB6001
:10431C007B681B681B68FB607B681B685B68FB60C9
:10432C00FB687B689B8D19467868FFF7B2FE02E04C
:10433C007868FFF79CFE002302E0002300E00223D4
:10434C0018461837BD4680BD80B584B000AF786084
:10435C007B681B681B6923F440517B68DA687B68B7
:10436C001B680A431A617B689A687B681B691A434D
:10437C007B685B691343BB607B681B68DB6823F459
:10438C00B05323F00C037A681268B9680B43D360FE
:10439C007B681B685B6923F440717B689A697B6856
:1043AC001B680A435A617B681B682C4A934203D1F1
:1043BC00FEF7E8FCF86002E0FEF7D0FCF860FA6863
:1043CC0013469B0013449A001A447B685B689B005D
:1043DC00B2FBF3F3224AA2FB03235B091901FA682F
:1043EC0013469B0013449A001A447B685B689B003D
:1043FC00B2FBF3F21A4BA3FB02035B09642000FB34
:10440C0003F3D31A1B013233154AA2FB03235B09B6
:10441C0003F0F0031944FA6813469B0013449A0006
:10442C001A447B685B689B00B2FBF3F20C4BA3FB5A
:10443C0002035B09642000FB03F3D31A1B01323324
:10444C00074AA2FB03235B0903F00F027B681B687E
:10445C000A449A6000BF1037BD4680BD0038014049
:10446C001F85EB5170B500260C4D0D4C641BA41030
:10447C00A64209D100F022F800260A4D0A4C641B12
:10448C00A410A64205D170BD55F8043B98470136DF
:10449C00EEE755F8043B98470136F2E7084500086B
:1044AC0008450008084500080C450008034602446E
:1044BC00934200D1704703F8011BF9E7F8B500BF30
:1044CC00F8BC08BC9E467047F8B500BFF8BC08BCE9
:0444DC009E46704741
:1044E00002030405060708090A0B0C0D0E0F101035
:1044F0000000000000000000010203040607080994
:084500000000000001020304A9
:044508003101000875
:04450C000D01000895
:104510000100000001000000010000000100000097
:104520000100000001000000010000000100000087
:104530000100000001000000010000000100000077
:104540000100000001000000010000000100000067
:104550002C0100000B0000000F0000003C000000D8
:104560001E000000130000001700000005000000FE
:104570000900000005000000030000000200000028
:10458000050000000300000002000000030000001E
:10459000020000000500000003000000020000000F
:1045A000050000000A0000000024F40010000000D4
:0445B0000100000006
:0400000508001DB121
:00000001FF
