:020000040800F2
:10000000002800209D230008B91F0008BF1F00081A
:10001000C51F0008CB1F0008D11F0008000000000A
:10002000000000000000000000000000D71F0008D2
:10003000E31F000800000000EF1F0008FB1F00087E
:10004000E5230008E5230008E5230008E523000870
:10005000E5230008E5230008E5230008E523000860
:10006000E5230008E5230008E5230008E523000850
:10007000E5230008E5230008E5230008E523000840
:10008000E5230008E5230008E5230008E523000830
:10009000E5230008E5230008E5230008E523000820
:1000A000E5230008E5230008E5230008E523000810
:1000B00009200008E523000800000000E5230008EF
:1000C000E52300080000000000000000E523000810
:1000D00000000000E52300081D20000800000000CB
:1000E000E5230008E5230008E523000800000000E0
:1000F0000000000000000000000000000000000000
:0C01000000000000000000005FF808F1A3
:10010C0010B5054C237833B9044B13B10448AFF345
:10011C0000800123237010BD50010020000000005E
:10012C00304E000808B5034B1BB103490348AFF32D
:10013C00008008BD0000000054010020304E000873
:10014C0080B400AF064B1B68012B04D1044B00227A
:10015C001A60012300E000231846BD4680BC70479E
:10016C006C01002080B400AF064B1B68012B04D13E
:10017C00044B00221A60012300E000231846BD4600
:10018C0080BC70477001002080B400AF064B1B6828
:10019C00012B04D1044B00221A60012300E0002340
:1001AC001846BD4680BC70477401002080B400AF77
:1001BC00064B1B68012B04D1044B00221A6001234F
:1001CC0000E000231846BD4680BC70477801002033
:1001DC0080B582B000AF00237B6087E17F4A7B68EB
:1001EC0052F823207E497B6841F823207D4A7B68A6
:1001FC0052F8232079497B6841F823207B68002B37
:10020C0054D14FF48041784802F082FC03461946E1
:10021C00744A7B6842F82310714A7B6852F8232099
:10022C006E497B6851F823309A423FD16B4A7B6808
:10023C0052F823206B497B6851F823309A4235D110
:10024C006A4A7B6852F8232066497B6851F8233050
:10025C009A4215D0634A7B6852F8232063497B6825
:10026C0041F823205F4A7B6852F82330002B1DD1C4
:10027C005F4B01221A605F4B4FF496721A6015E0C7
:10028C00584A7B6852F82330002B0FD1594B1B680E
:10029C00013B584A1360574B1B68002B06D1564B39
:1002AC0001221A60534B4FF496721A607B68012B33
:1002BC0053D12021514802F02BFC03461946494AE0
:1002CC007B6842F82310464A7B6852F82320434946
:1002DC007B6851F823309A423FD1404A7B6852F8F0
:1002EC00232040497B6851F823309A4235D13F4A4C
:1002FC007B6852F823203B497B6851F823309A42A3
:10030C0015D0384A7B6852F8232038497B6841F86D
:10031C002320344A7B6852F82330002B1DD1384BF4
:10032C0001221A60334B4FF496721A6015E02D4A75
:10033C007B6852F82330002B0FD12E4B1B68013BEE
:10034C002C4A13602B4B1B68002B06D12D4B012222
:10035C001A60284B4FF496721A607B68022B6BD193
:10036C000121214802F0D4FB034619461D4A7B6843
:10037C0042F823101A4A7B6852F8232017497B68ED
:10038C0051F823309A4257D1144A7B6852F82320F3
:10039C0014497B6851F823309A424DD1134A7B683B
:1003AC0052F823200F497B6851F823309A422DD004
:1003BC000C4A7B6852F823200C497B6841F82320B7
:1003CC00084A7B6852F82330002B35D10E4B0122A2
:1003DC001A60084B4FF496721A602DE01000002042
:1003EC000000002020000020000C01403000002004
:1003FC006C010020400000207C010020000801401E
:10040C007001002080010020740100203C4A7B68B0
:10041C0052F82330002B0FD13A4B1B68013B394A61
:10042C001360384B1B68002B06D1374B01221A6026
:10043C00344B4FF496721A607B68032B53D14021D6
:10044C00324802F065FB034619462D4A7B6842F898
:10045C0023102F4A7B6852F823202E497B6851F8D1
:10046C0023309A423FD12B4A7B6852F823202449EF
:10047C007B6851F823309A4235D1274A7B6852F871
:10048C0023201F497B6851F823309A4215D01C4A0F
:10049C007B6852F8232020497B6841F82320184AB6
:1004AC007B6852F82330002B1DD11C4B01221A60A3
:1004BC00144B4FF496721A6015E0114A7B6852F88F
:1004CC002330002B0FD10F4B1B68013B0D4A1360DF
:1004DC000C4B1B68002B06D1114B01221A60094BE7
:1004EC004FF496721A607B6801337B607B68032B38
:1004FC007FF774AE00BF00BF0837BD4680BD00BF9C
:10050C002000002040000020840100200008014051
:10051C000000002010000020300000207801002096
:10052C008801002080B500AF244B1B68342B1FD0F2
:10053C00342B3DDC322B02D0332B07D038E001F0CA
:10054C001BFF1F4B1B6800225A6334E01D4B1B68BA
:10055C00012B05D1194B32221A6001F00DFF2AE054
:10056C00174B1B6840F28F125A6301F0F9FE22E020
:10057C00154B1B68032B15DC144B1A68104B1B68AE
:10058C005A6301F0EDFE114B1B6832330F4A1360B6
:10059C000E4B1B6840F2E63293420BDD0B4B632291
:1005AC001A6007E0054B32221A6001F0E5FE01E00B
:1005BC0000BF00E000BF00BF80BD00BFD400002022
:1005CC004C020020F8010020B0000020D8000020D0
:1005DC0080B400AF204B1B6801330F2B37D801A21E
:1005EC0052F823F05B0600085B0600085B06000867
:1005FC005B0600085B0600085B0600085B0600084B
:10060C005B0600085B0600085B0600085B0600083A
:10061C005B0600085B060008310600083F06000870
:10062C004D0600080D4B00221A600C4B02225A603A
:10063C000EE00A4B00221A60084B03225A6007E0B6
:10064C00064B00221A60054B04225A6000E000BFE2
:10065C0000BFBD4680BC704744000020340200201F
:10066C0080B400AF094B1B68102B06D0102B06DC96
:10067C0013F1020F05D00F2B01E000BF02E000BF09
:10068C0000E000BF00BFBD4680BC704748000020A2
:10069C0080B500AF9D4B1B683C3B042B00F23381B3
:1006AC0001A252F823F000BFC9060008D9060008C1
:1006BC006F070008050800089B080008934B3D22B3
:1006CC001A6041F2883001F0EDF91DE1904B1B6886
:1006DC00012B0ED18F4B00221A608C4B3C221A60DE
:1006EC008D4B13221A608D4B17221A6001F0C6FD38
:1006FC000AE1FFF737FD0346012B06D1834B3E225F
:10070C001A6041F2883001F0CDF9FFF719FD03466C
:10071C00012B21D17D4B3C221A607E4B02221A60A8
:10072C007F4A8049804803F043FF03469AB24FF456
:10073C007A737D497D4803F07EFA7D4B1B681A461F
:10074C007C49794803F034FF03469AB24FF47A732C
:10075C007549764803F06FFA01F0A0FC01F0EAFC51
:10076C00D2E06B4B1B68012B0ED16A4B00221A6036
:10077C00664B3C221A60684B13221A60674B172297
:10078C001A6001F07BFDBFE0FFF7ECFC0346012B88
:10079C0006D15E4B3F221A6041F2883001F082F99B
:1007AC00FFF7CEFC0346012B21D1584B3C221A609B
:1007BC00584B02221A605A4A5A495B4803F0F8FE19
:1007CC0003469AB24FF47A735749584803F033FAF8
:1007DC00574B1B681A465749534803F0E9FE03462A
:1007EC009AB24FF47A735049504803F024FA01F04E
:1007FC0055FC01F0AFFC87E0454B1B68012B0ED17B
:10080C00444B00221A60414B3C221A60424B13228B
:10081C001A60424B17221A6001F030FD74E0FFF7AA
:10082C00A1FC0346012B06D1384B40221A6041F241
:10083C00883001F037F9FFF783FC0346012B21D1F7
:10084C00344B02221A60314B3C221A60344A35492F
:10085C00354803F0ADFE03469AB24FF47A73324931
:10086C00324803F0E8F9324B1B681A4631492E48DE
:10087C0003F09EFE03469AB24FF47A732A492B4832
:10088C0003F0D9F901F01EFC01F044FC3CE0204BD4
:10089C001B68012B0ED11F4B00221A601B4B3C22F4
:1008AC001A601D4B13221A601C4B17221A6001F0A0
:1008BC00E5FC29E0FFF756FC0346012B06D1134B50
:1008CC003D221A6041F2883001F0ECF8FFF738FC59
:1008DC000346012B12D10F4B02221A600B4B3C2208
:1008EC001A600F4A0F49104803F062FE03469AB291
:1008FC004FF47A730C490D4803F09DF901F0F6FBA7
:10090C0001F008FC00E000BF00BF80BD6C000020BF
:10091C00D00100208C0100209400002098000020C1
:10092C00484E0008544E00084C0000209402002051
:10093C00C40000205C4E000880B500AF1E4B1B6845
:10094C00842B1ED0842B31DC822B02D0832B03D042
:10095C002CE001F0C9FC2CE001F0DAFC174B1B6811
:10096C00012B02D1144B82221A60154B1B68142BDD
:10097C0003D1114B84221A601BE00F4B83221A60A7
:10098C0017E001F0D9FC0E4B1B68142B03D10A4B5A
:10099C0084221A6002E0084B83221A60094B1B6800
:1009AC00032B05DC084B34221A6001E000BF00E089
:1009BC0000BF00BF80BD00BF70000020E801002018
:1009CC0094000020B0000020D400002080B500AFBF
:1009DC00974B1B68042B13DC002BC0F23982042BC1
:1009EC0000F2368201A252F823F000BF150A00086B
:1009FC00370A0008510B0008A50C0008910D0008DF
:100A0C005F2B00F08C8023E2894B01221A60894A0B
:100A1C0089498A4803F0CCFD03469AB24FF47A73A5
:100A2C008649874803F007F912E2864B05221A60C3
:100A3C00854B09221A60854B0B221A60844B0F22BE
:100A4C001A60FFF77DFB0346012B21D1784B022264
:100A5C001A60804A7849794803F0AAFD03469AB295
:100A6C004FF47A737549764803F0E5F87A4B1B68B6
:100A7C001A467A49714803F09BFD03469AB24FF42B
:100A8C007A736E496E4803F0D6F8754B82221A6061
:100A9C00FFF768FB0346012B12D1654B5F221A60EE
:100AAC00704A6549654803F083FD03469AB24FF4DA
:100ABC007A736249624803F0BEF8694B82221A606D
:100ACC00FFF774FB0346012B20D1674B33221A60CE
:100ADC004FF47A7001F034F8644B1A68644B1B685D
:100AEC001A44644B1B6813444FF4FA6202FB03F381
:100AFC00184601F00BF8604B1B68142B03D1584BB4
:100B0C0084221A6002E0564B83221A605B4B1B68EE
:100B1C00012B40F09681524B82221A6091E1FFF733
:100B2C00B7FD4A4B4FF0FF321A60494B6FF0010290
:100B3C001A60444B6FF002021A60434B6FF00302D1
:100B4C001A6085E13F4B06221A603F4B1E221A6049
:100B5C003E4B0C221A603E4B10221A60FFF702FB30
:100B6C000346012B18D1414B1B6801333F4A1360DC
:100B7C00394B1B680133384A1360374B1B681A46D4
:100B8C0036492E4803F014FD03469AB24FF47A739B
:100B9C002A492B4803F04FF82F4B1B68384A82FB2D
:100BAC0003129210DB17D31A364A13602A4B1968BA
:100BBC00334B83FB01239A10CB17D21A13469B009D
:100BCC0013445B00CA1A2F4B5A60FFF7DDFA034639
:100BDC00012B07D1254B1B682B4A13601E4B1B683E
:100BEC002A4A1360FFF7ACFA0346012B40F02B8125
:100BFC00274A1149114803F0DBFC03469AB24FF423
:100C0C007A730E490E4803F016F8224B1B681A46ED
:100C1C0012490A4803F0CCFC03469AB24FF47A739B
:100C2C000649074803F007F8014B03221A600AE152
:100C3C008C010020644E0008704E000874000020E7
:100C4C00940200209C000020A00000204400002002
:100C5C0048000020784E0008C4000020844E000894
:100C6C00700000208C4E0008D4000020A40000204E
:100C7C00A8000020AC00002094000020E801002017
:100C8C00676666663C020020B0000020D0000020A1
:100C9C00984E0008C00000206E4B08221A606E4B64
:100CAC0020221A606D4B0D221A606D4B10221A60B7
:100CBC00FFF758FA0346012B18D16A4B1B68013316
:100CCC00684A1360684B1B680133674A1360664BB4
:100CDC001B681A466549664803F06AFC03469AB2DB
:100CEC004FF47A736249634802F0A5FF5E4B1B68B0
:100CFC00614A82FB03129210DB17D31A5F4A13600E
:100D0C00594B19685C4B83FB01239A10CB17D21AF1
:100D1C0013469B0013445B00CA1A584B5A60FFF7EA
:100D2C0033FA0346012B07D14E4B1B68544A136010
:100D3C004D4B1B68534A1360FFF702FA0346012B15
:100D4C0040F08380504A5149494803F031FC034636
:100D5C009AB24FF47A734649464802F06CFF4C4BFA
:100D6C001B681A464149424803F022FC03469AB2DA
:100D7C004FF47A733E493F4802F05DFF454B042225
:100D8C001A6062E0334B07221A60334B1F221A6041
:100D9C00324B0E221A60324B10221A60FFF7E2F926
:100DAC000346012B18D13C4B1B6801333A4A1360A4
:100DBC00374B1B680133364A1360354B1B681A4698
:100DCC002A492B4803F0F4FB03469AB24FF47A738A
:100DDC002749284802F02FFF2D4B1B68264A82FB1F
:100DEC0003129210DB17D31A244A1360284B19688C
:100DFC00214B83FB01239A10CB17D21A13469B006D
:100E0C0013445B00CA1A1D4B5A60FFF7BDF9034629
:100E1C00012B07D1204B1B68204A13601C4B1B680D
:100E2C001F4A1360FFF78CF90346012B0FD11D4BA2
:100E3C0013221A601C4B17221A60164B00221A60E0
:100E4C0005E000BF04E000BF02E000BF00E000BF0F
:100E5C0000BF80BD9C000020A000002044000020AA
:100E6C0048000020AC000020C0000020844E000888
:100E7C007400002094020020676666663C02002025
:100E8C00B8000020CC000020A44E0008704E0008D2
:100E9C00BC0000208C010020A8000020B400002021
:100EAC00C8000020940000209800002080B500AFFE
:100EBC00864B1B68133B032B00F2828101A252F874
:100ECC0023F000BFE10E0008290F000801100008F4
:100EDC00151100087D4B14221A607D4B1B684FF4D2
:100EEC007A7202FB03F37B4A13607A4B1B68184639
:100EFC0000F008FD4FF47A7000F038FD764B1B685B
:100F0C001A467649764803F053FB03469AB24FF4DF
:100F1C007A737349734802F08EFE58E101F0BEF803
:100F2C006D4B1B68704A82FB03129210DB17D31AAD
:100F3C006E4A1360684B19686B4B83FB01239A1044
:100F4C00CB17D21A13469B0013445B00CA1A674B8B
:100F5C005A60674B1B68012B23D15F4B1B68013B0D
:100F6C005D4A13605C4B1B68002B0ED05A4B1B6800
:100F7C001A465A495A4803F01BFB03469AB24FF4DF
:100F8C007A735749574802F056FE534B1B68002B97
:100F9C0003D14F4B1B68504A13604FF47A7000F02A
:100FAC00E5FC544B1B68012B40F00C81474B152280
:100FBC001A60514B1B684FF47A7202FB03F3454ADB
:100FCC005360444B5B68184600F09CFC4FF47A70FD
:100FDC0000F0CCFC494B1B681A464049404803F0D2
:100FEC00E7FA03469AB24FF47A733D493D4802F052
:100FFC0022FEE7E001F066F8404B1B683A4A82FBA0
:10100C0003129210DB17D31A384A13603B4B196842
:10101C00354B83FB01239A10CB17D21A13469B0036
:10102C0013445B00CA1A314B5A60314B1B68012BBD
:10103C0023D1324B1B68013B304A13602F4B1B688A
:10104C00002B0ED02D4B1B681A462449244803F064
:10105C00AFFA03469AB24FF47A732149214802F051
:10106C00EAFD264B1B68002B03D1234B1B68234A3C
:10107C0013604FF47A7000F079FC1E4B1B68012B47
:10108C0040F0A280114B16221A601D4B1B684FF4C6
:10109C007A7202FB03F30F4A93600E4B9B6818465F
:1010AC0000F030FC4FF47A7000F060FC154B1B68BC
:1010BC001A460A490A4803F07BFA03469AB24FF4DF
:1010CC007A730749074802F0B6FD7DE094000020D2
:1010DC00A40000201C020020B0000020B04E00082C
:1010EC0074000020940200206766666634020020BB
:1010FC00A001002090010020A8000020B4000020D6
:10110C00AC000020B800002000F0F0FF314B1B6851
:10111C00314A82FB03129210DB17D31A2F4A136049
:10112C002C4B19682C4B83FB01239A10CB17D21A2A
:10113C0013469B0013445B00CA1A284B5A60284B79
:10114C001B68012B23D1234B1B68013B214A1360E5
:10115C00204B1B68002B0ED01E4B1B681A462149D6
:10116C00214803F025FA03469AB24FF47A731E49CC
:10117C001E4802F060FD174B1B68002B03D11C4B63
:10118C001B68144A13604FF47A7000F0EFFB194B94
:10119C001B68012B1AD1184B13221A60174B1B68B2
:1011AC004FF47A7202FB03F3154A1360144B1B685D
:1011BC00184600F0A7FB4FF47A7000F0D7FB05E05F
:1011CC0000BF04E000BF02E000BF00E000BF00BFB2
:1011DC0080BD00BFB8000020676666663402002040
:1011EC00A0010020B04E00087400002094020020E2
:1011FC00AC0000209001002094000020A4000020EE
:10120C001C02002080B500AF894B1B68173B032BD9
:10121C0000F2058101A252F823F000BF3912000838
:10122C00991300086312000807130008804B192259
:10123C001A60804B1B684FF47A7202FB03F37E4AF0
:10124C0013607D4B1B68184600F076FB4FF47A70E8
:10125C0000F0C0FBEAE000F06DFF784B1B68784AA9
:10126C0082FB03129210DB17D31A764A1360734B6E
:10127C001968734B83FB01239A10CB17D21A1346B0
:10128C009B0013445B00CA1A6E4B5A606E4B1B6872
:10129C00012B18D1694B1B68013B684A1360674BE3
:1012AC001B68002B03D04FF47A7000F093FB634B58
:1012BC001B68002B03D15F4B1B68604A13604FF413
:1012CC007A7000F087FB614B1B68012B40F0A98002
:1012DC00574B1A221A605E4B1B684FF47A7202FB52
:1012EC0003F3554A5360544B5B68184600F024FBDB
:1012FC004FF47A7000F06EFB93E000F02BFF554B2F
:10130C001B684F4A82FB03129210DB17D31A4D4A0B
:10131C001360504B19684A4B83FB01239A10CB176F
:10132C00D21A13469B0013445B00CA1A454B5A60F1
:10133C00454B1B68012B10D1464B1B68013B454AA2
:10134C001360444B1B68002B03D1414B1B68414A73
:10135C0013604FF47A7000F03DFB3C4B1B68012B83
:10136C0061D1334B18221A603B4B1B684FF47A72D5
:10137C0002FB03F3304A93602F4B9B68184600F036
:10138C00DBFA4FF47A7000F025FB4CE000F0C2FE63
:10139C00324B1B682A4A82FB03129210DB17D31ABA
:1013AC00284A13602D4B1968254B83FB01239A1097
:1013BC00CB17D21A13469B0013445B00CA1A214B5D
:1013CC005A60214B1B68012B10D1244B1B68013B2D
:1013DC00224A1360214B1B68002B03D11E4B1B6848
:1013EC001E4A13604FF47A7000F0F4FA174B1B6826
:1013FC00012B1AD10E4B19221A600E4B1B684FF49D
:10140C007A7202FB03F30C4A13600B4B1B681846F1
:10141C0000F092FA4FF47A7000F0DCFA05E000BFAD
:10142C0004E000BF02E000BF00E000BF00BF80BDD1
:10143C0098000020BC00002028020020C8000020DA
:10144C00676666663C020020B0010020980100200F
:10145C00C0000020CC000020C4000020D0000020E0
:10146C0080B500AF264B1B6803330B2B3ED801A273
:10147C0052F823F0F9140008F9140008F9140008C4
:10148C00F9140008F9140008F9140008F9140008FC
:10149C00F9140008B1140008B7140008E31400088C
:1014AC00CD140008FFF702FD27E0164B1B68012B3B
:1014BC001ED100F06BFE4FF4FA7000F0D9FA17E071
:1014CC00104B1B68012B15D100F084FE4FF4FA7001
:1014DC0000F0CEFA0EE00B4B1B68012B0CD100F088
:1014EC0067FE4FF4FA7000F0C3FA05E000BF04E0A9
:1014FC0000BF02E000BF00E000BF00BF80BD00BF26
:10150C009C000020C801002080B500AF3F4B1B6839
:10151C000433242B70D801A252F823F005160008CE
:10152C000516000805160008051600080516000823
:10153C000516000805160008051600080516000813
:10154C000516000805160008051600080516000803
:10155C00BD1500080516000805160008051600083C
:10156C0005160008051600080516000805160008E3
:10157C0005160008051600080516000805160008D3
:10158C0005160008051600080516000805160008C3
:10159C0005160008051600080516000805160008B3
:1015AC0005160008C3150008EF150008D91500082A
:1015BC00FFF728FE27E0164B1B68012B1ED100F00D
:1015CC0025FE4FF4FA7000F039FA17E0104B1B6847
:1015DC00012B15D100F03AFE4FF4FA7000F02EFA00
:1015EC000EE00B4B1B68012B0CD100F01FFE4FF4CF
:1015FC00FA7000F023FA05E000BF04E000BF02E03F
:10160C0000BF00E000BF00BF80BD00BFA0000020F5
:10161C00C001002080B500AF00F0E0FE00F03EF805
:10162C0000F0EEF800F076F800F0C0F8194801F080
:10163C0021FF0A2000F0B4F90A2000F0E5F94FF47C
:10164C00FA7000F0FBF94FF4FA7000F011FA4FF455
:10165C00FA7000F041FA0A2000F072FA0A2000F049
:10166C0089FA0D4B1B68012B05D100F083FD4FF45B
:10167C007A7000F031FAFFF7A9F9FEF7A9FFFEF72F
:10168C00EFFFFFF741FFFFF7EBFEFFF755F9FEF712
:10169C0049FFE6E74C020020D801002080B590B04D
:1016AC0000AF07F1180328220021184602F078FF3A
:1016BC003B1D00221A605A609A60DA601A6102239C
:1016CC00BB610123BB621023FB6200237B6307F128
:1016DC001803184601F064FA0346002B01D000F001
:1016EC000BF90F237B600023BB600023FB600023FE
:1016FC003B6100237B613B1D0021184601F0D0FCAF
:10170C000346002B01D000F0F7F800BF4037BD4670
:10171C0080BD000080B586B000AF07F10803002241
:10172C001A605A609A60DA603B4600221A605A606E
:10173C001D4B4FF080421A601B4B07225A601A4B0C
:10174C0000229A60184B42F20F72DA60164B00229C
:10175C001A61154B00229A61134801F03BFE0346B7
:10176C00002B01D000F0C8F84FF48053BB6007F198
:10177C00080319460C4801F0D1FF0346002B01D099
:10178C0000F0BAF800233B6000237B603B4619460F
:10179C00054802F099F90346002B01D000F0ACF893
:1017AC0000BF1837BD4680BD4C02002080B500AF8D
:1017BC00114B124A1A60104B4FF416525A600E4BD2
:1017CC0000229A600C4B0022DA600B4B00221A614B
:1017DC00094B0C225A61084B00229A61064B0022DD
:1017EC00DA61054802F0DAF90346002B01D000F06B
:1017FC0083F800BF80BD00BF94020020004400406D
:10180C0080B586B000AF07F1080300221A605A6059
:10181C009A60DA602F4B9B692E4A43F00403936164
:10182C002C4B9B6903F004037B607B68294B9B6901
:10183C00284A43F008039361264B9B6903F0080385
:10184C003B603B6800224FF4A261234801F077F91A
:10185C00002242F23C01214801F071F94FF4A263DD
:10186C00BB600123FB6000233B6102237B6107F11A
:10187C0008031946184800F0D1FF6023BB60002311
:10188C00FB6001233B6107F108031946124800F085
:10189C00C5FF44F20103BB600023FB6001233B61E5
:1018AC0007F1080319460D4800F0B8FF42F23C035B
:1018BC00BB600123FB6000233B6102237B6107F1CA
:1018CC0008031946054800F0A9FF00BF1837BD46AC
:1018DC0080BD00BF0010024000080140000C014018
:1018EC0080B582B000AF786000F05EF9FEF770FC56
:1018FC0000BF0837BD4680BD80B400AF72B600BFD4
:10190C00FEE7000080B483B000AF7860074B1B6823
:10191C007A6892FBF3F3064A1360064B00221A60B6
:10192C0000BF0C37BD4680BC704700BFDC000020F8
:10193C00940100209001002080B483B000AF786047
:10194C00074B1B687A6892FBF3F3064A1360064B4D
:10195C0000221A6000BF0C37BD4680BC704700BF28
:10196C00DC0000209C0100209801002080B483B092
:10197C0000AF7860074B1B687A6892FBF3F3064A5A
:10198C001360064B00221A6000BF0C37BD4680BCAA
:10199C00704700BFDC000020A4010020A001002043
:1019AC0080B483B000AF7860074B1B687A6892FBF9
:1019BC00F3F3064A1360064B00221A6000BF0C3783
:1019CC00BD4680BC704700BFDC000020AC0100208D
:1019DC00A801002080B483B000AF7860074B1B686F
:1019EC007A6892FBF3F3064A1360064B00221A60E6
:1019FC0000BF0C37BD4680BC704700BFDC00002028
:101A0C00B4010020B001002080B483B000AF786036
:101A1C00074B1B687A6892FBF3F3064A1360064B7C
:101A2C0000221A6000BF0C37BD4680BC704700BF57
:101A3C00DC000020BC010020B801002080B483B081
:101A4C0000AF7860074B1B687A6892FBF3F3064A89
:101A5C001360064B00221A6000BF0C37BD4680BCD9
:101A6C00704700BFDC000020C4010020C001002032
:101A7C0080B483B000AF7860074B1B687A6892FB28
:101A8C00F3F3064A1360064B00221A6000BF0C37B2
:101A9C00BD4680BC704700BFDC000020CC0100209C
:101AAC00C801002080B483B000AF7860074B1B687E
:101ABC007A6892FBF3F3064A1360064B00221A6015
:101ACC0000BF0C37BD4680BC704700BFDC00002057
:101ADC00D4010020D001002080B483B000AF786026
:101AEC00074B1B687A6892FBF3F3064A1360064BAC
:101AFC0000221A6000BF0C37BD4680BC704700BF87
:101B0C00DC000020DC010020D801002080B483B070
:101B1C0000AF7860074B1B687A6892FBF3F3064AB8
:101B2C001360064B00221A6000BF0C37BD4680BC08
:101B3C00704700BFDC000020EC010020E801002011
:101B4C0080B483B000AF7860074B1B687A6892FB57
:101B5C00F3F3064A1360064B00221A6000BF0C37E1
:101B6C00BD4680BC704700BFDC000020FC0100209B
:101B7C00F801002080B483B000AF7860074B1B687D
:101B8C007A6892FBF3F3064A1360064B00221A6044
:101B9C0000BF0C37BD4680BC704700BFDC00002086
:101BAC000C0200200802002080B400AF894B1B6897
:101BBC00002B04DD874B1B68013B864A1360854B69
:101BCC001B68002B02D1844B01221A60834B1B68CB
:101BDC00002B04DD814B1B68013B804A13607F4B5B
:101BEC001B68002B02D17E4B01221A607D4B1B68B7
:101BFC00002B04DD7B4B1B68013B7A4A1360794B4D
:101C0C001B68002B02D1784B01221A60774B1B68A2
:101C1C00002B04DD754B1B68013B744A1360734B3E
:101C2C001B68002B02D1724B01221A60714B1B688E
:101C3C00002B04DD6F4B1B68013B6E4A13606D4B30
:101C4C001B68002B02D16C4B01221A606B4B1B687A
:101C5C00002B04DD694B1B68013B684A1360674B22
:101C6C001B68002B02D1664B01221A60654B1B6866
:101C7C00002B04DD634B1B68013B624A1360614B14
:101C8C001B68002B02D1604B01221A605F4B1B6852
:101C9C00002B04DD5D4B1B68013B5C4A13605B4B06
:101CAC001B68002B02D15A4B01221A60594B1B683E
:101CBC00002B04DD574B1B68013B564A1360554BF8
:101CCC001B68002B02D1544B01221A60534B1B682A
:101CDC00002B04DD514B1B68013B504A13604F4BEA
:101CEC001B68002B02D14E4B01221A604D4B1B6816
:101CFC00002B04DD4B4B1B68013B4A4A1360494BDC
:101D0C001B68002B02D1484B01221A60474B1B6801
:101D1C00002B04DD454B1B68013B444A1360434BCD
:101D2C001B68002B02D1424B01221A60414B1B68ED
:101D3C00002B04DD3F4B1B68013B3E4A13603D4BBF
:101D4C001B68002B02D13C4B01221A603B4B1B68D9
:101D5C00002B04DD394B1B68013B384A1360374BB1
:101D6C001B68002B02D1364B01221A60354B1B68C5
:101D7C00002B04DD334B1B68013B324A1360314BA3
:101D8C001B68002B02D1304B01221A602F4B1B68B1
:101D9C00002B04DD2D4B1B68013B2C4A13602B4B95
:101DAC001B68002B02D12A4B01221A60294B1B689D
:101DBC00002B04DD274B1B68013B264A1360254B87
:101DCC001B68002B02D1244B01221A6000BFBD46B8
:101DDC0080BC704794010020900100209C010020E1
:101DEC0098010020A4010020A0010020AC010020DB
:101DFC00A8010020B4010020B0010020BC0100208B
:101E0C00B8010020C4010020C0010020CC0100203A
:101E1C00C8010020D4010020D0010020DC010020EA
:101E2C00D8010020E4010020E0010020EC0100209A
:101E3C00E8010020F4010020F0010020FC0100204A
:101E4C00F801002004020020000200200C020020F7
:101E5C0008020020140200201002002080B485B07B
:101E6C0000AF154B9B69144A43F001039361124B6D
:101E7C009B6903F00103BB60BB680F4BDB690E4A27
:101E8C0043F08053D3610C4BDB6903F080537B60D0
:101E9C007B680A4B5B68FB60FB6823F0E063FB60CC
:101EAC00FB6843F00073FB60044AFB68536000BF9F
:101EBC001437BD4680BC7047001002400000014042
:101ECC0080B584B000AF78607B681B68B3F1804F3D
:101EDC0013D10C4BDB690B4A43F00103D361094B63
:101EEC00DB6903F00103FB60FB68002200211C206E
:101EFC0000F0ADFB1C2000F0C6FB00BF1037BD4648
:101F0C0080BD00BF0010024080B588B000AF786083
:101F1C0007F1100300221A605A609A60DA607B683D
:101F2C001B681F4A934237D11E4BDB691D4A43F491
:101F3C000033D3611B4BDB6903F40033FB60FB689C
:101F4C00184B9B69174A43F004039361154B9B692B
:101F5C0003F00403BB60BB6804233B6102237B6179
:101F6C000323FB6107F1100319460F4800F056FCE0
:101F7C0008233B6100237B610023BB6107F1100345
:101F8C001946094800F04AFC00220021262000F0E6
:101F9C005EFB262000F077FB00BF2037BD4680BDDE
:101FAC0000440040001002400008014080B400AF23
:101FBC00FEE780B400AFFEE780B400AFFEE780B46C
:101FCC0000AFFEE780B400AFFEE780B400AF00BF07
:101FDC00BD4680BC704780B400AF00BFBD4680BC1E
:101FEC00704780B400AF00BFBD4680BC704780B561
:101FFC0000AF00F039FA00BF80BD000080B500AF23
:10200C00024801F083FA00BF80BD00BF4C020020E3
:10201C0080B500AF024801F0A1FE00BF80BD00BF3B
:10202C009402002080B586B000AF7860144A154B3E
:10203C00D31A7B617B693B61134B1B68002B02D16C
:10204C00114B124A1A60104B1A687B6813443A6998
:10205C009A4207D202F07AFA03460C221A604FF029
:10206C00FF3309E0084B1B68FB60074B1A687B6861
:10207C001344054A1360FB6818461837BD4680BDEB
:10208C00002800200004000018020020F0020020AC
:10209C0080B400AF00BFBD4680BC704780B500AFB8
:1020AC0001224FF48061054800F049FD002208210F
:1020BC00034800F044FD00BF80BD00BF0008014094
:1020CC00000C014080B500AF00224FF48061054840
:1020DC0000F035FD01220821034800F030FD00BF5F
:1020EC0080BD00BF00080140000C014080B500AF6E
:1020FC0001224FF48061054800F021FD01220821E6
:10210C00034800F01CFD00BF80BD00BF000801406B
:10211C00000C014080B500AF01222021044800F0E2
:10212C000EFD00221021024800F009FD00BF80BD09
:10213C00000C014080B500AF00222021044800F0C3
:10214C00FEFC01221021024800F0F9FC00BF80BD0A
:10215C00000C014080B500AF01222021044800F0A2
:10216C00EEFC01221021024800F0E9FC00BF80BD0A
:10217C00000C014080B500AF4FF40051024800F054
:10218C00F6FC00BF80BD00BF000C014080B500AF65
:10219C004FF48061044800F0EAFC00220821034857
:1021AC0000F0CDFC00BF80BD00080140000C0140D8
:1021BC0080B500AF0821054800F0D9FC00224FF48F
:1021CC008061034800F0BBFC00BF80BD000C0140E7
:1021DC000008014080B500AF08210A4800F098FCC7
:1021EC0003461A464FF48061074800F0A8FC4FF4F0
:1021FC008061054800F0BBFC0821024800F0B7FCE8
:10220C0000BF80BD000C01400008014080B500AF4C
:10221C002021054800F0ABFC00221021024800F000
:10222C008EFC00BF80BD00BF000C014080B500AF2C
:10223C001021054800F09BFC00222021024800F0F0
:10224C007EFC00BF80BD00BF000C014080B500AF1C
:10225C001021094800F05CFC03461A462021064870
:10226C0000F06DFC2021044800F081FC1021024894
:10227C0000F07DFC00BF80BD000C014080B400AFBD
:10228C000D4B1B680D4A13600D4B1B680D4A1360F8
:10229C000D4B1B680D4A13600D4B1B680D4A1360E8
:1022AC000D4B1B680D4A13600D4B1B680D4A1360D8
:1022BC0000BFBD4680BC7047A4000020B0000020C9
:1022CC00A8000020B4000020AC000020B8000020C2
:1022DC00C4000020D0000020BC000020C80000205A
:1022EC00C0000020CC00002080B500AF00220421EB
:1022FC00054800F024FC00224FF48071034800F0E4
:10230C001EFC00BF80BD00BF000C01400008014056
:10231C0080B500AF01220421054800F010FC00221A
:10232C004FF48071034800F00AFC00BF80BD00BF71
:10233C00000C01400008014080B500AF00220421D0
:10234C00054800F0FCFB01224FF48071034800F0BB
:10235C00F6FB00BF80BD00BF000C0140000801402F
:10236C0080B500AF01221021024800F0E8FB00BF4D
:10237C0080BD00BF0008014080B500AF00221021D5
:10238C00024800F0DCFB00BF80BD00BF000801402C
:10239C000C480D490D4A002302E0D458C4500433B4
:1023AC00C4188C42F9D30A4A0A4C002301E013608A
:1023BC000432A242FBD3FFF76BFE02F0CDF8FFF71D
:1023CC0029F9704700000020500100201C4F000824
:1023DC0050010020EC020020FEE7000080B500AFA9
:1023EC00084B1B68074A43F010031360032000F0EE
:1023FC0023F90F2000F008F8FFF730FD00231846F2
:10240C0080BD00BF0020024080B582B000AF786074
:10241C00124B1A68124B1B7819464FF47A73B3FBA4
:10242C00F1F3B2FBF3F3184600F03BF90346002B33
:10243C0001D001230EE07B680F2B0AD800227968AB
:10244C004FF0FF3000F003F9064A7B68136000235D
:10245C0000E0012318460837BD4680BDE00000208F
:10246C00E8000020E400002080B400AF054B1B788E
:10247C001A46054B1B681344034A136000BFBD4644
:10248C0080BC7047E8000020D802002080B400AF68
:10249C00024B1B681846BD4680BC7047D802002012
:1024AC0080B485B000AF78607B6803F00703FB60F5
:1024BC000C4BDB68BB60BA684FF6FF031340BB6084
:1024CC00FB681A02BB68134343F0BF6343F4003349
:1024DC00BB60044ABB68D36000BF1437BD4680BCE8
:1024EC00704700BF00ED00E080B400AF044BDB6828
:1024FC001B0A03F007031846BD4680BC704700BF9B
:10250C0000ED00E080B483B000AF0346FB7197F997
:10251C000730002B0BDBFB7903F01F02064997F900
:10252C0007305B09012000FA02F241F8232000BFBA
:10253C000C37BD4680BC704700E100E080B483B02E
:10254C0000AF03463960FB7197F90730002B0ADBAB
:10255C003B68DAB20C4997F907301201D2B20B443E
:10256C0083F800230AE03B68DAB20849FB7903F0F0
:10257C000F03043B1201D2B20B441A7600BF0C3786
:10258C00BD4680BC704700BF00E100E000ED00E0FC
:10259C0080B489B000AFF860B9607A60FB6803F072
:1025AC000703FB61FB69C3F10703042B28BF04235A
:1025BC00BB61FB690433062B02D9FB69033B00E0CA
:1025CC0000237B614FF0FF32BB6902FA03F3DA435D
:1025DC00BB681A407B699A404FF0FF317B6901FA66
:1025EC0003F3D9437B680B40134318462437BD468D
:1025FC0080BC704780B582B000AF78607B68013BCF
:10260C00B3F1807F01D301230FE00A4A7B68013BC1
:10261C0053600F214FF0FF30FFF790FF054B002266
:10262C009A60044B07221A60002318460837BD46EF
:10263C0080BD00BF10E000E080B582B000AF7860D4
:10264C007868FFF72DFF00BF0837BD4680BD80B509
:10265C0086B000AF0346B9607A60FB7300237B61E0
:10266C00FFF742FF78617A68B9687869FFF790FFE5
:10267C00024697F90F3011461846FFF75FFF00BF6F
:10268C001837BD4680BD80B582B000AF0346FB71E4
:10269C0097F907301846FFF735FF00BF0837BD46DE
:1026AC0080BD80B582B000AF78607868FFF7A2FF7C
:1026BC00034618460837BD4680BD80B485B000AFD0
:1026CC0078600023FB737B6893F82130022B08D0D1
:1026DC007B6804229A637B68002283F82020012304
:1026EC0020E07B681B681A687B681B6822F00E026E
:1026FC001A607B681B681A687B681B6822F00102F1
:10270C001A607B681A6C7B68DB6B012101FA02F2A0
:10271C005A607B68012283F821207B68002283F8B1
:10272C002020FB7B18461437BD4680BC7047000048
:10273C0080B584B000AF78600023FB737B6893F89E
:10274C002130022B05D07B6804229A630123FB7392
:10275C0051E07B681B681A687B681B6822F00E02CC
:10276C001A607B681B681A687B681B6822F0010280
:10277C001A607B681B68224A934229D07B681B68CD
:10278C00204A934222D07B681B681F4A93421AD07E
:10279C007B681B681D4A934212D07B681B681C4ADD
:1027AC0093420AD07B681B681A4A934202D14FF4B9
:1027BC0080130EE04FF080730BE04FF4803308E091
:1027CC004FF4805305E04FF4807302E0102300E0D7
:1027DC000123114A53607B68012283F821207B6816
:1027EC00002283F820207B685B6B002B03D07B6876
:1027FC005B6B78689847FB7B18461037BD4680BDED
:10280C00080002401C00024030000240440002401C
:10281C00580002406C0002400000024080B48BB0B3
:10282C0000AF7860396000237B6200233B6248E193
:10283C0001227B6A02FA03F3FB613B681B68FA69AD
:10284C001340BB61BA69FB699A4240F037813B681F
:10285C005B68A34A93425ED0A14A934275D8A14AC1
:10286C00934258D09F4A93426FD89F4A934252D07A
:10287C009D4A934269D89D4A93424CD09B4A9342BD
:10288C0063D89B4A934246D0994A93425DD8122B07
:10289C002AD8122B59D801A252F823F02329000868
:1028AC00FD2800080F2900085129000857290008A5
:1028BC0057290008572900085729000857290008EC
:1028CC0057290008572900085729000857290008DC
:1028DC0057290008572900085729000857290008CC
:1028EC000529000819290008824A934213D02CE0CC
:1028FC003B68DB683B6229E03B68DB6804333B6286
:10290C0024E03B68DB6808333B621FE03B68DB6814
:10291C000C333B621AE03B689B68002B02D104230A
:10292C003B6213E03B689B68012B05D108233B629B
:10293C007B68FA691A6109E008233B627B68FA69D3
:10294C005A6103E000233B6200E000BFBB69FF2B30
:10295C0001D87B6801E07B6804337B61BB69FF2B8A
:10296C0002D87B6A9B0002E07B6A083B9B003B61C0
:10297C007B691A680F213B6901FA03F3DB431A40A8
:10298C00396A3B6901FA03F31A437B691A603B68A5
:10299C005B6803F08053002B00F09080564B9B69D2
:1029AC00554A43F001039361534B9B6903F00103B8
:1029BC00BB60BB68514A7B6A9B08023352F82330D8
:1029CC00FB607B6A03F003039B000F2202FA03F304
:1029DC00DB43FA681340FB607B68494A93420DD095
:1029EC007B68484A934207D07B68474A934201D19F
:1029FC00022304E0032302E0012300E000237A6AAF
:102A0C0002F0030292009340FA681343FB603B49C7
:102A1C007B6A9B080233FA6841F823203B685B68A9
:102A2C0003F48033002B06D0384B1A683749BB6946
:102A3C0013430B6006E0354B1A68BB69DB43334923
:102A4C0013400B603B685B6803F40033002B06D02B
:102A5C002E4B5A682D49BB6913434B6006E02B4B38
:102A6C005A68BB69DB43294913404B603B685B6880
:102A7C0003F48013002B06D0244B9A682349BB69BE
:102A8C0013438B6006E0214B9A68BB69DB431F49FB
:102A9C0013408B603B685B6803F40013002B06D07B
:102AAC001A4BDA681949BB691343CB6006E0174B24
:102ABC00DA68BB69DB4315491340CB607B6A013391
:102ACC007B623B681A687B6A22FA03F3002B7FF463
:102ADC00AFAE00BF00BF2C37BD4680BC704700BFF7
:102AEC0000003210000031100000221000002110F4
:102AFC0000001210000011100010024000000140F4
:102B0C0000080140000C014000100140000401408D
:102B1C0080B485B000AF78600B467B807B689A6888
:102B2C007B881340002B02D00123FB7301E00023B0
:102B3C00FB73FB7B18461437BD4680BC704780B4D2
:102B4C0083B000AF78600B467B8013467B707B783C
:102B5C00002B03D07A887B681A6103E07B881A0407
:102B6C007B681A6100BF0C37BD4680BC704780B4CF
:102B7C0085B000AF78600B467B807B68DB68FB60C0
:102B8C007A88FB6813401A04FB68D9437B880B4096
:102B9C001A437B681A6100BF1437BD4680BC70476E
:102BAC0080B586B000AF78607B68002B01D1012323
:102BBC006CE27B681B6803F00103002B00F087803C
:102BCC00924B5B6803F00C03042B0CD08F4B5B68AF
:102BDC0003F00C03082B12D18C4B5B6803F480338D
:102BEC00B3F5803F0BD1894B1B6803F40033002BEA
:102BFC006CD07B685B68002B68D1012346E27B6854
:102C0C005B68B3F5803F06D1804B1B687F4A43F469
:102C1C00803313602EE07B685B68002B0CD17B4B00
:102C2C001B687A4A23F480331360784B1B68774A0D
:102C3C0023F4802313601DE07B685B68B3F5A02F41
:102C4C000CD1724B1B68714A43F4802313606F4B99
:102C5C001B686E4A43F4803313600BE06B4B1B68AC
:102C6C006A4A23F480331360684B1B68674A23F469
:102C7C00802313607B685B68002B13D0FFF706FC86
:102C8C00386108E0FFF702FC02463B69D31A642B5B
:102C9C0001D90323FAE15D4B1B6803F40033002BCD
:102CAC00F0D014E0FFF7F2FB386108E0FFF7EEFB21
:102CBC0002463B69D31A642B01D90323E6E1534B3B
:102CCC001B6803F40033002BF0D100E000BF7B68DD
:102CDC001B6803F00203002B63D04C4B5B6803F0C2
:102CEC000C03002B0BD0494B5B6803F00C03082B37
:102CFC001CD1464B5B6803F48033002B16D1434B3D
:102D0C001B6803F00203002B05D07B681B69012BA9
:102D1C0001D00123BAE13D4B1B6823F0F8027B681C
:102D2C005B69DB00394913430B603AE07B681B6934
:102D3C00002B20D0364B01221A60FFF7A7FB38611D
:102D4C0008E0FFF7A3FB02463B69D31A022B01D91B
:102D5C0003239BE12D4B1B6803F00203002BF0D0E7
:102D6C002A4B1B6823F0F8027B685B69DB00274960
:102D7C0013430B6015E0264B00221A60FFF786FB0D
:102D8C00386108E0FFF782FB02463B69D31A022B3D
:102D9C0001D903237AE11D4B1B6803F00203002BBE
:102DAC00F0D17B681B6803F00803002B3AD07B68DA
:102DBC009B69002B19D0174B01221A60FFF766FB99
:102DCC00386108E0FFF762FB02463B69D31A022B1D
:102DDC0001D903235AE10D4B5B6A03F00203002B6C
:102DEC00F0D0012000F0D8FA1CE00A4B00221A6047
:102DFC00FFF74CFB38610FE0FFF748FB02463B69DD
:102E0C00D31A022B08D9032340E100BF0010024063
:102E1C0000004242800442429E4B5B6A03F0020374
:102E2C00002BE9D17B681B6803F00403002B00F036
:102E3C00A6800023FB75974BDB6903F08053002BB6
:102E4C000DD1944BDB69934A43F08053D361914B82
:102E5C00DB6903F08053BB60BB680123FB758E4BB1
:102E6C001B6803F48073002B18D18B4B1B688A4AA8
:102E7C0043F480731360FFF709FB386108E0FFF738
:102E8C0005FB02463B69D31A642B01D90323FDE0F1
:102E9C00814B1B6803F48073002BF0D07B68DB68DC
:102EAC00012B06D17B4B1B6A7A4A43F00103136258
:102EBC002DE07B68DB68002B0CD1764B1B6A754AC6
:102ECC0023F001031362734B1B6A724A23F0040351
:102EDC0013621CE07B68DB68052B0CD16D4B1B6A05
:102EEC006C4A43F0040313626A4B1B6A694A43F051
:102EFC00010313620BE0674B1B6A664A23F0010364
:102F0C001362644B1B6A634A23F0040313627B68ED
:102F1C00DB68002B15D0FFF7B9FA38610AE0FFF730
:102F2C00B5FA02463B69D31A41F28832934201D971
:102F3C000323ABE0574B1B6A03F00203002BEED0CC
:102F4C0014E0FFF7A3FA38610AE0FFF79FFA024694
:102F5C003B69D31A41F28832934201D9032395E09D
:102F6C004C4B1B6A03F00203002BEED1FB7D012BB3
:102F7C0005D1484BDB69474A23F08053D3617B680A
:102F8C00DB69002B00F08180424B5B6803F00C0383
:102F9C00082B61D07B68DB69022B46D13F4B0022AA
:102FAC001A60FFF773FA386108E0FFF76FFA024610
:102FBC003B69D31A022B01D9032367E0354B1B68FD
:102FCC0003F00073002BF0D17B681B6AB3F5803FD4
:102FDC0008D1304B5B6823F400327B689B682D4929
:102FEC0013434B602B4B5B6823F474127B68196A98
:102FFC007B685B6A0B43274913434B60274B0122C9
:10300C001A60FFF743FA386108E0FFF73FFA02460F
:10301C003B69D31A022B01D9032337E01D4B1B68E4
:10302C0003F00073002BF0D02FE01C4B00221A6031
:10303C00FFF72CFA386108E0FFF728FA02463B69E3
:10304C00D31A022B01D9032320E0124B1B6803F087
:10305C000073002BF0D118E07B68DB69012B01D1E8
:10306C00012313E00B4B5B68FB60FB6803F48032BD
:10307C007B681B6A9A4206D1FB6803F470127B686A
:10308C005B6A9A4201D0012300E0002318461837EE
:10309C00BD4680BD001002400070004060004242FE
:1030AC0080B584B000AF786039607B68002B01D1AB
:1030BC000123D0E06A4B1B6803F007033A689A427D
:1030CC0010D9674B1B6823F0070265493B68134313
:1030DC000B60634B1B6803F007033A689A4201D0FC
:1030EC000123B8E07B681B6803F00203002B20D09F
:1030FC007B681B6803F00403002B05D0594B5B68FD
:10310C00584A43F4E06353607B681B6803F0080380
:10311C00002B05D0534B5B68524A43F46053536009
:10312C00504B5B6823F0F0027B689B684D4913435E
:10313C004B607B681B6803F00103002B40D07B685D
:10314C005B68012B07D1474B1B6803F40033002B42
:10315C0015D101237FE07B685B68022B07D1414BC3
:10316C001B6803F00073002B09D1012373E03D4B66
:10317C001B6803F00203002B01D101236BE0394BD8
:10318C005B6823F003027B685B68364913434B6032
:10319C00FFF77CF9F8600AE0FFF778F90246FB6864
:1031AC00D31A41F28832934201D9032353E02D4BB9
:1031BC005B6803F00C027B685B689B009A42EBD166
:1031CC00274B1B6803F007033A689A4210D2244B32
:1031DC001B6823F0070222493B6813430B60204B0A
:1031EC001B6803F007033A689A4201D0012332E0CE
:1031FC007B681B6803F00403002B08D0194B5B6839
:10320C0023F4E0627B68DB68164913434B607B68F0
:10321C001B6803F00803002B09D0124B5B6823F4E6
:10322C0060527B681B69DB000E4913434B6000F056
:10323C0021F802460B4B5B681B0903F00F030A498C
:10324C00CB5C22FA03F3094A1360094B1B6818463E
:10325C00FFF7DAF8002318461037BD4680BD00BFD3
:10326C000020024000100240C84E0008E000002080
:10327C00E400002090B48AB000AF2A4B3C1D0FCB69
:10328C0084E80F0040F201233B800023FB61002304
:10329C00BB6100237B6200237B6100233B62224BDA
:1032AC005B68FB61FB6903F00C03042B02D0082B59
:1032BC0003D02DE01D4B3B622DE0FB699B0C03F012
:1032CC000F0307F12802134413F8243C7B61FB69BC
:1032DC0003F48033002B13D0134B5B685B0C03F0AF
:1032EC00010307F12802134413F8283CBB617B69E6
:1032FC000E4A02FB03F2BB69B2FBF3F37B6204E000
:10330C007B690B4A02FB03F37B627B6A3B6202E044
:10331C00064B3B6200BF3B6A18462837BD4690BC43
:10332C00704700BFB84E00080010024000127A002F
:10333C0000093D0080B400AF024B1B681846BD4627
:10334C0080BC7047E000002080B500AFFFF7F2FFB3
:10335C000246054B5B681B0A03F007030349CB5C71
:10336C0022FA03F3184680BD00100240D84E000824
:10337C0080B500AFFFF7DEFF0246054B5B68DB0A4A
:10338C0003F007030349CB5C22FA03F3184680BD14
:10339C0000100240D84E000880B485B000AF7860B1
:1033AC000A4B1B680A4AA2FB03235B0A7A6802FBDE
:1033BC0003F3FB6000BFFB685A1EFA60002BF9D1C7
:1033CC0000BF00BF1437BD4680BC7047E000002032
:1033DC00D34D621080B582B000AF78607B68002B53
:1033EC0001D1012341E07B6893F83D30DBB2002B27
:1033FC0006D17B68002283F83C207868FEF760FDDC
:10340C007B68022283F83D207B681A687B68043352
:10341C001946104600F06AFA7B68012283F84620B0
:10342C007B68012283F83E207B68012283F83F20D1
:10343C007B68012283F840207B68012283F84120BD
:10344C007B68012283F842207B68012283F84320A9
:10345C007B68012283F844207B68012283F8452095
:10346C007B68012283F83D20002318460837BD46AF
:10347C0080BD000080B485B000AF78607B6893F8A5
:10348C003D30DBB2012B01D0012335E07B680222F9
:10349C0083F83D207B681B68DA687B681B6842F008
:1034AC000102DA607B681B68164A934209D07B687C
:1034BC001B68B3F1804F04D07B681B68124A93429F
:1034CC0011D17B681B689B6803F00703FB60FB68EA
:1034DC00062B10D07B681B681A687B681B6842F04F
:1034EC0001021A6007E07B681B681A687B681B681E
:1034FC0042F001021A60002318461437BD4680BC06
:10350C00704700BF002C01400004004080B582B021
:10351C0000AF78607B681B681B6903F00203022B09
:10352C0022D17B681B68DB6803F00203022B1BD1E2
:10353C007B681B686FF002021A617B6801221A77A4
:10354C007B681B689B6903F00303002B03D078682E
:10355C0000F0B1F905E0786800F0A4F9786800F0A3
:10356C00B3F97B6800221A777B681B681B6903F030
:10357C000403042B22D17B681B68DB6803F0040373
:10358C00042B1BD17B681B686FF004021A617B68EB
:10359C0002221A777B681B689B6903F44073002B2B
:1035AC0003D0786800F087F905E0786800F07AF9C4
:1035BC00786800F089F97B6800221A777B681B68B1
:1035CC001B6903F00803082B22D17B681B68DB689E
:1035DC0003F00803082B1BD17B681B686FF00802F3
:1035EC001A617B6804221A777B681B68DB6903F01D
:1035FC000303002B03D0786800F05DF905E07868D0
:10360C0000F050F9786800F05FF97B6800221A77B7
:10361C007B681B681B6903F01003102B22D17B689D
:10362C001B68DB6803F01003102B1BD17B681B6835
:10363C006FF010021A617B6808221A777B681B688E
:10364C00DB6903F44073002B03D0786800F033F986
:10365C0005E0786800F026F9786800F035F97B68A9
:10366C0000221A777B681B681B6903F00103012B8E
:10367C000ED17B681B68DB6803F00103012B07D1BB
:10368C007B681B686FF001021A617868FEF728F9F5
:10369C007B681B681B6903F08003802B0ED17B6851
:1036AC001B68DB6803F08003802B07D17B681B68E9
:1036BC006FF080021A61786800F067FA7B681B680B
:1036CC001B6903F04003402B0ED17B681B68DB6841
:1036DC0003F04003402B07D17B681B686FF040025E
:1036EC001A61786800F0F9F87B681B681B6903F0B5
:1036FC002003202B0ED17B681B68DB6803F02003B2
:10370C00202B07D17B681B686FF020021A61786848
:10371C0000F032FA00BF0837BD4680BD80B584B0DA
:10372C0000AF786039607B6893F83C30012B01D195
:10373C000223B3E07B68012283F83C207B680222E1
:10374C0083F83D207B681B689B68FB60FB6823F05B
:10375C007703FB60FB6823F47F43FB607B681B688B
:10376C00FA689A603B681B68B3F5005F3ED0B3F50E
:10377C00005F00F28780B3F5805F00F08580B3F5C1
:10378C00805F7FD8702B1AD0702B7BD8602B50D0D9
:10379C00602B77D8502B3CD0502B73D8402B58D063
:1037AC00402B6FD8302B64D0302B6BD8202B60D0B3
:1037BC00202B67D8002B5CD0102B5AD062E07B6892
:1037CC0018683B6899683B685A683B68DB6800F08E
:1037DC005CF97B681B689B68FB60FB6843F07703B4
:1037EC00FB607B681B68FA689A604EE07B6818681F
:1037FC003B6899683B685A683B68DB6800F045F9A0
:10380C007B681B689A687B681B6842F480429A60EC
:10381C003BE07B6818683B6859683B68DB681A4674
:10382C0000F0BCF87B681B685021184600F013F9B7
:10383C002BE07B6818683B6859683B68DB681A4664
:10384C0000F0DAF87B681B686021184600F003F979
:10385C001BE07B6818683B6859683B68DB681A4654
:10386C0000F09CF87B681B684021184600F0F3F8C8
:10387C000BE07B681A683B681B681946104600F021
:10388C00EAF802E000BF00E000BF7B68012283F889
:10389C003D207B68002283F83C200023184610371B
:1038AC00BD4680BD80B483B000AF786000BF0C37DC
:1038BC00BD4680BC704780B483B000AF786000BF59
:1038CC000C37BD4680BC704780B483B000AF7860C5
:1038DC0000BF0C37BD4680BC704780B483B000AFCE
:1038EC00786000BF0C37BD4680BC704780B485B093
:1038FC0000AF786039607B681B68FB607B68254A89
:10390C00934207D07B68B3F1804F03D07B68224A87
:10391C00934208D1FB6823F07003FB603B685B6843
:10392C00FA681343FB607B681A4A934207D07B68A2
:10393C00B3F1804F03D07B68174A934208D1FB68E0
:10394C0023F44073FB603B68DB68FA681343FB604D
:10395C00FB6823F080023B685B691343FB607B6868
:10396C00FA681A603B689A687B68DA623B681A6886
:10397C007B689A627B68074A934203D13B681A6959
:10398C007B681A637B6801225A6100BF1437BD46FD
:10399C0080BC7047002C01400004004080B487B00C
:1039AC0000AFF860B9607A60FB681B6A7B61FB68EA
:1039BC001B6A23F00102FB681A62FB689B693B617E
:1039CC003B6923F0F0033B617B681B013A691343AD
:1039DC003B617B6923F00A037B617A69BB68134303
:1039EC007B61FB683A699A61FB687A691A6200BF6D
:1039FC001C37BD4680BC704780B487B000AFF86000
:103A0C00B9607A60FB681B6A23F01002FB681A62CB
:103A1C00FB689B697B61FB681B6A3B617B6923F4D8
:103A2C0070437B617B681B037A6913437B613B6941
:103A3C0023F0A0033B61BB681B013A6913433B6154
:103A4C00FB687A699A61FB683A691A6200BF1C3795
:103A5C00BD4680BC704780B485B000AF78603960DB
:103A6C007B689B68FB60FB6823F07003FB603A6823
:103A7C00FB68134343F00703FB607B68FA689A60AA
:103A8C0000BF1437BD4680BC704780B487B000AF10
:103A9C00F860B9607A603B60FB689B687B617B690E
:103AAC0023F47F437B613B681A027B681A43BB6833
:103ABC0013437A6913437B61FB687A699A6000BF90
:103ACC001C37BD4680BC704780B485B000AF7860B1
:103ADC0039607B6893F83C30012B01D1022341E023
:103AEC007B68012283F83C207B68022283F83D200E
:103AFC007B681B685B68FB607B681B689B68BB60B2
:103B0C00FB6823F07003FB603B681B68FA68134387
:103B1C00FB607B681B68FA685A607B681B68144AF8
:103B2C00934209D07B681B68B3F1804F04D07B684B
:103B3C001B68104A93420CD1BB6823F08003BB6016
:103B4C003B685B68BA681343BB607B681B68BA68E8
:103B5C009A607B68012283F83D207B68002283F801
:103B6C003C20002318461437BD4680BC704700BF6C
:103B7C00002C01400004004080B483B000AF78609A
:103B8C0000BF0C37BD4680BC704780B483B000AF1B
:103B9C00786000BF0C37BD4680BC704780B582B0E2
:103BAC0000AF78607B68002B01D101233FE07B687C
:103BBC0093F83D30DBB2002B06D17B68002283F8F2
:103BCC003C207868FEF7A0F97B68242283F83D201E
:103BDC007B681B68DA687B681B6822F40052DA6029
:103BEC00786800F025FC7B681B681A697B681B6889
:103BFC0022F490421A617B681B685A697B681B68C7
:103C0C0022F02A025A617B681B68DA687B681B68A1
:103C1C0042F40052DA607B6800221A647B6820222E
:103C2C0083F83D207B68202283F83E200023184631
:103C3C000837BD4680BD80B58AB002AFF860B96068
:103C4C003B601346FB8000237B61FB6893F83D309F
:103C5C00DBB2202B7CD1BB68002B02D0FB88002B65
:103C6C0001D1012375E0FB6893F83C30012B01D1A5
:103C7C0002236EE0FB68012283F83C20FB680022E3
:103C8C001A64FB68212283F83D20FEF7FFFB786164
:103C9C00FB68FA889A84FB68FA88DA84FB689B686C
:103CAC00B3F5805F08D1FB681B69002B04D100239E
:103CBC00FB61BB68BB6103E0BB68FB610023BB61BC
:103CCC00FB68002283F83C202AE03B6800937B6968
:103CDC0000228021F86800F011FA0346002B01D075
:103CEC00032336E0FB69002B0BD1BB691B881A46FA
:103CFC00FB681B68C2F308025A60BB690233BB61E4
:103D0C0007E0FB691A78FB681B685A60FB69013392
:103D1C00FB61FB68DB8C9BB2013B9AB2FB68DA84DB
:103D2C00FB68DB8C9BB2002BCFD13B6800937B698B
:103D3C0000224021F86800F0E1F90346002B01D085
:103D4C00032306E0FB68202283F83D20002300E0DB
:103D5C00022318462037BD4680BD000080B58AB0CE
:103D6C0000AF78607B681B681B687B627B681B6894
:103D7C00DB683B627B681B685B69FB610023BB6192
:103D8C0000237B617B6A03F00F03BB61BB69002BD3
:103D9C000DD17B6A03F02003002B08D03B6A03F0A3
:103DAC002003002B03D0786800F099FA7BE1BB6903
:103DBC00002B00F0B180FB6903F00103002B05D14F
:103DCC003B6A03F49073002B00F0A6807B6A03F02F
:103DDC000103002B0AD03B6A03F48073002B05D03F
:103DEC007B681B6C43F001027B681A647B6A03F0EE
:103DFC000403002B0AD0FB6903F00103002B05D050
:103E0C007B681B6C43F002027B681A647B6A03F0CC
:103E1C000203002B0AD0FB6903F00103002B05D031
:103E2C007B681B6C43F004027B681A647B6A03F0AA
:103E3C000803002B0FD03B6A03F02003002B04D1A6
:103E4C00FB6903F00103002B05D07B681B6C43F06E
:103E5C0008027B681A647B681B6C002B00F01E81C7
:103E6C007B6A03F02003002B07D03B6A03F020038E
:103E7C00002B02D0786800F032FA7B681B685B6913
:103E8C0003F04003002B14BF01230023DBB27B6142
:103E9C007B681B6C03F00803002B02D17B69002BA1
:103EAC0031D0786800F074F97B681B685B6903F0AB
:103EBC004003002B23D07B681B685A697B681B6806
:103ECC0022F040025A617B689B6B002B13D07B68FD
:103EDC009B6B764A5A637B689B6B1846FEF728FCF3
:103EEC000346002B16D07B689B6B5B6B7A68926BDE
:103EFC00104698470EE0786800F0ECF80AE0786815
:103F0C0000F0E8F806E0786800F0E4F87B6800223E
:103F1C001A64C3E000BFC1E07B681B6B012B40F04F
:103F2C00A1807B6A03F01003002B00F09B803B6A9E
:103F3C0003F01003002B00F095800023FB607B68DE
:103F4C001B681B68FB607B681B685B68FB60FB681D
:103F5C007B681B685B6903F04003002B4ED07B68C9
:103F6C009B6B1B685B683B823B8A002B00F0988044
:103F7C007B689B8D3A8A9A4280F092807B683A8A61
:103F8C00DA857B689B6B9B69202B2BD07B681B682D
:103F9C00DA687B681B6822F48072DA607B681B68C5
:103FAC005A697B681B6822F001025A617B681B68A6
:103FBC005A697B681B6822F040025A617B68202298
:103FCC0083F83E207B6800221A637B681B68DA68E2
:103FDC007B681B6822F01002DA607B689B6B1846CA
:103FEC00FEF76BFB7B689A8D7B68DB8D9BB2D31ADB
:103FFC009BB21946786800F076F851E07B689A8D90
:10400C007B68DB8D9BB2D31A7B827B68DB8D9BB28A
:10401C00002B47D07B8A002B44D07B681B68DA6866
:10402C007B681B6822F49072DA607B681B685A69A3
:10403C007B681B6822F001025A617B68202283F89E
:10404C003E207B6800221A637B681B68DA687B68F9
:10405C001B6822F01002DA607B8A1946786800F03F
:10406C0042F81FE07B6A03F08003002B08D03B6A08
:10407C0003F08003002B03D0786800F0C9F812E03D
:10408C007B6A03F04003002B0DD03B6A03F0400326
:10409C00002B08D0786800F00AF904E000BF02E0B9
:1040AC0000BF00E000BF2837BD4680BDF5410008C9
:1040BC0080B483B000AF786000BF0C37BD4680BCC5
:1040CC00704780B483B000AF786000BF0C37BD463A
:1040DC0080BC704780B483B000AF786000BF0C37F1
:1040EC00BD4680BC704780B483B000AF78600B468F
:1040FC007B8000BF0C37BD4680BC704780B584B058
:10410C0000AFF860B9603B601346FB712CE0BB69F3
:10411C00B3F1FF3F28D0BB69002B07D0FEF7B6F9EF
:10412C0002463B68D31ABA699A421DD2FB681B68D7
:10413C00DA68FB681B6822F4D072DA60FB681B68D3
:10414C005A69FB681B6822F001025A61FB68202245
:10415C0083F83D20FB68202283F83E20FB68002278
:10416C0083F83C2003230FE0FB681B681A68BB68CC
:10417C001340BA689A420CBF01230023DBB21A46E3
:10418C00FB799A42C3D0002318461037BD4680BD38
:10419C0080B483B000AF78607B681B68DA687B689A
:1041AC001B6822F49072DA607B681B685A697B6822
:1041BC001B6822F001025A617B681B6B012B07D133
:1041CC007B681B68DA687B681B6822F01002DA6077
:1041DC007B68202283F83E207B6800221A6300BF94
:1041EC000C37BD4680BC704780B584B000AF78609A
:1041FC007B685B6AFB60FB680022DA85FB68002247
:10420C00DA84F868FFF766FF00BF1037BD4680BD43
:10421C0080B485B000AF78607B6893F83D30DBB23A
:10422C00212B3ED17B689B68B3F5805F14D17B68F2
:10423C001B69002B10D17B681B6AFB60FB681B8819
:10424C001A467B681B68C2F308025A607B681B6ABB
:10425C009A1C7B681A6208E07B681B6A591C7A6896
:10426C0011621A787B681B685A607B68DB8C9BB286
:10427C00013B9BB27A681946D184002B0FD17B6825
:10428C001B68DA687B681B6822F08002DA607B6846
:10429C001B68DA687B681B6842F04002DA60002316
:1042AC0000E0022318461437BD4680BC704780B529
:1042BC0082B000AF78607B681B68DA687B681B682B
:1042CC0022F04002DA607B68202283F83D20786877
:1042DC00FFF7EEFE002318460837BD4680BD80B5BB
:1042EC0086B000AF78607B6893F83E30DBB2222B4F
:1042FC0040F099807B689B68B3F5805F17D17B6831
:10430C001B69002B13D100237B617B689B6A3B618B
:10431C007B681B685B689BB2C3F308039AB23B696A
:10432C001A807B689B6A9A1C7B689A6226E07B6881
:10433C009B6A7B6100233B617B689B68B3F5805F64
:10434C0007D07B689B68002B0AD17B681B69002B0C
:10435C0006D17B681B685B68DAB27B691A7008E06F
:10436C007B681B685B68DBB203F07F03DAB27B69A6
:10437C001A707B689B6A5A1C7B689A627B68DB8D1F
:10438C009BB2013B9BB27A681946D185002B48D170
:10439C007B681B68DA687B681B6822F02002DA6095
:1043AC007B681B68DA687B681B6822F48072DA60B1
:1043BC007B681B685A697B681B6822F001025A6192
:1043CC007B68202283F83E207B681B6B012B23D15A
:1043DC007B6800221A637B681B68DA687B681B6841
:1043EC0022F01002DA607B681B681B6803F0100374
:1043FC00102B0AD10023FB607B681B681B68FB60D9
:10440C007B681B685B68FB60FB687B689B8D19464F
:10441C007868FFF768FE02E07868FFF752FE002329
:10442C0002E0002300E0022318461837BD4680BD89
:10443C0080B584B000AF78607B681B681B6923F47F
:10444C0040517B68DA687B681B680A431A617B6899
:10445C009A687B681B691A437B685B691343BB6072
:10446C007B681B68DB6823F4B05323F00C037A6879
:10447C001268B9680B43D3607B681B685B6923F4D3
:10448C0040717B689A697B681B680A435A617B6838
:10449C001B682C4A934203D1FEF76AFFF86002E0D6
:1044AC00FEF752FFF860FA6813469B0013449A001B
:1044BC001A447B685B689B00B2FBF3F3224AA2FBB5
:1044CC0003235B091901FA6813469B0013449A00F5
:1044DC001A447B685B689B00B2FBF3F21A4BA3FB9C
:1044EC0002035B09642000FB03F3D31A1B01323374
:1044FC00154AA2FB03235B0903F0F0031944FA6885
:10450C0013469B0013449A001A447B685B689B001B
:10451C00B2FBF3F20C4BA3FB02035B09642000FB20
:10452C0003F3D31A1B013233074AA2FB03235B09A3
:10453C0003F00F027B681B680A449A6000BF1037B7
:10454C00BD4680BD003801401F85EB51014B1868FA
:10455C00704700BFEC00002070B500260C4D0D4CD0
:10456C00641BA410A64209D100F05CFC00260A4D85
:10457C000A4C641BA410A64205D170BD55F8043B2F
:10458C0098470136EEE755F8043B98470136F2E7B9
:10459C00144F0008144F0008144F0008184F00085F
:1045AC0003460244934200D1704703F8011BF9E71C
:1045BC000EB46FF0004100B59CB01DAB029006909C
:1045CC00079104910848094953F8042B0591006898
:1045DC0002A9019300F068F80022029B1A701CB02B
:1045EC005DF804EB03B07047EC0000200802FFFFFD
:1045FC002DE9F0478E6882469E420C4690461F4637
:10460C0038D88A8912F4906F32D025680969013341
:10461C00A5EB010965694B4405EB450505EBD57523
:10462C006D109D4238BF1D46530531D5294600F00B
:10463C0053FB064650B90C234FF0FF30CAF800303C
:10464C00A38943F04003A381BDE8F0874A46216962
:10465C0000F0CEFAA38923F4906343F08003A38186
:10466C0026614E4426603E466561A5EB0905A560B2
:10467C00BE4200D93E4632464146206800F0C6FA9A
:10468C00A36822689B1B32440020A3602260DBE7F6
:10469C002A4600F07BFB06460028E1D150462169F2
:1046AC0000F0CEFAC7E700002DE9F04F98468B8951
:1046BC0007461B060D4614469DB00ED50B6963B913
:1046CC00402100F009FB2860286120B90C233B60D5
:1046DC004FF0FF30D1E040236B610023099320237E
:1046EC008DF8293030234FF00109CDF80C80DFF81C
:1046FC00A4818DF82A3023469A4613F8012B0AB16F
:10470C00252AF9D1BAEB040B0BD05B46224629467D
:10471C003846FFF76DFF013000F0AA80099A5A4421
:10472C0009929AF80030002B00F0A28000234FF081
:10473C00FF32CDE905230AF1010A049307938DF8A2
:10474C0053301A935446052214F8011B514800F0BB
:10475C0041FA049AD8B9D00644BF20238DF85330BF
:10476C00110744BF2B238DF853309AF800302A2BB5
:10477C0015D0544600204FF00A0C079A214611F828
:10478C00013B303B092B4ED9B0B1079214E0A0EBA2
:10479C00080309FA03F31343A2460493D2E7039BDD
:1047AC00191D1B680391002BBBBF5B4242F0020238
:1047BC0007930793B8BF049223782E2B0CD1637800
:1047CC002A2B35D1039B02341A1D1B680392002B34
:1047DC00B8BF4FF0FF330593DFF8C8A00322504653
:1047EC00217800F0F7F940B14023A0EB0A0003FA5E
:1047FC0000F0049B01340343049314F8011B0622BC
:10480C0025488DF8281000F0E5F9002838D0234B06
:10481C001BBB039B073323F0070308330393099B4C
:10482C003344099367E70C4601200CFB0232A5E7E1
:10483C0000234FF00A0C194601340593204610F85A
:10484C00012B303A092A03D9002BC5D00591C3E7B7
:10485C00044601230CFB0121F0E703AB00932A462D
:10486C0038460F4B04A9AFF30080421C0646D6D144
:10487C00AB895B063FF52CAF09981DB0BDE8F08FF6
:10488C0003AB00932A463846054B04A900F07CF88C
:10489C00EBE700BFE04E0008EA4E00080000000005
:1048AC00FD450008E64E00082DE9F04716469946EE
:1048BC008A680B6907469342B8BF1346336091F878
:1048CC0043200C46DDF820800AB1013333602368A5
:1048DC00990642BF336802333360256815F006052C
:1048EC0006D104F1190AE36832689B1AAB4228DC42
:1048FC0094F84320131E226818BF012392062DD46E
:10490C004946384604F14302C047013020D02368A1
:10491C00E56803F00603042B18BF002532684FF03E
:10492C000006A36808BFAD1A226908BF25EAE57521
:10493C009342C4BF9B1AED181A34B5421AD1002009
:10494C0008E00123524649463846C047013003D19E
:10495C004FF0FF30BDE8F0870135C4E73020E11897
:10496C0081F843005A1C94F845102244023382F813
:10497C004310C5E70123224649463846C04701305B
:10498C00E6D00136D9E700002DE9FF470C46277E1B
:10499C009146782F80469A460C9904F1430207D829
:1049AC00622F0AD8002F00F0D980582F00F0A48075
:1049BC0004F1420684F842703AE0A7F16303152B28
:1049CC00F6D801A050F823F02D4A0008414A0008FF
:1049DC00BD490008BD490008BD490008BD49000893
:1049EC00414A0008BD490008BD490008BD490008FE
:1049FC00BD4900084F4B0008714A0008314B0008B4
:104A0C00BD490008BD490008714B0008BD490008AC
:104A1C00714A0008BD490008BD490008394B00081F
:104A2C000B6804F142061A1D1B680A6084F84230B8
:104A3C000123A4E0256808682E0600F104030AD5BA
:104A4C0005680B60002D03DA2D236D4284F843308A
:104A5C000A235E4819E015F0400F05680B6018BF7B
:104A6C002DB2EFE70B682568181D0860280601D5E4
:104A7C001D6802E06906FBD51D886F2F0CBF08234B
:104A8C000A235248002184F843106668002EA8BF00
:104A9C002168A660A4BF21F0040121600DB9002E8D
:104AAC004DD01646B5FBF3F103FB1157C75D06F865
:104ABC00017D2F46BB420D46F4D9082B0BD1236840
:104ACC00DF0708D5236961689942DEBF302306F8F9
:104ADC00013C06F1FF36921B22614B4621464046B3
:104AEC00CDF800A003AAFFF7DFFE01304CD14FF048
:104AFC00FF3004B0BDE8F087344884F845700E6888
:104B0C00236856F8045B1F060E6014D5D90744BF02
:104B1C0043F0200323601DB9236823F02003236096
:104B2C001023AFE7236843F0200323607823284841
:104B3C0084F84530E3E75E0648BFADB2E6E71646BB
:104B4C00BBE70B6826681D1D60690D6035061B6888
:104B5C0001D5186002E07106FBD5188000231646BB
:104B6C002361BAE70B681A1D0A601E6800213046E3
:104B7C00626800F02FF808B1801B606063682361E5
:104B8C00002384F84330A8E732464946404623695F
:104B9C00D0470130ABD023689B0713D4E068039B4C
:104BAC009842B8BF1846A4E701233246494640460E
:104BBC00D04701309BD00135E36803995B1AAB42B7
:104BCC00F2DCEBE7002504F11906F5E7F14E0008DD
:104BDC00024F0008034610B5C9B20244934218466E
:104BEC0001D1002003E0047801338C42F6D110BDD2
:104BFC000A44914200F1FF3300D1704710B511F80F
:104C0C00014B914203F8014FF9D110BD884210B508
:104C1C0001EB020402D98442234607D8431EA14269
:104C2C0008D011F8012B03F8012FF8E701460244D4
:104C3C008A4200D110BD13F8014D02F8014DF7E77F
:104C4C0038B50546002943D051F8043C0C1F002B05
:104C5C00B8BFE41800F0D0F81E4A1368104633B9F8
:104C6C00636014602846BDE8384000F0CBB8A3421E
:104C7C000AD921686218934201BF1A685B685218FE
:104C8C00226063600460EDE71A465B680BB1A342D7
:104C9C00FAD911685018A0420BD120680144501861
:104CAC0083421160DED118685B6801441160536067
:104CBC00D8E702D90C232B60D4E7206821188B424B
:104CCC0001BF19685B680918216063605460C9E70B
:104CDC0038BD00BF44020020F8B5CD1C25F00305FB
:104CEC0008350C2D38BF0C25002D064601DBA942DA
:104CFC0003D90C2333600020F8BD00F07DF8214966
:104D0C000A6814469CB9204F3B6823B921463046AB
:104D1C0000F062F838602946304600F05DF8431C1C
:104D2C0023D10C233046336000F06CF8E3E72368A2
:104D3C005B1B17D40B2B03D923601C44256004E0A8
:104D4C006368A2420CBF0B605360304600F05AF807
:104D5C0004F10B00231D20F00700C21ACCD01B1A43
:104D6C00A350C9E722466468CCE7C41C24F00304B2
:104D7C00A042E3D0211A304600F02EF80130DDD1EC
:104D8C00CFE700BF4402002048020020F8B50746D8
:104D9C0014460E4621B91146BDE8F840FFF79CBFFA
:104DAC0022B9FFF74DFF25462846F8BD00F030F834
:104DBC00A0420FD221463846FFF78EFF0546002849
:104DCC00F2D031462246FFF713FF31463846FFF743
:104DDC0037FFE9E73546E7E738B50023054D0446CC
:104DEC0008462B60FDF71EF9431C02D12B6803B15A
:104DFC00236038BDDC020020014800F011B800BF70
:104E0C00E4020020014800F00CB800BFE4020020CE
:104E1C0051F8043C181F002BBCBF0B58C01870472E
:104E2C0070477047F8B500BFF8BC08BC9E46704789
:0C4E3C00F8B500BFF8BC08BC9E467047EB
:104E48000D4D4F44452032200D0000002573200AE7
:104E5800000000002564200A000000000D4D4F44AA
:104E6800452031200D0000002573200A00000000B5
:104E78000D4D4F44452032200D0000002564200AC6
:104E8800000000000D4D414E204D4F44450D0000DF
:104E98000D4D4F44452033200D0000000D4D4F446B
:104EA800452034200D0000002564200A0000000081
:104EB80002030405060708090A0B0C0D0E0F101053
:104EC80000000000000000000102030406070809B2
:104ED8000000000001020304232D302B2000686C21
:104EE8004C00656667454647003031323334353605
:104EF800373839414243444546003031323334353E
:0C4F08003637383961626364656600006A
:044F1400310100085F
:044F18000D0100087F
:104F1C000100000001000000010000000100000081
:104F2C000100000001000000010000000100000071
:104F3C000100000001000000010000000100000061
:104F4C000100000001000000010000000100000051
:104F5C002C0100000B0000000F00000020000000DE
:104F6C000000000000000000000000000000000035
:104F7C000000000000000000000000003C000000E9
:104F8C008200000020000000000000000000000073
:104F9C000000000000000000000000000000000005
:104FAC0000000000130000001700000005000000C6
:104FBC00090000000A0000000700000003000000C8
:104FCC000A000000070000000300000007000000BA
:104FDC00030000000A0000000700000003000000AE
:104FEC000A00000032000000630000000A0000000C
:104FFC000024F4001000000001000000F00000206C
:10500C000000000000000000000000000000000094
:10501C000000000000000000000000000000000084
:10502C000000000000000000000000000000000074
:10503C000000000000000000000000000000000064
:10504C000000000000000000000000000000000054
:10505C000000000000000000000000000000000044
:040000050800239D2F
:00000001FF
