:020000040800F2
:1000000000280020D12200087D1F0008831F00085F
:10001000891F00088F1F0008951F000800000000BE
:100020000000000000000000000000009B1F00080E
:10003000A71F000800000000B31F0008BF1F000832
:1000400019230008192300081923000819230008A0
:100050001923000819230008192300081923000890
:100060001923000819230008192300081923000880
:100070001923000819230008192300081923000870
:100080001923000819230008192300081923000860
:100090001923000819230008192300081923000850
:1000A0001923000819230008192300081923000840
:1000B000CD1F0008192300080000000019230008C4
:1000C00019230008000000000000000019230008A8
:1000D0000000000019230008192300080000000098
:1000E0001923000819230008192300080000000044
:1000F0000000000000000000000000000000000000
:0C01000000000000000000005FF808F1A3
:10010C0010B5054C237833B9044B13B10448AFF345
:10011C0000800123237010BD90000020000000001F
:10012C007039000808B5034B1BB103490348AFF302
:10013C00008008BD00000000940000207039000809
:10014C0080B400AF064B1B68012B04D1044B00227A
:10015C001A60012300E000231846BD4680BC70479E
:10016C00AC00002080B400AF064B1B68012B04D1FF
:10017C00044B00221A60012300E000231846BD4600
:10018C0080BC7047B000002080B400AF064B1B68E9
:10019C00012B04D1044B00221A60012300E0002340
:1001AC001846BD4680BC7047B400002080B582B0B4
:1001BC0000AF00237B601AE1914A7B6852F8232040
:1001CC0090497B6841F823208F4A7B6852F82320A2
:1001DC008B497B6841F823207B68002B54D14FF46A
:1001EC0080718A4802F07EFB03461946864A7B687A
:1001FC0042F82310834A7B6852F8232080497B689D
:10020C0051F823309A423FD17D4A7B6852F8232023
:10021C007D497B6851F823309A4235D17C4A7B6802
:10022C0052F8232078497B6851F823309A4215D034
:10023C00754A7B6852F8232075497B6841F8232066
:10024C00714A7B6852F82330002B1DD1714B01226F
:10025C001A60714B4FF496721A6015E06A4A7B680B
:10026C0052F82330002B0FD16B4B1B68013B6A4AB1
:10027C001360694B1B68002B06D1684B01221A6076
:10028C00654B4FF496721A607B68012B54D14FF476
:10029C0000715E4802F026FB034619465A4A7B68F9
:1002AC0042F82310574A7B6852F8232054497B6844
:1002BC0051F823309A423FD1514A7B6852F823209F
:1002CC0051497B6851F823309A4235D1504A7B68AA
:1002DC0052F823204C497B6851F823309A4215D0B0
:1002EC00494A7B6852F8232049497B6841F823200E
:1002FC00454A7B6852F82330002B1DD1484B012214
:10030C001A60454B4FF496721A6015E03E4A7B68B2
:10031C0052F82330002B0FD13F4B1B68013B3E4A58
:10032C0013603D4B1B68002B06D13E4B01221A601B
:10033C00394B4FF496721A607B68022B54D14FF4F0
:10034C008061324802F0CEFA034619462E4A7B6889
:10035C0042F823102B4A7B6852F8232028497B68EB
:10036C0051F823309A423FD1254A7B6852F823201A
:10037C0025497B6851F823309A4235D1244A7B6851
:10038C0052F8232020497B6851F823309A4215D02B
:10039C001D4A7B6852F823201D497B6841F82320B5
:1003AC00194A7B6852F82330002B1DD11E4B0122B9
:1003BC001A60194B4FF496721A6015E0124A7B685A
:1003CC0052F82330002B0FD1134B1B68013B124A00
:1003DC001360114B1B68002B06D1144B01221A60C1
:1003EC000D4B4FF496721A607B6801337B607B680F
:1003FC00022B7FF7E1AE00BF00BF0837BD4680BDC2
:10040C000C0000200000002018000020000C01400F
:10041C0024000020AC00002030000020B800002098
:10042C00B0000020BC000020B4000020C000002060
:10043C0080B582B000AF78607B68002B22D100229F
:10044C000121BD4802F065FA00220221BA4802F0EF
:10045C0060FA00220421B84802F05BFA002208215D
:10046C00B54802F056FA00221021B34802F051FAB6
:10047C0000222021B04802F04CFA01224021AE4863
:10048C0002F047FA7B68012B22D101220121AA48F4
:10049C0002F03FFA00220221A74802F03AFA0022A9
:1004AC000421A54802F035FA01220821A24802F0E5
:1004BC0030FA01221021A04802F02BFA012220214F
:1004CC009D4802F026FA012240219B4802F021FAB5
:1004DC007B68022B22D100220121974802F019FAE5
:1004EC0000220221944802F014FA012204219248BD
:1004FC0002F00FFA002208218F4802F00AFA0022BB
:10050C0010218D4802F005FA012220218A4802F0C0
:10051C0000FA00224021884802F0FBF97B68032B8B
:10052C0022D100220121844802F0F3F90022022199
:10053C00814802F0EEF9002204217F4802F0E9F92B
:10054C00002208217C4802F0E4F9012210217A48AB
:10055C0002F0DFF901222021774802F0DAF90022BB
:10056C004021754802F0D5F97B68042B22D1012279
:10057C000121714802F0CDF9002202216E4802F0EF
:10058C00C8F9002204216C4802F0C3F901220821A9
:10059C00694802F0BEF901221021674802F0B9F94E
:1005AC0000222021644802F0B4F900224021624864
:1005BC0002F0AFF97B68052B22D1002201215E48A5
:1005CC0002F0A7F9012202215B4802F0A2F90022F5
:1005DC000421594802F09DF900220821564802F0E6
:1005EC0098F901221021544802F093F9002220219D
:1005FC00514802F08EF9002240214F4802F089F94F
:10060C007B68062B22D1002201214B4802F081F994
:10061C0001220221484802F07CF9002204214648BC
:10062C0002F077F900220821434802F072F9002207
:10063C001021414802F06DF9002220213E4802F0C1
:10064C0068F9002240213C4802F063F97B68072BD3
:10065C0022D100220121384802F05BF9002202214C
:10066C00354802F056F900220421334802F051F9C2
:10067C0001220821304802F04CF9012210212E48A9
:10068C0002F047F9012220212B4802F042F9012205
:10069C004021294802F03DF97B68082B22D1002229
:1006AC000121254802F035F900220221224802F0EE
:1006BC0030F900220421204802F02BF900220821F5
:1006CC001D4802F026F9002210211B4802F021F9E6
:1006DC0000222021184802F01CF900224021164863
:1006EC0002F017F97B68092B22D100220121124854
:1006FC0002F00FF9002202210F4802F00AF9002241
:10070C0004210D4802F005F9002208210A4802F0E4
:10071C0000F901221021084802F0FBF800222021E8
:10072C00054802F0F6F800224021034802F0F1F8E7
:10073C0000BF0837BD4680BD000C014080B582B0BB
:10074C0000AF78607B68002B27D100221021D348A2
:10075C0002F0DFF800224FF40061D04802F0D9F823
:10076C0000224FF48051CD4802F0D3F800224FF410
:10077C000051CA4802F0CDF800224FF48041C7481E
:10078C0002F0C7F800224FF40041C44802F0C1F84F
:10079C0001228021C24802F0BCF87B68012B27D1D2
:1007AC0001221021BD4802F0B4F800224FF4006180
:1007BC00BA4802F0AEF800224FF48051B74802F06C
:1007CC00A8F801224FF40051B44802F0A2F801221B
:1007DC004FF48041B14802F09CF801224FF40041E3
:1007EC00AE4802F096F801228021AD4802F091F853
:1007FC007B68022B27D100221021A84802F089F82F
:10080C0000224FF40061A54802F083F801224FF456
:10081C008051A24802F07DF800224FF400519F480D
:10082C0002F077F800224FF480419C4802F071F8F6
:10083C0001224FF40041994802F06BF8002280210C
:10084C00974802F066F87B68032B27D10022102111
:10085C00924802F05EF800224FF400618F4802F0DB
:10086C0058F800224FF480518C4802F052F80022C4
:10087C004FF40051894802F04CF801224FF48041AA
:10088C00864802F046F801224FF40041834802F0FA
:10089C0040F800228021824802F03BF87B68042B50
:1008AC0027D1012210217D4802F033F800224FF4A9
:1008BC0000617A4802F02DF800224FF480517748FD
:1008CC0002F027F801224FF40051744802F021F88D
:1008DC0001224FF48041714802F01BF800224FF4C2
:1008EC0000416E4802F015F8002280216C4802F09D
:1008FC0010F87B68052B27D100221021674802F0E5
:10090C0008F801224FF40061644802F002F800225A
:10091C004FF48051614801F0FCFF00224FF400516C
:10092C005E4801F0F6FF01224FF480415B4801F074
:10093C00F0FF00224FF40041584801F0EAFF00227A
:10094C008021574801F0E5FF7B68062B27D1002258
:10095C001021524801F0DDFF01224FF400614F4895
:10096C0001F0D7FF00224FF480514C4801F0D1FF29
:10097C0000224FF40051494801F0CBFF00224FF404
:10098C008041464801F0C5FF00224FF40041434826
:10099C0001F0BFFF00228021414801F0BAFF7B68C3
:1009AC00072B27D1002210213C4801F0B2FF002276
:1009BC004FF40061394801F0ACFF00224FF4805134
:1009CC00364801F0A6FF01224FF40051334801F0E4
:1009DC00A0FF01224FF48041304801F09AFF012220
:1009EC004FF400412D4801F094FF012280212C4846
:1009FC0001F08FFF7B68082B27D10022102127489C
:100A0C0001F087FF00224FF40061244801F081FFC0
:100A1C0000224FF48051214801F07BFF00224FF45B
:100A2C0000511E4801F075FF00224FF480411B4815
:100A3C0001F06FFF00224FF40041184801F069FFEC
:100A4C0000228021164801F064FF7B68092B2DD110
:100A5C0000221021114801F05CFF00224FF40061CC
:100A6C000E4801F056FF00224FF480510B4801F064
:100A7C0050FF00224FF40051084801F04AFF0122B8
:100A8C004FF48041054801F044FF00224FF400412F
:100A9C00024801F03EFF002204E000BF00080140C4
:100AAC00000C01408021034801F033FF00BF0837E0
:100ABC00BD4680BD000C014080B582B000AF7860AF
:100ACC007B68002B03D07B68012B12D023E0144BE6
:100ADC001B681846FFF7ACFC00224FF4004111488C
:100AEC0001F017FF01224FF480510E4801F011FF65
:100AFC0011E00B4B5B681846FFF79AFC01224FF490
:100B0C000041084801F005FF00224FF480510548D0
:100B1C0001F0FFFE00BF00BF0837BD4680BD00BF1F
:100B2C0040010020000C014080B582B000AF78601D
:100B3C007B68002B03D07B68012B12D023E0144B75
:100B4C001B681846FFF7FAFD00224FF400511148BC
:100B5C0001F0DFFE01224FF480410E4801F0D9FE76
:100B6C0011E00B4B5B681846FFF7E8FD01224FF4D0
:100B7C000051084801F0CDFE00224FF48041054899
:100B8C0001F0C7FE00BF00BF0837BD4680BD00BFE7
:100B9C0048010020000C014080B500AF01224FF449
:100BAC000051054801F0B5FE01224FF48041024886
:100BBC0001F0AFFE00BF80BD000C014080B500AF5E
:100BCC0001224FF40041054801F0A3FE01224FF42D
:100BDC008051024801F09DFE00BF80BD000C014019
:100BEC0080B500AF524B1B6801330F2B00F2958080
:100BFC0001A252F823F000BF210D0008270D0008B8
:100C0C00270D0008270D0008270D0008270D0008E8
:100C1C00270D0008270D0008270D0008270D0008D8
:100C2C00270D0008270D0008450C0008730C000860
:100C3C00AD0C0008E70C00083E4B1B68012B6ED175
:100C4C003D4B1B685A1C3C490A601846FFF734FFA1
:100C5C00394B1B68022B02D1374B00221A60C8207B
:100C6C0000F098FF5BE0354B00221A60334B0222F8
:100C7C005A60304B1B68012B53D12F4B1B685A1CED
:100C8C002D490A601846FFF717FF2B4B1B68022BE8
:100C9C0002D1294B00221A60C82000F07BFF40E0F3
:100CAC00264B00221A60254B03225A60214B1B68ED
:100CBC00012B38D1204B1B685A1C1F490A6018465F
:100CCC00FFF7FAFE1C4B1B68022B02D11A4B0022B9
:100CDC001A60C82000F05EFF25E0184B00221A6055
:100CEC00164B04225A60134B1B68012B1DD1124B5F
:100CFC001B685A1C10490A601846FFF7DDFE0E4BA4
:100D0C001B68022B02D10C4B00221A60C82000F089
:100D1C0041FF0AE0FFF740FF08E000BF06E000BF1C
:100D2C0004E000BF02E000BF00E000BF00BF80BDD8
:100D3C0034000020E8000020C80000204001002002
:100D4C0080B500AF214B1B68102B1DD0102B35DC50
:100D5C0013F1020F2FD00F2B30D11D4B1B68012B21
:100D6C002ED11C4B1B685A1C1A490A601846FFF7F7
:100D7C00DBFE184B1B68022B02D1164B00221A60AB
:100D8C00C82000F03BFF1BE0114B1B68012B19D155
:100D9C00104B1B685A1C0F490A601846FFF7C4FE1B
:100DAC000C4B1B68022B02D10A4B00221A60C82084
:100DBC0000F024FF06E0FFF701FF04E000BF02E0B3
:100DCC0000BF00E000BF00BF80BD00BF38000020A6
:100DDC00F8000020CC00002080B500AF544B1B68FD
:100DEC003C3B032B00F2A18001A252F823F000BF80
:100DFC000D0E00081D0E00087B0E0008D90E000811
:100E0C004B4B3D221A6041F2883000F045FF8DE0DB
:100E1C00484B1B68012B0ED1474B00221A60444BE8
:100E2C003C221A60454B13221A60454B17221A605C
:100E3C0001F012FA7AE0FFF795F90346012B06D17F
:100E4C003B4B3E221A6041F2883000F025FFFFF741
:100E5C0077F90346012B05D1354B3C221A60364BF2
:100E6C0002221A6001F0BCF801F014F95EE0314B7B
:100E7C001B68012B0ED1304B00221A602C4B3C22EC
:100E8C001A602E4B13221A602D4B17221A6001F098
:100E9C00E3F94BE0FFF766F90346012B06D1244B2F
:100EAC003F221A6041F2883000F0F6FEFFF748F955
:100EBC000346012B05D11E4B3C221A601E4B02220D
:100ECC001A6001F0A3F801F0FDF82FE0194B1B6834
:100EDC00012B0ED1184B00221A60154B3C221A60C4
:100EEC00164B13221A60164B17221A6001F0B4F934
:100EFC001CE0FFF737F90346012B06D10C4B3D22C2
:100F0C001A6041F2883000F0C7FEFFF719F903466A
:100F1C00012B05D1084B02221A60054B3C221A60AA
:100F2C0001F08AF801F09EF800E000BF00BF80BD20
:100F3C003C00002010010020C400002040000020D4
:100F4C004400002080B500AF9E4B1B68042B13DCC3
:100F5C00002BC0F23581042B00F2328101A252F831
:100F6C0023F000BF8B0F0008930F0008F50F00084B
:100F7C008B1000081F1100085F2B22D020E1914B31
:100F8C0001221A601CE1904B05221A608F4B09223A
:100F9C001A608F4B0B221A608E4B0F221A60FFF7D0
:100FAC00CFF80346012B02D1864B02221A60FFF7C1
:100FBC00D9F80346012B40F0FC80824B5F221A606B
:100FCC00F7E0FFF709FF824B4FF0FF321A60814BBD
:100FDC006FF001021A607C4B6FF002021A607B4BBF
:100FEC006FF003021A60EBE0774B06221A60774B26
:100FFC001E221A60764B0C221A60764B10221A6055
:10100C00FFF7B0F80346012B09D1734B1B68013372
:10101C00714A1360714B1B680133704A13606F4B3C
:10102C001B686F4A82FB03129210DB17D31A6D4AAE
:10103C0013606A4B19686A4B83FB01239A10CB1718
:10104C00D21A13469B0013445B00CA1A654B5A60B4
:10105C00FFF79AF80346012B07D15F4B1B68624AD6
:10106C0013605E4B1B68614A1360FFF769F8034617
:10107C00012B40F0A080534B03221A609BE0524B93
:10108C0008221A60514B20221A60514B0D221A6013
:10109C00504B10221A60FFF765F80346012B09D15B
:1010AC00534B1B680133524A1360524B1B6801337C
:1010BC00504A13604F4B1B68494A82FB0312921033
:1010CC00DB17D31A474A13604A4B1968444B83FB0E
:1010DC0001239A10CB17D21A13469B0013445B00C2
:1010EC00CA1A404B5A60FFF74FF80346012B07D141
:1010FC003F4B1B68404A13603E4B1B683F4A1360D2
:10110C00FFF71EF80346012B57D12E4B04221A6011
:10111C0053E02D4B07221A602C4B1F221A602C4BCC
:10112C000E221A602B4B10221A60FFF71BF8034695
:10113C00012B09D1324B1B680133314A1360314BFF
:10114C001B6801332F4A13602E4B1B68244A82FB09
:10115C0003129210DB17D31A224A1360294B196819
:10116C001F4B83FB01239A10CB17D21A13469B00FB
:10117C0013445B00CA1A1B4B5A60FFF705F8034671
:10118C00012B07D11E4B1B681F4A13601D4B1B689C
:10119C001E4A1360FEF7D4FF0346012B0FD11C4BE4
:1011AC0013221A601B4B17221A60064B00221A607E
:1011BC0005E000BF04E000BF02E000BF00E000BF9C
:1011CC0000BF80BDC4000020480000204C0000205F
:1011DC003400002038000020500000207000002057
:1011EC0067666666480100205C0000207C000020D9
:1011FC00580000206C0000206400002078000020C3
:10120C0054000020680000206000002074000020C2
:10121C00400000204400002080B500AF854B1B68C7
:10122C00133B032B00F2FD8001A252F823F000BF08
:10123C004D120008771200080B1300089D130008CC
:10124C007C4B14221A607C4B1B684FF47A7202FBA5
:10125C0003F37A4A1360794B1B68184600F04CFC78
:10126C004FF47A7000F07CFCE2E000F0B9FE744BB5
:10127C001B68744A82FB03129210DB17D31A724A52
:10128C0013606F4B19686F4B83FB01239A10CB17BC
:10129C00D21A13469B0013445B00CA1A6A4B5A605D
:1012AC006A4B1B68012B10D1654B1B68013B644AD0
:1012BC001360634B1B68002B03D15F4B1B68604AA8
:1012CC0013604FF47A7000F04BFC614B1B68012BE0
:1012DC0040F0A980574B15221A605E4B1B684FF4E7
:1012EC007A7202FB03F3554A5360544B5B68184601
:1012FC0000F002FC4FF47A7000F032FC93E000F046
:10130C0085FE554B1B684F4A82FB03129210DB176C
:10131C00D31A4D4A1360504B19684A4B83FB012377
:10132C009A10CB17D21A13469B0013445B00CA1AAF
:10133C00454B5A60454B1B68012B10D1464B1B6823
:10134C00013B454A1360444B1B68002B03D1414BB6
:10135C001B68414A13604FF47A7000F001FC3C4B5F
:10136C001B68012B61D1334B16221A603B4B1B6857
:10137C004FF47A7202FB03F3304A93602F4B9B6855
:10138C00184600F0B9FB4FF47A7000F0E9FB4CE022
:10139C0000F052FE324B1B682A4A82FB0312921059
:1013AC00DB17D31A284A13602D4B1968254B83FB86
:1013BC0001239A10CB17D21A13469B0013445B00DF
:1013CC00CA1A214B5A60214B1B68012B10D1244B9C
:1013DC001B68013B224A1360214B1B68002B03D175
:1013EC001E4B1B681E4A13604FF47A7000F0B8FB5A
:1013FC00174B1B68012B1AD10E4B14221A600E4B83
:10140C001B684FF47A7202FB03F30C4A13600B4B0C
:10141C001B68184600F070FB4FF47A7000F0A0FBCC
:10142C0005E000BF04E000BF02E000BF00E000BF29
:10143C0000BF80BD4000002050000020280100208B
:10144C005C0000206766666640010020E00000201A
:10145C00D000002054000020600000205800002024
:10146C006400002080B500AF894B1B68173B032B31
:10147C0000F2058101A252F823F000BF9914000874
:10148C00F9150008C314000867150008804B1922D1
:10149C001A60804B1B684FF47A7202FB03F37E4A8E
:1014AC0013607D4B1B68184600F040FB4FF47A70BC
:1014BC0000F08AFBEAE000F0EDFD784B1B68784AFF
:1014CC0082FB03129210DB17D31A764A1360734B0C
:1014DC001968734B83FB01239A10CB17D21A13464E
:1014EC009B0013445B00CA1A6E4B5A606E4B1B6810
:1014FC00012B18D1694B1B68013B684A1360674B81
:10150C001B68002B03D04FF47A7000F05DFB634B2B
:10151C001B68002B03D15F4B1B68604A13604FF4B0
:10152C007A7000F051FB614B1B68012B40F0A980D5
:10153C00574B1A221A605E4B1B684FF47A7202FBEF
:10154C0003F3554A5360544B5B68184600F0EEFAAF
:10155C004FF47A7000F038FB93E000F0B3FD554B7C
:10156C001B684F4A82FB03129210DB17D31A4D4AA9
:10157C001360504B19684A4B83FB01239A10CB170D
:10158C00D21A13469B0013445B00CA1A454B5A608F
:10159C00454B1B68012B10D1464B1B68013B454A40
:1015AC001360444B1B68002B03D1414B1B68414A11
:1015BC0013604FF47A7000F007FB3C4B1B68012B57
:1015CC0061D1334B18221A603B4B1B684FF47A7273
:1015DC0002FB03F3304A93602F4B9B68184600F0D4
:1015EC00A5FA4FF47A7000F0EFFA4CE000F03AFDF7
:1015FC00324B1B682A4A82FB03129210DB17D31A58
:10160C00284A13602D4B1968254B83FB01239A1034
:10161C00CB17D21A13469B0013445B00CA1A214BFA
:10162C005A60214B1B68012B10D1244B1B68013BCA
:10163C00224A1360214B1B68002B03D11E4B1B68E5
:10164C001E4A13604FF47A7000F0BEFA174B1B68F9
:10165C00012B1AD10E4B19221A600E4B1B684FF43A
:10166C007A7202FB03F30C4A13600B4B1B6818468F
:10167C0000F05CFA4FF47A7000F0A6FA05E000BFB7
:10168C0004E000BF02E000BF00E000BF00BF80BD6F
:10169C004400002068000020340100207400002069
:1016AC006766666648010020F0000020D800002024
:1016BC006C00002078000020700000207C000020CE
:1016CC0080B500AF294B1B6803330B2B44D801A208
:1016DC0052F823F065170008651700086517000815
:1016EC0065170008651700086517000865170008DE
:1016FC006517000811170008171700084B1700088A
:10170C0031170008FFF788FD2DE000F03FFD184B66
:10171C001B68012B22D100F0F7FC4FF4FA7000F09B
:10172C00A1FA1BE000F042FD114B1B68012B17D1F5
:10173C0000F0FEFC4FF4FA7000F094FA10E000F0A8
:10174C0045FD0B4B1B68012B0CD100F0E7FC4FF453
:10175C00FA7000F087FA05E000BF04E000BF02E079
:10176C0000BF00E000BF00BF80BD00BF48000020EC
:10177C000801002080B500AF424B1B680433242BBA
:10178C0076D801A252F823F07D1800087D180008C5
:10179C007D1800087D1800087D1800087D180008C9
:1017AC007D1800087D1800087D1800087D180008B9
:1017BC007D1800087D1800087D18000829180008FD
:1017CC007D1800087D1800087D1800087D18000899
:1017DC007D1800087D1800087D1800087D18000889
:1017EC007D1800087D1800087D1800087D18000879
:1017FC007D1800087D1800087D1800087D18000869
:10180C007D1800087D1800087D1800087D18000858
:10181C002F1800086318000849180008FFF722FE6B
:10182C002DE000F0E3FC184B1B68012B22D100F0DB
:10183C0089FC4FF4FA7000F0FBF91BE000F0E8FCB7
:10184C00114B1B68012B17D100F094FC4FF4FA706C
:10185C0000F0EEF910E000F0EDFC0B4B1B68012BD7
:10186C000CD100F07BFC4FF4FA7000F0E1F905E0CC
:10187C0000BF04E000BF02E000BF00E000BF00BFFB
:10188C0080BD00BF4C0000200001002080B500AFDF
:10189C0000F03EFD00F032F800F0B8F800F06AF805
:1018AC00144801F09FFC0A2000F074F90A2000F0A3
:1018BC00A5F94FF4FA7000F0BBF94FF4FA7000F090
:1018CC00D1F94FF4FA7000F001FA0B4B1B68012BA5
:1018DC0005D100F00FFC4FF4FA7000F0F7F9FFF7A8
:1018EC0031FBFFF77DF9FFF72BFAFFF743FFFFF70B
:1018FC00E7FEEAE7500100201801002080B590B007
:10190C0000AF07F1180328220021184602F022F834
:10191C003B1D00221A605A609A60DA601A61022339
:10192C00BB610123BB621023FB6200237B6307F1C5
:10193C001803184601F01EF80346002B01D000F0E6
:10194C00D5F80F237B600023BB600023FB600023D2
:10195C003B6100237B613B1D0021184601F08AFA94
:10196C000346002B01D000F0C1F800BF4037BD4644
:10197C0080BD000080B586B000AF07F108030022DF
:10198C001A605A609A60DA603B4600221A605A600C
:10199C001D4B4FF080421A601B4B41F63F725A6050
:1019AC00194B00229A60184B0922DA60164B002260
:1019BC001A61154B00229A61134801F0C3FB0346D0
:1019CC00002B01D000F092F84FF48053BB6007F16C
:1019DC00080319460C4801F059FD0346002B01D0B1
:1019EC0000F084F800233B6000237B603B461946E3
:1019FC00054801F021FF0346002B01D000F076F8DA
:101A0C0000BF1837BD4680BD5001002080B586B0A0
:101A1C0000AF07F1080300221A605A609A60DA607E
:101A2C00294B9B69284A43F004039361264B9B691D
:101A3C0003F004037B607B68234B9B69224A43F0D1
:101A4C0008039361204B9B6903F008033B603B68E0
:101A5C0000224FF6F8711D4800F05BFF00224FF298
:101A6C00FF011B4800F055FF4FF6F873BB600123D4
:101A7C00FB6000233B6102237B6107F108031946DD
:101A8C00124800F0B5FD4FF2FF03BB600123FB6071
:101A9C0000233B6102237B6107F1080319460C48C4
:101AAC0000F0A6FD4FF4E063BB600023FB60012354
:101ABC003B6107F108031946054800F099FD00BF8A
:101ACC001837BD4680BD00BF001002400008014021
:101ADC00000C014080B582B000AF786000F010F9C6
:101AEC00FEF764FB00BF0837BD4680BD80B400AF75
:101AFC0072B600BFFEE7000080B483B000AF786020
:101B0C00074B1B687A6892FBF3F3064A1360064B8B
:101B1C0000221A6000BF0C37BD4680BC704700BF66
:101B2C0080000020D4000020D000002080B483B0BE
:101B3C0000AF7860074B1B687A6892FBF3F3064A98
:101B4C001360064B00221A6000BF0C37BD4680BCE8
:101B5C00704700BF80000020DC000020D80000206F
:101B6C0080B483B000AF7860074B1B687A6892FB37
:101B7C00F3F3064A1360064B00221A6000BF0C37C1
:101B8C00BD4680BC704700BF80000020E4000020F0
:101B9C00E000002080B483B000AF7860074B1B6876
:101BAC007A6892FBF3F3064A1360064B00221A6024
:101BBC0000BF0C37BD4680BC704700BF80000020C2
:101BCC00EC000020E800002080B483B000AF786007
:101BDC00074B1B687A6892FBF3F3064A1360064BBB
:101BEC0000221A6000BF0C37BD4680BC704700BF96
:101BFC0080000020F4000020F000002080B483B0AE
:101C0C0000AF7860074B1B687A6892FBF3F3064AC7
:101C1C001360064B00221A6000BF0C37BD4680BC17
:101C2C00704700BF80000020FC000020F80000205E
:101C3C0080B483B000AF7860074B1B687A6892FB66
:101C4C00F3F3064A1360064B00221A6000BF0C37F0
:101C5C00BD4680BC704700BF8000002004010020FE
:101C6C000001002080B483B000AF7860074B1B6884
:101C7C007A6892FBF3F3064A1360064B00221A6053
:101C8C0000BF0C37BD4680BC704700BF80000020F1
:101C9C000C0100200801002080B483B000AF7860F4
:101CAC00074B1B687A6892FBF3F3064A1360064BEA
:101CBC0000221A6000BF0C37BD4680BC704700BFC5
:101CCC0080000020140100201001002080B483B09B
:101CDC0000AF7860074B1B687A6892FBF3F3064AF7
:101CEC001360064B00221A6000BF0C37BD4680BC47
:101CFC00704700BF800000201C010020180100204C
:101D0C0080B400AF594B1B68002B04DD574B1B688C
:101D1C00013B564A1360554B1B68002B02D1544BA8
:101D2C0001221A60534B1B68002B04DD514B1B68BE
:101D3C00013B504A13604F4B1B68002B02D14E4B9A
:101D4C0001221A604D4B1B68002B04DD4B4B1B68AA
:101D5C00013B4A4A1360494B1B68002B02D1484B8C
:101D6C0001221A60474B1B68002B04DD454B1B6896
:101D7C00013B444A1360434B1B68002B02D1424B7E
:101D8C0001221A60414B1B68002B04DD3F4B1B6882
:101D9C00013B3E4A13603D4B1B68002B02D13C4B70
:101DAC0001221A603B4B1B68002B04DD394B1B686E
:101DBC00013B384A1360374B1B68002B02D1364B62
:101DCC0001221A60354B1B68002B04DD334B1B685A
:101DDC00013B324A1360314B1B68002B02D1304B54
:101DEC0001221A602F4B1B68002B04DD2D4B1B6846
:101DFC00013B2C4A13602B4B1B68002B02D12A4B46
:101E0C0001221A60294B1B68002B04DD274B1B6831
:101E1C00013B264A1360254B1B68002B02D1244B37
:101E2C0001221A60234B1B68002B04DD214B1B681D
:101E3C00013B204A13601F4B1B68002B02D11E4B29
:101E4C0001221A601D4B1B68002B04DD1B4B1B6809
:101E5C00013B1A4A1360194B1B68002B02D1184B1B
:101E6C0001221A6000BFBD4680BC7047D400002020
:101E7C00D0000020DC000020D8000020E40000206E
:101E8C00E0000020EC000020E8000020F40000201E
:101E9C00F0000020FC000020F800002004010020CD
:101EAC00000100200C01002008010020140100207A
:101EBC00100100201C01002018010020240100202A
:101ECC002001002080B485B000AF154B9B69144AEB
:101EDC0043F001039361124B9B6903F00103BB6058
:101EEC00BB680F4BDB690E4A43F08053D3610C4B3C
:101EFC00DB6903F080537B607B680A4B5B68FB609B
:101F0C00FB6823F0E063FB60FB6843F08063FB60DD
:101F1C00044AFB68536000BF1437BD4680BC704751
:101F2C00001002400000014080B584B000AF786022
:101F3C007B681B68B3F1804F13D10C4BDB690B4AE8
:101F4C0043F00103D361094BDB6903F00103FB6030
:101F5C00FB68002200211C2000F013FB1C2000F069
:101F6C002CFB00BF1037BD4680BD00BF00100240E7
:101F7C0080B400AFFEE780B400AFFEE780B400AFE2
:101F8C00FEE780B400AFFEE780B400AFFEE780B49C
:101F9C0000AF00BFBD4680BC704780B400AF00BF2F
:101FAC00BD4680BC704780B400AF00BFBD4680BC4E
:101FBC00704780B500AF00F0F1F900BF80BD0000A4
:101FCC0080B500AF024801F059F900BF80BD00BFD9
:101FDC005001002080B400AF00BFBD4680BC7047EC
:101FEC0080B500AF01222021074800F092FC0022AE
:101FFC008021054800F08DFC00224021024800F0B1
:10200C0088FC00BF80BD00BF0008014080B500AF58
:10201C0000222021074800F07CFC0022802105488A
:10202C0000F077FC01224021024800F072FC00BF56
:10203C0080BD00BF0008014080B500AF0022202108
:10204C00074800F066FC01228021054800F061FC85
:10205C0000224021024800F05CFC00BF80BD00BFA4
:10206C000008014080B500AF01224FF48071084890
:10207C0000F04FFC00224FF48061054800F049FC51
:10208C0000224FF40071024800F043FC00BF80BDF9
:10209C000008014080B500AF00224FF48071084861
:1020AC0000F037FC00224FF48061054800F031FC51
:1020BC0001224FF40071024800F02BFC00BF80BDE0
:1020CC000008014080B500AF00224FF48071084831
:1020DC0000F01FFC01224FF48061054800F019FC50
:1020EC0000224FF40071024800F013FC00BF80BDC9
:1020FC000008014080B500AF0821024800F021FC27
:10210C0000BF80BD0008014080B500AF202102480F
:10211C0000F017FC00BF80BD0008014080B500AF87
:10212C004021024800F00DFC00BF80BD00080140BA
:10213C0080B500AF8021024800F003FC00BF80BDD9
:10214C000008014080B500AF4FF48071024800F0E8
:10215C00F8FB00BF80BD00BF0008014080B500AF98
:10216C004FF40071024800F0ECFB00BF80BD00BFD3
:10217C000008014080B500AF4FF48061024800F0C8
:10218C00E0FB00BF80BD00BF0008014080B500AF80
:10219C0000228021044800F0BCFB002240210248B0
:1021AC0000F0B7FB00BF80BD0008014080B500AF58
:1021BC0000222021044800F0ACFB00224021024800
:1021CC0000F0A7FB00BF80BD0008014080B500AF48
:1021DC0000222021044800F09CFB002280210248B0
:1021EC0000F097FB00BF80BD0008014080B500AF38
:1021FC0000224FF48061054800F08BFB00224FF465
:10220C000071024800F085FB00BF80BD0008014052
:10221C0080B500AF00224FF48071054800F079FBC7
:10222C0000224FF40071024800F073FB00BF80BD28
:10223C000008014080B500AF00224FF480710548C2
:10224C0000F067FB00224FF48061024800F061FB54
:10225C0000BF80BD0008014080B400AF0D4B1B686F
:10226C000D4A13600D4B1B680D4A13600D4B1B6818
:10227C000D4A13600D4B1B680D4A13600D4B1B6808
:10228C000D4A13600D4B1B680D4A136000BFBD4611
:10229C0080BC7047500000205C00002054000020DF
:1022AC006000002058000020640000207000002016
:1022BC007C00002068000020740000206C000020CE
:1022CC00780000200C480D490D4A002302E0D45838
:1022DC00C4500433C4188C42F9D30A4A0A4C002364
:1022EC0001E013600432A242FBD3FFF773FE01F04E
:1022FC000DFBFFF7CBFA7047000000209000002088
:10230C00B0390008900000209C010020FEE700007E
:10231C0080B500AF084B1B68074A43F010031360ED
:10232C00032000F023F90F2000F008F8FFF7CAFD96
:10233C000023184680BD00BF0020024080B582B04B
:10234C0000AF7860124B1A68124B1B7819464FF489
:10235C007A73B3FBF1F3B2FBF3F3184600F03BF9DD
:10236C000346002B01D001230EE07B680F2B0AD80B
:10237C00002279684FF0FF3000F003F9064A7B68C1
:10238C001360002300E0012318460837BD4680BDCA
:10239C00840000208C0000208800002080B400AF56
:1023AC00054B1B781A46054B1B681344034A1360F4
:1023BC0000BFBD4680BC70478C00002098010020F7
:1023CC0080B400AF024B1B681846BD4680BC7047FA
:1023DC009801002080B485B000AF78607B6803F072
:1023EC000703FB600C4BDB68BB60BA684FF6FF035E
:1023FC001340BB60FB681A02BB68134343F0BF6316
:10240C0043F40033BB60044ABB68D36000BF14378D
:10241C00BD4680BC704700BF00ED00E080B400AF4B
:10242C00044BDB681B0A03F007031846BD4680BC4F
:10243C00704700BF00ED00E080B483B000AF0346EE
:10244C00FB7197F90730002B0BDBFB7903F01F02B4
:10245C00064997F907305B09012000FA02F241F8AE
:10246C00232000BF0C37BD4680BC704700E100E064
:10247C0080B483B000AF03463960FB7197F9073025
:10248C00002B0ADB3B68DAB20C4997F907301201D2
:10249C00D2B20B4483F800230AE03B68DAB2084955
:1024AC00FB7903F00F03043B1201D2B20B441A76F2
:1024BC0000BF0C37BD4680BC704700BF00E100E098
:1024CC0000ED00E080B489B000AFF860B9607A60CC
:1024DC00FB6803F00703FB61FB69C3F10703042BE3
:1024EC0028BF0423BB61FB690433062B02D9FB69AB
:1024FC00033B00E000237B614FF0FF32BB6902FA23
:10250C0003F3DA43BB681A407B699A404FF0FF3102
:10251C007B6901FA03F3D9437B680B4013431846DC
:10252C002437BD4680BC704780B582B000AF786060
:10253C007B68013BB3F1807F01D301230FE00A4A92
:10254C007B68013B53600F214FF0FF30FFF790FF8A
:10255C00054B00229A60044B07221A600023184690
:10256C000837BD4680BD00BF10E000E080B582B0EA
:10257C0000AF78607868FFF72DFF00BF0837BD46C5
:10258C0080BD80B586B000AF0346B9607A60FB733E
:10259C0000237B61FFF742FF78617A68B96878693C
:1025AC00FFF790FF024697F90F3011461846FFF7D8
:1025BC005FFF00BF1837BD4680BD80B582B000AF4D
:1025CC000346FB7197F907301846FFF735FF00BF3C
:1025DC000837BD4680BD80B582B000AF78607868A2
:1025EC00FFF7A2FF034618460837BD4680BD000022
:1025FC0080B48BB000AF7860396000237B6200231D
:10260C003B6248E101227B6A02FA03F3FB613B68FF
:10261C001B68FA691340BB61BA69FB699A4240F0C6
:10262C0037813B685B68A34A93425ED0A14A9342D0
:10263C0075D8A14A934258D09F4A93426FD89F4A6B
:10264C00934252D09D4A934269D89D4A93424CD0B2
:10265C009B4A934263D89B4A934246D0994A9342F1
:10266C005DD8122B2AD8122B59D801A252F823F07C
:10267C00F7260008D1260008E326000825270008C5
:10268C002B2700082B2700082B2700082B270008D6
:10269C002B2700082B2700082B2700082B270008C6
:1026AC002B2700082B2700082B2700082B270008B6
:1026BC002B270008D9260008ED260008824A9342F1
:1026CC0013D02CE03B68DB683B6229E03B68DB689D
:1026DC0004333B6224E03B68DB6808333B621FE059
:1026EC003B68DB680C333B621AE03B689B68002B51
:1026FC0002D104233B6213E03B689B68012B05D19C
:10270C0008233B627B68FA691A6109E008233B6283
:10271C007B68FA695A6103E000233B6200E000BF6A
:10272C00BB69FF2B01D87B6801E07B6804337B61BC
:10273C00BB69FF2B02D87B6A9B0002E07B6A083BDB
:10274C009B003B617B691A680F213B6901FA03F31B
:10275C00DB431A40396A3B6901FA03F31A437B697C
:10276C001A603B685B6803F08053002B00F090808C
:10277C00564B9B69554A43F001039361534B9B693C
:10278C0003F00103BB60BB68514A7B6A9B080233B0
:10279C0052F82330FB607B6A03F003039B000F228B
:1027AC0002FA03F3DB43FA681340FB607B68494A87
:1027BC0093420DD07B68484A934207D07B68474AC6
:1027CC00934201D1022304E0032302E0012300E041
:1027DC0000237A6A02F0030292009340FA681343D2
:1027EC00FB603B497B6A9B080233FA6841F8232063
:1027FC003B685B6803F48033002B06D0384B1A68B7
:10280C003749BB6913430B6006E0354B1A68BB694B
:10281C00DB43334913400B603B685B6803F40033C4
:10282C00002B06D02E4B5A682D49BB6913434B60C5
:10283C0006E02B4B5A68BB69DB43294913404B60BC
:10284C003B685B6803F48013002B06D0244B9A681A
:10285C002349BB6913438B6006E0214B9A68BB6923
:10286C00DB431F4913408B603B685B6803F4001328
:10287C00002B06D01A4BDA681949BB691343CB609D
:10288C0006E0174BDA68BB69DB4315491340CB6094
:10289C007B6A01337B623B681A687B6A22FA03F31A
:1028AC00002B7FF4AFAE00BF00BF2C37BD4680BC01
:1028BC00704700BF000032100000311000002210E1
:1028CC000000211000001210000011100010024036
:1028DC000000014000080140000C014000100140C4
:1028EC000004014080B485B000AF78600B467B805B
:1028FC007B689A687B881340002B02D00123FB7302
:10290C0001E00023FB73FB7B18461437BD4680BCEB
:10291C00704780B483B000AF78600B467B80134661
:10292C007B707B78002B03D07A887B681A6103E07C
:10293C007B881A047B681A6100BF0C37BD4680BCCB
:10294C00704780B485B000AF78600B467B807B68A5
:10295C00DB68FB607A88FB6813401A04FB68D94378
:10296C007B880B401A437B681A6100BF1437BD4645
:10297C0080BC704780B586B000AF78607B68002B58
:10298C0001D101236CE27B681B6803F00103002B6F
:10299C0000F08780924B5B6803F00C03042B0CD087
:1029AC008F4B5B6803F00C03082B12D18C4B5B68CC
:1029BC0003F48033B3F5803F0BD1894B1B6803F4D0
:1029CC000033002B6CD07B685B68002B68D1012333
:1029DC0046E27B685B68B3F5803F06D1804B1B6891
:1029EC007F4A43F4803313602EE07B685B68002BD6
:1029FC000CD17B4B1B687A4A23F480331360784BE1
:102A0C001B68774A23F4802313601DE07B685B68A6
:102A1C00B3F5A02F0CD1724B1B68714A43F4802381
:102A2C0013606F4B1B686E4A43F4803313600BE0EA
:102A3C006B4B1B686A4A23F480331360684B1B682A
:102A4C00674A23F4802313607B685B68002B13D0E8
:102A5C00FFF7B6FC386108E0FFF7B2FC02463B69B1
:102A6C00D31A642B01D90323FAE15D4B1B6803F4E1
:102A7C000033002BF0D014E0FFF7A2FC386108E023
:102A8C00FFF79EFC02463B69D31A642B01D9032342
:102A9C00E6E1534B1B6803F40033002BF0D100E04C
:102AAC0000BF7B681B6803F00203002B63D04C4B08
:102ABC005B6803F00C03002B0BD0494B5B6803F0F5
:102ACC000C03082B1CD1464B5B6803F48033002BA2
:102ADC0016D1434B1B6803F00203002B05D07B6817
:102AEC001B69012B01D00123BAE13D4B1B6823F07C
:102AFC00F8027B685B69DB00394913430B603AE0F1
:102B0C007B681B69002B20D0364B01221A60FFF723
:102B1C0057FC386108E0FFF753FC02463B69D31AB7
:102B2C00022B01D903239BE12D4B1B6803F00203FD
:102B3C00002BF0D02A4B1B6823F0F8027B685B69F2
:102B4C00DB00274913430B6015E0264B00221A606B
:102B5C00FFF736FC386108E0FFF732FC02463B69B0
:102B6C00D31A022B01D903237AE11D4B1B6803F006
:102B7C000203002BF0D17B681B6803F00803002BC9
:102B8C003AD07B689B69002B19D0174B01221A6035
:102B9C00FFF716FC386108E0FFF712FC02463B69B0
:102BAC00D31A022B01D903235AE10D4B5B6A03F0B4
:102BBC000203002BF0D0012000F0A6FA1CE00A4B17
:102BCC0000221A60FFF7FCFB38610FE0FFF7F8FBFF
:102BDC0002463B69D31A022B08D9032340E100BFFC
:102BEC000010024000004242800442429E4B5B6A4D
:102BFC0003F00203002BE9D17B681B6803F004038C
:102C0C00002B00F0A6800023FB75974BDB6903F0CB
:102C1C008053002B0DD1944BDB69934A43F08053C6
:102C2C00D361914BDB6903F08053BB60BB6801231C
:102C3C00FB758E4B1B6803F48073002B18D18B4BE8
:102C4C001B688A4A43F480731360FFF7B9FB386141
:102C5C0008E0FFF7B5FB02463B69D31A642B01D998
:102C6C000323FDE0814B1B6803F48073002BF0D031
:102C7C007B68DB68012B06D17B4B1B6A7A4A43F0DD
:102C8C00010313622DE07B68DB68002B0CD1764BC3
:102C9C001B6A754A23F001031362734B1B6A724A59
:102CAC0023F0040313621CE07B68DB68052B0CD15A
:102CBC006D4B1B6A6C4A43F0040313626A4B1B6A2C
:102CCC00694A43F0010313620BE0674B1B6A664AC7
:102CDC0023F001031362644B1B6A634A23F0040361
:102CEC0013627B68DB68002B15D0FFF769FB38613A
:102CFC000AE0FFF765FB02463B69D31A41F28832C2
:102D0C00934201D90323ABE0574B1B6A03F0020338
:102D1C00002BEED014E0FFF753FB38610AE0FFF70D
:102D2C004FFB02463B69D31A41F28832934201D9D8
:102D3C00032395E04C4B1B6A03F00203002BEED1EE
:102D4C00FB7D012B05D1484BDB69474A23F08053AF
:102D5C00D3617B68DB69002B00F08180424B5B68A0
:102D6C0003F00C03082B61D07B68DB69022B46D186
:102D7C003F4B00221A60FFF723FB386108E0FFF796
:102D8C001FFB02463B69D31A022B01D9032367E0D0
:102D9C00354B1B6803F00073002BF0D17B681B6A6A
:102DAC00B3F5803F08D1304B5B6823F400327B686D
:102DBC009B682D4913434B602B4B5B6823F47412B7
:102DCC007B68196A7B685B6A0B43274913434B602A
:102DDC00274B01221A60FFF7F3FA386108E0FFF77E
:102DEC00EFFA02463B69D31A022B01D9032337E0D1
:102DFC001D4B1B6803F00073002BF0D02FE01C4B15
:102E0C0000221A60FFF7DCFA386108E0FFF7D8FA05
:102E1C0002463B69D31A022B01D9032320E0124B43
:102E2C001B6803F00073002BF0D118E07B68DB69A2
:102E3C00012B01D1012313E00B4B5B68FB60FB689A
:102E4C0003F480327B681B6A9A4206D1FB6803F458
:102E5C0070127B685B6A9A4201D0012300E0002368
:102E6C0018461837BD4680BD001002400070004067
:102E7C006000424280B584B000AF786039607B68F6
:102E8C00002B01D10123D0E06A4B1B6803F0070330
:102E9C003A689A4210D9674B1B6823F007026549C0
:102EAC003B6813430B60634B1B6803F007033A68E2
:102EBC009A4201D00123B8E07B681B6803F002033F
:102ECC00002B20D07B681B6803F00403002B05D07B
:102EDC00594B5B68584A43F4E06353607B681B684A
:102EEC0003F00803002B05D0534B5B68524A43F4A4
:102EFC0060535360504B5B6823F0F0027B689B6817
:102F0C004D4913434B607B681B6803F00103002B96
:102F1C0040D07B685B68012B07D1474B1B6803F4DF
:102F2C000033002B15D101237FE07B685B68022BFB
:102F3C0007D1414B1B6803F00073002B09D101230F
:102F4C0073E03D4B1B6803F00203002B01D10123FE
:102F5C006BE0394B5B6823F003027B685B68364996
:102F6C0013434B60FFF72CFAF8600AE0FFF728FADE
:102F7C000246FB68D31A41F28832934201D90323EB
:102F8C0053E02D4B5B6803F00C027B685B689B0085
:102F9C009A42EBD1274B1B6803F007033A689A421D
:102FAC0010D2244B1B6823F0070222493B681343C1
:102FBC000B60204B1B6803F007033A689A4201D060
:102FCC00012332E07B681B6803F00403002B08D05C
:102FDC00194B5B6823F4E0627B68DB68164913438A
:102FEC004B607B681B6803F00803002B09D0124B65
:102FFC005B6823F460527B681B69DB000E4913434A
:10300C004B6000F021F802460B4B5B681B0903F088
:10301C000F030A49CB5C22FA03F3094A1360094BEC
:10302C001B681846FFF78AF9002318461037BD466F
:10303C0080BD00BF002002400010024098390008FB
:10304C00840000208800002090B48AB000AF2A4B86
:10305C003C1D0FCB84E80F0040F201233B80002382
:10306C00FB610023BB6100237B6200237B61002397
:10307C003B62224B5B68FB61FB6903F00C03042B86
:10308C0002D0082B03D02DE01D4B3B622DE0FB69D9
:10309C009B0C03F00F0307F12802134413F8243C94
:1030AC007B61FB6903F48033002B13D0134B5B68FB
:1030BC005B0C03F0010307F12802134413F8283CBE
:1030CC00BB617B690E4A02FB03F2BB69B2FBF3F3F3
:1030DC007B6204E07B690B4A02FB03F37B627B6A35
:1030EC003B6202E0064B3B6200BF3B6A1846283746
:1030FC00BD4690BC704700BF8839000800100240E4
:10310C0000127A0000093D0080B485B000AF7860F1
:10311C000A4B1B680A4AA2FB03235B0A7A6802FB70
:10312C0003F3FB6000BFFB685A1EFA60002BF9D159
:10313C0000BF00BF1437BD4680BC70478400002020
:10314C00D34D621080B582B000AF78607B68002BE5
:10315C0001D1012341E07B6893F83D30DBB2002BB9
:10316C0006D17B68002283F83C207868FEF7DCFEF1
:10317C007B68022283F83D207B681A687B680433E5
:10318C001946104600F06AFA7B68012283F8462043
:10319C007B68012283F83E207B68012283F83F2064
:1031AC007B68012283F840207B68012283F8412050
:1031BC007B68012283F842207B68012283F843203C
:1031CC007B68012283F844207B68012283F8452028
:1031DC007B68012283F83D20002318460837BD4642
:1031EC0080BD000080B485B000AF78607B6893F838
:1031FC003D30DBB2012B01D0012335E07B6802228C
:10320C0083F83D207B681B68DA687B681B6842F09A
:10321C000102DA607B681B68164A934209D07B680E
:10322C001B68B3F1804F04D07B681B68124A934231
:10323C0011D17B681B689B6803F00703FB60FB687C
:10324C00062B10D07B681B681A687B681B6842F0E1
:10325C0001021A6007E07B681B681A687B681B68B0
:10326C0042F001021A60002318461437BD4680BC98
:10327C00704700BF002C01400004004080B582B0B4
:10328C0000AF78607B681B681B6903F00203022B9C
:10329C0022D17B681B68DB6803F00203022B1BD175
:1032AC007B681B686FF002021A617B6801221A7737
:1032BC007B681B689B6903F00303002B03D07868C1
:1032CC0000F0B1F905E0786800F0A4F9786800F036
:1032DC00B3F97B6800221A777B681B681B6903F0C3
:1032EC000403042B22D17B681B68DB6803F0040306
:1032FC00042B1BD17B681B686FF004021A617B687E
:10330C0002221A777B681B689B6903F44073002BBD
:10331C0003D0786800F087F905E0786800F07AF956
:10332C00786800F089F97B6800221A777B681B6843
:10333C001B6903F00803082B22D17B681B68DB6830
:10334C0003F00803082B1BD17B681B686FF0080285
:10335C001A617B6804221A777B681B68DB6903F0AF
:10336C000303002B03D0786800F05DF905E0786862
:10337C0000F050F9786800F05FF97B6800221A774A
:10338C007B681B681B6903F01003102B22D17B6830
:10339C001B68DB6803F01003102B1BD17B681B68C8
:1033AC006FF010021A617B6808221A777B681B6821
:1033BC00DB6903F44073002B03D0786800F033F919
:1033CC0005E0786800F026F9786800F035F97B683C
:1033DC0000221A777B681B681B6903F00103012B21
:1033EC000ED17B681B68DB6803F00103012B07D14E
:1033FC007B681B686FF001021A617868FEF76AFB44
:10340C007B681B681B6903F08003802B0ED17B68E3
:10341C001B68DB6803F08003802B07D17B681B687B
:10342C006FF080021A61786800F067FA7B681B689D
:10343C001B6903F04003402B0ED17B681B68DB68D3
:10344C0003F04003402B07D17B681B686FF04002F0
:10345C001A61786800F0F9F87B681B681B6903F047
:10346C002003202B0ED17B681B68DB6803F0200344
:10347C00202B07D17B681B686FF020021A617868DB
:10348C0000F032FA00BF0837BD4680BD80B584B06D
:10349C0000AF786039607B6893F83C30012B01D128
:1034AC000223B3E07B68012283F83C207B68022274
:1034BC0083F83D207B681B689B68FB60FB6823F0EE
:1034CC007703FB60FB6823F47F43FB607B681B681E
:1034DC00FA689A603B681B68B3F5005F3ED0B3F5A1
:1034EC00005F00F28780B3F5805F00F08580B3F554
:1034FC00805F7FD8702B1AD0702B7BD8602B50D06C
:10350C00602B77D8502B3CD0502B73D8402B58D0F5
:10351C00402B6FD8302B64D0302B6BD8202B60D045
:10352C00202B67D8002B5CD0102B5AD062E07B6824
:10353C0018683B6899683B685A683B68DB6800F020
:10354C005CF97B681B689B68FB60FB6843F0770346
:10355C00FB607B681B68FA689A604EE07B681868B1
:10356C003B6899683B685A683B68DB6800F045F932
:10357C007B681B689A687B681B6842F480429A607F
:10358C003BE07B6818683B6859683B68DB681A4607
:10359C0000F0BCF87B681B685021184600F013F94A
:1035AC002BE07B6818683B6859683B68DB681A46F7
:1035BC0000F0DAF87B681B686021184600F003F90C
:1035CC001BE07B6818683B6859683B68DB681A46E7
:1035DC0000F09CF87B681B684021184600F0F3F85B
:1035EC000BE07B681A683B681B681946104600F0B4
:1035FC00EAF802E000BF00E000BF7B68012283F81C
:10360C003D207B68002283F83C20002318461037AD
:10361C00BD4680BD80B483B000AF786000BF0C376E
:10362C00BD4680BC704780B483B000AF786000BFEB
:10363C000C37BD4680BC704780B483B000AF786057
:10364C0000BF0C37BD4680BC704780B483B000AF60
:10365C00786000BF0C37BD4680BC704780B485B025
:10366C0000AF786039607B681B68FB607B68254A1B
:10367C00934207D07B68B3F1804F03D07B68224A1A
:10368C00934208D1FB6823F07003FB603B685B68D6
:10369C00FA681343FB607B681A4A934207D07B6835
:1036AC00B3F1804F03D07B68174A934208D1FB6873
:1036BC0023F44073FB603B68DB68FA681343FB60E0
:1036CC00FB6823F080023B685B691343FB607B68FB
:1036DC00FA681A603B689A687B68DA623B681A6819
:1036EC007B689A627B68074A934203D13B681A69EC
:1036FC007B681A637B6801225A6100BF1437BD4690
:10370C0080BC7047002C01400004004080B487B09E
:10371C0000AFF860B9607A60FB681B6A7B61FB687C
:10372C001B6A23F00102FB681A62FB689B693B6110
:10373C003B6923F0F0033B617B681B013A6913433F
:10374C003B617B6923F00A037B617A69BB68134395
:10375C007B61FB683A699A61FB687A691A6200BFFF
:10376C001C37BD4680BC704780B487B000AFF86092
:10377C00B9607A60FB681B6A23F01002FB681A625E
:10378C00FB689B697B61FB681B6A3B617B6923F46B
:10379C0070437B617B681B037A6913437B613B69D4
:1037AC0023F0A0033B61BB681B013A6913433B61E7
:1037BC00FB687A699A61FB683A691A6200BF1C3728
:1037CC00BD4680BC704780B485B000AF786039606E
:1037DC007B689B68FB60FB6823F07003FB603A68B6
:1037EC00FB68134343F00703FB607B68FA689A603D
:1037FC0000BF1437BD4680BC704780B487B000AFA3
:10380C00F860B9607A603B60FB689B687B617B69A0
:10381C0023F47F437B613B681A027B681A43BB68C5
:10382C0013437A6913437B61FB687A699A6000BF22
:10383C001C37BD4680BC704780B485B000AF786043
:10384C0039607B6893F83C30012B01D1022341E0B5
:10385C007B68012283F83C207B68022283F83D20A0
:10386C007B681B685B68FB607B681B689B68BB6044
:10387C00FB6823F07003FB603B681B68FA6813431A
:10388C00FB607B681B68FA685A607B681B68144A8B
:10389C00934209D07B681B68B3F1804F04D07B68DE
:1038AC001B68104A93420CD1BB6823F08003BB60A9
:1038BC003B685B68BA681343BB607B681B68BA687B
:1038CC009A607B68012283F83D207B68002283F894
:1038DC003C20002318461437BD4680BC704700BFFF
:1038EC00002C01400004004080B483B000AF78602D
:1038FC0000BF0C37BD4680BC704780B483B000AFAE
:10390C00786000BF0C37BD4680BC704770B5002690
:10391C000C4D0D4C641BA410A64209D100F022F8EA
:10392C0000260A4D0A4C641BA410A64205D170BD9A
:10393C0055F8043B98470136EEE755F8043B984799
:10394C000136F2E7A8390008A8390008A8390008A0
:10395C00AC39000803460244934200D1704703F887
:10396C00011BF9E7F8B500BFF8BC08BC9E467047D0
:0C397C00F8B500BFF8BC08BC9E467047C0
:1039880002030405060708090A0B0C0D0E0F101098
:1039980000000000000000000102030406070809F7
:0439A80031010008E1
:0439AC000D01000801
:1039B0000100000001000000010000000100000003
:1039C00001000000010000000100000001000000F3
:1039D00001000000010000000100000001000000E3
:1039E0002C0100000B0000000F0000003C00000054
:1039F000130000001700000005000000090000008F
:103A000005000000030000000200000005000000A7
:103A1000030000000200000003000000020000009C
:103A20000500000003000000020000000500000087
:103A30000A0000000024F400100000000100000053
:04000005080022D1FC
:00000001FF
